:020000040800F2
:10000000880500200101000893250008D317000887
:1000100091250008EB010008692600080000000097
:10002000000000000000000000000000B7250008EC
:10003000F901000800000000B5250008B9250008F6
:100040001B0100081B0100081B0100081B01000820
:100050001B0100081B0100081B0100081B01000810
:100060001B0100081B010008FB0100081B01000820
:100070001B0100081B0100081B0100081B010008F0
:100080001B010008ED0100081B0100081B0100080E
:100090001B0100081B0100081B01000801020008E9
:1000A0001B0100081B0100081B0100081B010008C0
:1000B0001B0100081B0100081B010008D5170008E0
:1000C0001B0100081B0100081B0100081B010008A0
:1000D0001B0100081B0100081B0100081B01000890
:1000E0001B0100081B0100081B010008DFF80CD0F1
:1000F00000F05AF8004800474D2B00088805002002
:100100000648804706480047FEE7FEE7FEE7FEE7B1
:10011000FEE7FEE7FEE7FEE7FEE7FEE72126000832
:10012000ED000008202A04DB203A21FA02F0002129
:10013000704721FA02F3D040C2F1200291400843F7
:10014000194670472DE9F05F0546002092469B4610
:1001500088460646814640241BE0284641464746DD
:100160002246FFF7DFFF53465A46C01A914110D38B
:1001700011461846224600F029F82D1A67EB0108AF
:100180004F4622460120002100F020F817EB00091D
:100190004E41201EA4F10104DFDC484631462A46C8
:1001A0004346BDE8F09F0000064C074D06E0E068BE
:1001B00040F0010394E8070098471034AC42F6D3AE
:1001C000FFF798FFE430000804310008202A04DB20
:1001D000203A00FA02F1002070479140C2F120035A
:1001E00020FA03F3194390407047FEE7014800F0FE
:1001F0005FB80000C00000207047102000F022BB54
:1002000010B5202000F01EFB402000F01BFBBDE8D5
:100210001040802000F016BB10B590F8211000248B
:10022000022903D00421816301243DE001680A68AA
:1002300022F00E020A6001680A6822F001020A60D8
:100240001A4A0168914201D1012121E0174A143272
:10025000914201D110211BE0144A2832914201D170
:10026000891515E0114A3C32914201D189140FE001
:100270000E4A5032914202D14FF4803108E00B4ACD
:100280006432914202D14FF4801101E04FF080714D
:10029000064A083A5160012180F82110002180F8B7
:1002A0002010416B01B18847204610BD0800024074
:1002B0002DE9F05FC16B0C6801680B68D0F840C095
:1002C000042202FA0CF2494DDFF824A1494E4A4FAC
:1002D000DFF828B1DFF828E122422CD05A072AD5CE
:1002E0000A68920603D40A6822F004020A600168D0
:1002F000A94201D1042219E0514501D1402215E063
:10030000B14202D14FF4806210E0B94202D14FF401
:1003100080420BE0594502D14FF4802206E071453E
:1003200002D14FF4800201E04FF080622F4908397A
:100330004A60C16A3BE04FF0020808FA0CF818EA7C
:10034000040F4FF000094FF0010235D05FEA8378C7
:1003500032D50B689B0605D40B6823F00A030B60AB
:1003600080F821200168A94201D1022219E05145FB
:1003700001D1202215E0B14202D14FF4007210E009
:10038000B94202D14FF400520BE0594502D14FF46B
:10039000003206E0714502D14FF4001201E04FF047
:1003A0000072124908394A6080F82090816A002959
:1003B0001AD0BDE8F05F0847082505FA0CF525427C
:1003C00012D01B0710D50B6823F00E030B6090F8BA
:1003D0004010C36B02FA01F15960826380F821205A
:1003E00080F82090016BE2E7BDE8F09F0800024032
:1003F0001C0002403000024044000240580002400D
:100400006C00024030B548B308C81549142219449D
:10041000B1FBF2F18900C163124981630221417786
:100420001A6843F6F0718A43D0E900142143D0E9F9
:1004300002452C43214304692143446921438469D3
:10044000214311431960002141628162C16201634D
:100450004163012242770177084630BD012030BD5B
:10046000F8FFFDBF0000024031B500F0DBFA009C50
:100470000546601C00D0641C00F0D4FA401BA0426A
:10048000FAD338BD70B5BA4C0025236A62785B1C7C
:10049000402819D021462028C9783AD080287CD01D
:1004A000102861D123622079401CC0B22071012A3A
:1004B00074D001F0D3FE0321002002F036FBADA082
:1004C000BDE8704001F028BF521C6270022100207C
:1004D000236202F02AFBA9A001F01EFF03210020E5
:1004E00002F023FBA8A001F017FF0421002002F076
:1004F0001CFBAAA001F010FF0521002002F015FB53
:10050000AAA001F009FF607802282DD9E570A57036
:100510002CE1491CC8B22362E070002A50D00128A7
:1005200023D0022827D003283DD004281CD1022143
:10053000002002F0FAFA91A001F0EEFE0321002063
:1005400002F0F3FA90A001F0E7FE0421002002F08F
:10055000ECFA92A001F0E0FE0521002002F0E5FA9D
:1005600092A001F0D9FEE57070BD0321002002F0D9
:10057000DCFA92A06BE00321002002F0D6FA87A0FB
:1005800001F0CAFE0421002002F0CFFA8EA000BFC5
:1005900001F0C2FE0521002001E017E0D9E002F0E1
:1005A000C4FA89A08CE70321002002F0BEFA7FA0E4
:1005B00001F0B2FE0421002002F0B7FA86A0E7E7BE
:1005C0000321002002F0B1FA88A079E72362A07825
:1005D000401CC0B2A070002A6FD001290DD00229A2
:1005E0002BD003293BD00429BED1012876D0022884
:1005F00072D0032871D002D870BD0028FCD002212F
:10060000002002F092FA5DA001F086FE0321002096
:1006100002F08BFA5CA001F07FFE0421002002F0C2
:1006200084FA5EA001F078FE0521002002F07DFA38
:100630005EA001F071FEA57070BD012802D00228F5
:10064000DDD270BD0321002002F06FFA69A001F035
:1006500063FE0421002002F068FA6AA098E70128EE
:100660001ED002282AD00328EBD30221002002F05A
:100670005CFA42A001F050FE0321002002F055FA7E
:1006800041A001F049FE0421002002F04EFA43A0EF
:1006900001F042FE0521002002F047FA43A00FE7D7
:1006A0000321002002F041FA59A001F035FE042197
:1006B000002002F03AFA39A06AE744E00321002062
:1006C00002F033FA3DA001F027FE0421002002F0E1
:1006D0002CFA2DA01BE001E00DE020E0032100201A
:1006E00002F023FA4AA001F017FE0421002002F0D4
:1006F0001CFA2EA04CE70321002002F016FA27A0D6
:1007000001F00AFE0421002002F00FFA40A001F0DF
:1007100003FE0521002002F008FA3DA0D0E60321E7
:10072000002002F002FA25A001F0F6FD04210020CD
:1007300002F0FBF914A001F0EFFD0521002002F00A
:10074000F4F937A0BCE60321002002F0EEF939A04D
:10075000B6E602297FF475AF0128FBD1E0610421E0
:10076000002002F0E2F934A001F0D6FD257170BD41
:1007700000000020444F4E452100000043686F6E8A
:10078000204D454E553A0000312E53657420436C80
:100790006F636B2054696D6500000000322E507548
:1007A0006D70204F6E2F4F6666000000332E50751F
:1007B0006D70204C656E6774680000003C42616398
:1007C0006B204D454E550000202020202020202069
:1007D00020202020200000003C4261636B2020206C
:1007E000202020202020202000000000444F574ED1
:1007F000000000003C4261636B204D454E552020B7
:1008000020200000312E53657420436C6F636B0011
:100810002020202020202020202020202020000018
:1008200020202020202020202020202020202020C8
:10083000200000005550000050756D70206F6E2034
:1008400061743A00044910B50A68024202D0086097
:10085000FFF718FE10BD0000140401402DE9F84F09
:10086000DFF890A100220AF1040B144601274FF093
:100870000F090BF1040E00BF0B6807FA04F52B40BB
:10088000AB4274D1DFF870C14E68A6EB0C08664528
:100890002BD00DDC032E34D005DC36B3012E19D05D
:1008A000022E2FD11BE0112E16D0122E2AD119E0C4
:1008B000B8F5881F19D006DCB8F5803F15D0B8F51B
:1008C000801F1FD111E0B8F5001F0ED0B8F5041F2E
:1008D00018D10AE0CA6815E0CA68121D12E0CA6899
:1008E00008320FE0CA680C320CE08A682AB1012A8B
:1008F0004FF0080203D0456104E0042202E00561E4
:1009000000E00022FF2B01D8064601E000F10406BA
:100910004FEA840501D9A5F12005D6F800C009FAEF
:1009200005F82CEA080C02FA05F54CEA050CC6F8A5
:1009300000C04D68ED0057D5304DAE6946F0010658
:10094000AE61AD6924F0030605F0010500952C4D5C
:1009500006EB050CDCF80850A6074FEA167809FAF2
:1009600008F6B543274EB04202D1002610E03BE026
:10097000254EB04201D101260AE0244EB04201D1F9
:10098000022605E0224EB04201D1032600E00426F3
:1009900006FA08F62E43CCF808604D68DAF80060D5
:1009A000ED03554601D51E4300E09E432E604D6881
:1009B000DBF80060AD035D4601D51E4300E09E43B9
:1009C0002E604D68DEF80060ED02754601D51E43CD
:1009D00000E09E432E604D68AD020E4D2E6801D59D
:1009E0001E4300E09E432E60641C102CFFF444AFB5
:1009F000BDE8F88F00040140000011100010024013
:100A00000000014000080140000C014000100140BE
:100A1000001401400C0401400AB10161704709044F
:100A2000FBE7000001480068704700002800002034
:100A3000704770472DE9F05F02680446D2F81880CD
:100A40005569566890F83E007449DFF8D0A1DFF888
:100A5000CCB1DFF8CC918F1C0AF17E0A0BF13E0B72
:100A6000102812D0402810D00D425BD0B00559D5C7
:100A7000936920460021DB435B0700D50121926981
:100A8000D243120648D5828947E015F0011F05D0F0
:100A9000B00503D5204601F036FA10E05F48801D0E
:100AA000054205D0B00503D5606CC0B2106106E008
:100AB0000D4204D0B00502D5204601F097F918EA9E
:100AC000090F14D015EA0A0F08D0700506D53D426B
:100AD00006D12046BDE8F05F01F004B93D421FD0C9
:100AE000B0051DD52046BDE8F05F01F0BBB815EAA2
:100AF0000B0F08D0700506D53D4206D12046BDE853
:100B0000F05F00F09FBF3D420AD0B00508D52046F7
:100B1000BDE8F05F00F032BF028B92B2FFF789FFB1
:100B2000BDE8F09F3D480E30054206D0B00504D523
:100B30002046BDE8F05F01F013BA18EA090F4FF044
:100B4000280134D015EA0A0F23D0700521D53D4283
:100B500021D194F83D302046628D002AE0D0426ACF
:100B6000541C4462046812782261428D521E4285F0
:100B7000428D002AD4D1292BD2D10268536823F4A4
:100B8000806353602122026380F83D1000F0D5FAA3
:100B9000C6E73D42C4D0B005C2D5608D0028BFD0A5
:100BA000606A411C616221680078086131E015EAE1
:100BB0000B0F22D0700520D53D4220D194F83D3056
:100BC0002046648D002CABD01469426A551C4562E6
:100BD0001470428D521E4285428D002AA0D12A2BCC
:100BE0009ED10268536823F480635360222202631B
:100BF00080F83D1000F0A0FA92E73D4290D0B00599
:100C00008ED5608D00288BD01169606A421C6262AB
:100C10000170608D401E608582E7000002000100C7
:100C2000040010007047000070B5040004D094F870
:100C30003D00002510B106E0012070BD84F83C5055
:100C4000204600F01DFA242084F83D002068016849
:100C500021F00101016000F0CFFB32492268B0FBB6
:100C6000F1F15160304A6368934206D94FF49673AC
:100C700059434FF47A73B1FBF3F12368491C1962AD
:100C80006168914208D84900B0FBF1F0C0F30B0154
:100C9000042919D2042017E0A368A3B301EBC10211
:100CA00002EB0112B0FBF2F242F48042120531D0A5
:100CB00053B301EBC10202EB0111B0FBF1F040F4C0
:100CC000804000BF40F400402168C861D4E90701BA
:100CD000084321680860D4E903100843216888604C
:100CE000D4E9050108432168C8602068016841F023
:100CF000010101602564202084F83D00256384F80B
:100D00003E50002070BD00E006E001EB4102B0FB68
:100D1000F2F2CBE70120D7E701EB4101B0FBF1F0A4
:100D2000D0E7000040420F00A086010070477047E6
:100D3000704700002DE9F84F1F4690468A4604464A
:100D4000DDF82890FFF76EFE054694F83D00202858
:100D50007ED11923012278492046009501F095F9AA
:100D60000028F5D194F83C00012871D0012084F8C6
:100D70003C0020680168C90703D1016841F0010106
:100D800001602068016821F400610160222084F87C
:100D90003D00102084F83E0000262664C4F824801C
:100DA00067856648E062608D20852B464A4651463D
:100DB000204600F09EFE28B1206C84F83C60042898
:100DC00050D073E0208D5E4F68B1012814D0022806
:100DD000206801681ED041F480610160206841698B
:100DE000806900909AE020684169816900910168FA
:100DF00041F40071016091E02068016821F4806194
:100E0000016072B62068416981690091016841F40E
:100E100000710AE041F40061016072B62068416926
:100E200081690091016821F48061016062B675E01A
:100E3000032850D801280CD002284B464FF000025E
:100E400039462046009512D001F01FF970BB13E01F
:100E500070E02A464946204601F08CF928B1206C02
:100E6000202823D00120BDE8F88F20684BE001F056
:100E70000CF9D8B972B61BE02068016821F48061D2
:100E8000016072B620680169606A421C626201708A
:100E9000208D401E2085608D401E60854B460022BF
:100EA00039462046009501F0F0F808B10320DAE752
:100EB0002068016841F40071016020680169606A7E
:100EC000421C62620170208D401E2085608D401E94
:100ED000608562B6C9E72A464946204601F04AF9CC
:100EE0000028BCD120680169606A421C62620170FE
:100EF000208D401E2085608D401E608520684169E0
:100F0000C94349070AD40169606A421C62620170E0
:100F1000208D401E2085608D401E6085208D00281C
:100F200086D1202084F83D0084F83E6084F83C603F
:100F3000002098E7022096E7020010000000FFFF63
:100F4000040001002DE9F84F1F4690468A460446EA
:100F5000DDF82890FFF766FD064694F83D0020284E
:100F60007ED11923012243492046009601F08DF8D5
:100F700000287DD194F83C00012879D0012084F824
:100F80003C0020680168C90703D1016841F00101F4
:100F900001602068016821F400610160212084F86B
:100FA0003D00102084F83E0000252564C4F824800C
:100FB00067853148E062608D208533464A46514658
:100FC000204600F005FE28B1206C84F83C5004282F
:100FD0004CD00DE0206841698069009030E03246D5
:100FE0004946204601F0F7F828B1206C042838D093
:100FF0000320BDE8F88F606A411C616221680078B7
:101000000861608D401E6085208D401E80B2208565
:1010100021684A69D24352070BD450B1606A421C1E
:10102000626200780861608D401E6085208D401EE0
:10103000208532464946204601F000F80028D4D1E8
:10104000208D0028CBD154F83D0B016841F400718C
:101050000160202004F81E09E57765770020C8E7C5
:1010600006E02068016841F4007101600120C0E7DA
:101070000220BEE7020010000000FFFF704770472B
:1010800030B5054600681F4985B0884237D14FF416
:1010900040700090122001900320039069461A4886
:1010A000FFF7DCFB1948416841F002014160184834
:1010B000C16941F40011C161C069174C00F400100E
:1010C000049014480021C4E900018020C4E9021002
:1010D00020202161C4E905102046E161FFF792F963
:1010E00018B17A210DA001F0C0FAAC6300221146BC
:1010F0001F20656200F09EF81F2000F08FF805B0F9
:1011000030BD000000540040000C014000000140D0
:101110000010024080000240C00000202E2E2F53FD
:1011200072632F73746D3332663178785F68616CE7
:101130005F6D73702E63000070477047024801684E
:10114000491C01607047000028000020074810B5C6
:10115000016841F010010160032000F08BF80020CD
:1011600000F006F800F018F8002010BD0020024042
:1011700010B5044607484FF47A710068B0FBF1F0EF
:1011800000F00FFB00222146501E00F053F8002013
:1011900010BD0000240000201E4808B5816941F000
:1011A00001018161806900F001000090032000F0DE
:1011B00061F8002211466FF00B0000F03BF80022AE
:1011C00011466FF00A0000F035F8002211466FF06A
:1011D000090000F02FF800221146501F00F02AF8F5
:1011E00000221146101F00F025F800221146901E23
:1011F00000F020F800221146501E00F01BF80648AF
:10120000416821F0E0614160416841F00071416056
:1012100008BD0000001002400000014000F01F0265
:10122000012191404009800000F1E020C0F8001148
:1012300070470000F0B40E4B1B680C46C3F302234A
:10124000C3F10705042D00D90425191D072901D272
:10125000002300E0DB1E012606FA05F1491E2140AD
:1012600099409E40761E16403143F0BC01F092B981
:101270000CED00E0064900F0070208684FF6FF0396
:10128000184040EA0220034A1043086070470000FB
:101290000CED00E00000FA052DE9F047DFF83C8195
:1012A00005460E46D8F8000000F00700B0420CD208
:1012B000D8F8001021F007013143C8F80010D8F821
:1012C000000000F00700B04263D12878444C80074A
:1012D00005D56068A96820F0F000084360602878B0
:1012E000C00745D06868012816D02168022816D0AA
:1012F000890700294DDA616821F00301014361602B
:10130000FFF790FB6968074641F2883001290FD04A
:101310000229814619D027E021688903E9E789017C
:10132000E7E700BFFFF77EFBC11B494501D918E085
:1013300081466068C0F381000128F3D118E000BF46
:10134000FFF770FBC11B49450BD86068C0F38100F3
:101350000228F5D10CE000BFFFF764FBC11B494533
:1013600002D90320BDE8F087606810F00C0FF3D1BC
:10137000D8F80010404601F00701B1420BD90168CE
:1013800021F0070131430160006800F00700B0421E
:1013900001D00120E6E72878400705D56068E968B4
:1013A00020F4E060084360602878000706D5606894
:1013B000296920F4605040EAC100606000F02CF818
:1013C0006168084AC1F30311515CC84006490860CE
:1013D0000020FFF7CDFE0020C4E7000000200240FF
:1013E00000100240CC3000082400002001480068B2
:1013F000704700002400002004480549006849683F
:10140000044AC1F30221515CC84070472400002007
:1014100000100240DC30000810B512A385B00FCBDD
:101420008DE80F0013A0144B006804905A6813480D
:1014300002F00C0104290FD008290DD1C2F3834416
:10144000D2031DF8041009D55A6804ABC2F3404218
:101450009A5CB0FBF2F0484305B010BD0848484321
:10146000FAE7000002030405060708090A0B0C0D41
:101470000E0F1010010200000010024000127A004E
:1014800000093D002DE9F84F04460078B94DC0072A
:1014900048D06868C0F38100012807D06868C0F3AD
:1014A0008100022809D16868C00306D52868800336
:1014B00038D5606800286FD034E06068B0F5803FB0
:1014C0000BD010B1B0F5A02F11D0286820F48030D7
:1014D0002860286820F4802002E0286840F48030EA
:1014E0002860606888B1FFF79DFA064609E0286821
:1014F00040F480202860F0E7FFF794FA801B64280E
:1015000075D828688003F7D50CE0FFF78BFA0646FC
:1015100005E000BFFFF786FA801B6428F0D8286832
:101520008003F7D42078944E80074FF001094FF0E4
:1015300000083BD5686810F00C0F07D06868C0F34E
:101540008100022809D16868C00306D42868800792
:1015500014D5206901281FD110E02069B0B1C6F868
:101560000090FFF75FFA074605E000BFFFF75AFA61
:10157000C01B0228C4D828688007F7D5286861698D
:1015800020F0F80040EAC10028600FE0C6F80080B3
:10159000FFF748FA074606E0E9E000BFFFF742FA26
:1015A000C01B022823D828688007F7D420780007BA
:1015B0002CD57248A169D9B1C0F80090FFF732FA72
:1015C000074604E0FFF72EFAC01B02280FD8686A0E
:1015D0008007F7D56A484FF4FA510068B0FBF1F084
:1015E000009000BF0098411E0091FAD20EE080E00A
:1015F000C0F80080FFF716FA074604E0FFF712FA7A
:10160000C01B022875D8686A8007F7D42078400785
:1016100060D5E8690027C00008D4E86940F0805030
:10162000E861E869012700F08050009055480168A2
:10163000C90513D40168834641F480710160FFF746
:10164000F1F9824606E000BFFFF7ECF9A0EB0A00D3
:1016500064284ED8DBF80000C005F5D5E068012805
:101660000AD008B1052813D0286A20F001002862AA
:10167000286A20F0040002E0286A40F00100286295
:10168000E06841F2883B98B1FFF7CCF982460BE065
:10169000286A40F004002862EEE700BFFFF7C2F9B5
:1016A000A0EB0A0159455AD8286A8007F6D50CE004
:1016B000FFF7B8F9824605E0FFF7B4F9A0EB0A019D
:1016C00059454CD8286A8007F6D41FB1E86920F044
:1016D0008050E861E06988B36968C1F3810102293B
:1016E00045D00228C6F8608004D0FFF79BF9044675
:1016F00038E034E0FFF796F9074604E0FFF792F987
:10170000C01B02282BD828688001F7D4206AB0F5C6
:10171000803F05D16868A16820F400300843686004
:10172000D4E908010843696821F47411084368602A
:10173000C6F86090FFF776F9044606E015E000BFB2
:10174000FFF770F9001B022809D828688001F7D537
:101750000BE000BFFFF766F9001B022802D9032047
:10176000BDE8F88F28688001F4D40020F8E7012054
:10177000F6E70000001002400000424280044242AE
:1017800024000020007000404FF0E0210428086988
:1017900003D020F004000861704740F00400FAE72D
:1017A000704710B5401EB0F1807F01D3012010BDFD
:1017B0004FF0E02460610F21601700F0EBFE002085
:1017C000A06107202061002010BD10B5FFF7E8FFE1
:1017D00010BDFEE70148FFF72DB900002C000020E6
:1017E00010B5406A01680A6822F480620A6000212C
:1017F0004185426B5163826B516390F83D302022EA
:10180000602B80F83D2080F83E1007D001680A6800
:1018100022F001020A60FFF705FA10BD01640168B9
:101820000A6822F001020A60FFF702F910BD000009
:1018300070B590F83D10044600252026006829293F
:101840002DD02A292BD094F83D10602904D041686E
:10185000090501D484F83D60256384F83E50016891
:1018600021F40061016020684168090537D54168AD
:1018700021F400614160606B344990F82120012A15
:1018800012D04163606BFEF7C7FC38B32068016873
:1018900021F00101016084F83D60606B1CE025636C
:1018A000282184F83D10DAE7A06B4163A06BFEF7B6
:1018B000B3FC98B120684169C943490604D4016961
:1018C000606A421C626201702068016821F00101B7
:1018D000016084F83D60A06B416B88470FE094F88D
:1018E0003D1060291DD04169C943490604D40169EE
:1018F000606A421C626201702046FFF793F994F817
:101900003D0028280CD1206C400709D51048E06222
:10191000256384F83D6084F83E502046FFF706FAC0
:1019200070BD84F83D6025644169C943490604D40B
:101930000169606A421C626201702068016821F0DE
:10194000010101602046FFF773F8D8E7E1170008AE
:101950000000FFFF01684A69D24352050CD46FF4BE
:1019600080624A6104210164002140F8301F202276
:1019700042730173012070470020704710B5C26A9E
:10198000448D2F4B0168032C03D0448D022C15D0BD
:101990000AE0042A03D0082A01D09A4203D10A6837
:1019A00022F480620A6001680A69416A4B1C436242
:1019B0000A70418D491E4185002010BD042A12D0B5
:1019C000082A10D09A420ED0022A0A6802D022F4C5
:1019D000806201E042F480620A6001684A6822F491
:1019E00040724A6008E04A6822F440724A60016826
:1019F0000A6842F400720A6001680A69416A4B1C75
:101A000043620A70418D491E418501680A69416A35
:101A10004B1C43620A70418D491E4185202180F88C
:101A20003D100021016390F83E2080F83E10402ACE
:101A300002D0FFF77CF9BFE7FFF720FBBCE700000F
:101A40000000FFFF10B590F83D1022294CD1418DC8
:101A5000032909D901680A69416A4B1C43620A706B
:101A6000418D491E41853FE0022909D0032907D055
:101A7000C16A022901680A6818D022F4806217E05E
:101A8000C16A022901680A6807D022F480620A60EC
:101A900001680A6842F4006201E042F480620A6070
:101AA0000068416821F4806141601DE042F4806279
:101AB0000A6001684A6822F4E0624A6001680A69C3
:101AC000416A4B1C43620A70418D491E41852021A9
:101AD00080F83D100021016390F83E2080F83E1010
:101AE000402A03D0FFF723F9002010BDFFF7C6FA04
:101AF000FAE72DE9F84F0446C06A1E4692460D46A5
:101B000021680A6842F480620A60042807D001282C
:101B100005D010F5803F02D0206B112804D1206839
:101B2000016841F4807101604FF0011853460022B2
:101B300041462046009600F0A8FAB8BB206908F19B
:101B40000109B0F5804F12D00620216800EAD517B0
:101B500047F0F00008613346524608F1070120467D
:101B600000F0C4FA38B1206C04282FD01EE0E8B28F
:101B700040F001001FE02168E8B208613346524698
:101B80004946204600F0B2FA0028ECD120684169AD
:101B900081690091016841F480710160534600221F
:101BA00041462046009600F070FA10B10320BDE8CF
:101BB000F88F47F0F10021680861334652464946E4
:101BC000204600F093FA0028CDD1F0E70120EEE79F
:101BD000F8B50446C06A1E460D461746042807D0CD
:101BE000012805D010F5803F02D0206B122804D1C7
:101BF0002068016841F480710160134600224FF0B3
:101C000001112046009600F040FAA0B92069B0F515
:101C1000804F12D00620216800EAD51040F0F00075
:101C2000086133463A460E49204600F05FFA38B163
:101C3000206C042811D00320F8BD05F0FE0000E060
:101C4000E8B221680861064933463A46891F2046B2
:101C500000F04CFA0028EBD1F8BD0120F8BD0000DF
:101C60000800010010B5C26A90F83D10212921D169
:101C7000418D49B1416A4A1C42620268097811618A
:101C8000418D491E418515E020230021042A13D0EF
:101C9000082A11D012F5803F0ED00268546824F44F
:101CA000E06454601122026380F83E1080F83D30F9
:101CB000FFF73EF8002010BD0268546824F4E06489
:101CC00054600268146844F400741460016380F87E
:101CD0003D3090F83E2080F83E10402AE8D1FFF7D2
:101CE000CEF9E7E710B590F83D1090F83E30C26AA3
:101CF000048D24B1212934D0402B30D074E0212927
:101D0000FAD120230021042A13D0082A11D012F579
:101D1000803F0ED00268546824F4E06454601122BD
:101D2000026380F83E1080F83D3000BFFFF700F8F6
:101D30005AE00268546824F4E0645460026814684D
:101D400044F400741460016380F83D3090F83E2044
:101D500080F83E10402AE9D1FFF791F944E02229AA
:101D600042D1418D21B190F83E10402906D032E099
:101D70000068416821F48061416035E0016D31B156
:101D8000016D012911D0016D022915D02CE0C16C23
:101D90000129816C02D0C1F3072108E00268C9B2B1
:101DA0001161016D891C01651EE0816CC9B2026878
:101DB0001161016D491CF6E790F83D10222904D00D
:101DC00090F83D10212906D00EE00068016841F42A
:101DD0008071016008E0416A4A1C42620268097829
:101DE0001161418D491E4185002010BD78B590F8E4
:101DF0003E50C26A046B90F83D6000230168222EB9
:101E000006D1066D0EB9402D02D0056D25B107E053
:101E10004869886900901CE00569B5F5404F1AD003
:101E2000458D85B3458D012D20D0428D022A4AD0A3
:101E30000A6842F480620A6001684A68120503D5A4
:101E40004A6842F480524A6001684A69896900918F
:101E50000365002078BD4A698A6900920A6842F4E5
:101E600080720A60016D491C0165F2E712F5803F3E
:101E70000AD0042A21D0082A1FD0122C1DD0C26AF1
:101E8000022A09D114E00BE00A6822F480620A6099
:101E900001684A68120503D50A6822F480620AE0E4
:101EA0004A698A6900920A6842F400720A60CFE7C0
:101EB0000A6842F480620A60C6E70A6822F4806217
:101EC0000A600168ECE7C26A022A0A680BD042F491
:101ED00000620A6001684A698A6900920A6822F40D
:101EE00080620A6006E042F480620A6001684A6922
:101EF0008969009101684A681205A9D54A6842F4C7
:101F000080524A60A4E790F83E10402909D0016948
:101F1000B1F5804F10D0016D99B1016D012915D037
:101F20001CE0016D19B9416C01F0FE0114E0416C37
:101F3000C9B241F001010FE090F83D102129F6D11E
:101F4000F1E7416CF02201F4407103E0416CF122B1
:101F500001F4407142EAD11100680161002070472C
:101F600038B590F83D2001684B6823F4E0634B607E
:101F7000036800215C6900941C6844F001041C6043
:101F800003681C6824F480641C6003685C68240592
:101F90000BD590F83D40222C2BD090F83D402A2CB8
:101FA00027D0446B246864684485448DE4B15C693F
:101FB000E443640707D41C69436A5D1C45621C70D6
:101FC000438D5B1E438503685C69E443640607D464
:101FD0001C69436A5D1C45621C70438D5B1E438512
:101FE000036C43F004030364036C23B1FFF720FC8C
:101FF0001FE0846BD6E72023282A09D02A2A07D09D
:10200000292A05D0046B222C0CD0222A0AD010E0F9
:10201000094AC262016380F83D3080F83E10FEF745
:1020200085FE06E0016380F83D3080F83E10FFF742
:1020300083F8002038BD00000000FFFF70B5164691
:102040000D4604461AE02046FFF784FC08B1012043
:1020500070BD681C12D025B1FEF7E4FC801BA842BD
:102060000CD954F8400F40F0200044F8100900202B
:102070002060202161732073032070BD20684069B7
:10208000C0434007DFD4002070BD2DE9F0471E4655
:1020900090460D460446C1F30747DDF8209012E054
:1020A000701C10D02EB1FEF7BDFCA0EB0900B042B1
:1020B00009D9002044F8300F20216173A0732073E8
:1020C0000320BDE8F0872068012F0AD0806925EA47
:1020D00000000004000C06D000214145E0D00020A3
:1020E000EFE74069F3E70121F7E700002DE9F0474A
:1020F0009A4691460D46044600264FF02008C1F34B
:1021000007472AE020684069C043400512D4206890
:10211000016841F40071016021686FF480604861DA
:1021200004202064266384F83D8084F83C6001200C
:10213000BDE8F087B9F1FF3F0FD0B9F1000F05D02E
:10214000FEF770FCA0EB0A01494506D944F8306F50
:1021500084F80D8026730320EAE72068012F07D05A
:10216000D0F8180025EA00000004000CE0D0C9E710
:102170004069F7E72DE9F041002590460E460446F8
:10218000202721E04069C043C0060CD421686FF0CD
:10219000100048612564256384F83D7084F83C5044
:1021A0000120BDE8F0812EB1FEF73CFCA0EB080059
:1021B000B04209D954F8400F40F0200044F8040917
:1021C000677025700320ECE720684169C943490620
:1021D000D8D40020E5E770B516460D4604461AE04F
:1021E0002046FFF7B7FB08B1012070BD681C12D074
:1021F00025B1FEF717FC801BA8420CD954F8400FFC
:1022000040F0200044F81009002020602021617374
:102210002073032070BD20684069C0430006DFD4EE
:10222000002070BD70B505460021012000F07EF849
:102230000949002405EB85004518281910F8A01C51
:10224000012000F073F8641C052CF6D3BDE8704043
:102250000021012000F06AB8EC2E000870B50024BF
:102260004FF4FC750021012000F060F8641CAC42C2
:10227000F8D3BDE870400021084600F056BC0000CD
:102280002DE9F04190460C46054600F06FF801221A
:10229000204F960231463846FEF7BEFB0122D1029E
:1022A0003846FEF7B9FB012211033846FEF7B4FBAE
:1022B000012291033846FEF7AFFB01225103384655
:1022C000FEF7AAFB002231463846FEF7A5FB0122A5
:1022D00031463846FEF7A0FB2121002000F026F809
:1022E0008035E9B2002000F021F8241DE1B2002081
:1022F00000F01CF808F11000C1B2002000F016F840
:102300002021002000F012F8BDE8F0410C2100204F
:1023100000F00CB8000C014010B5044602E0641C4B
:10232000FFF780FF20780028F9D110BD70B50D4669
:102330000D4C4FF4805108B1012200E000222046EC
:10234000FEF76AFB4FF40066002231462046FEF796
:1023500063FB284600F09AFD31462046BDE87040F8
:102360000122FEF759BB0000000C01402DE9F04F9F
:10237000454885B0816941F0080181618069DFF8D5
:102380000CB100F008004FF4806404900022214654
:102390005846FEF741FB6700002239465846FEF7D3
:1023A0003BFB4FF48058002241465846FEF734FB71
:1023B0004FF40059002249465846FEF72DFB4FF4D2
:1023C000804A002251465846FEF726FB002204218F
:1023D0002F48FEF721FB6601002231465846FEF7E2
:1023E0001BFB002202215846FEF716FB0094032433
:1023F00001256946584601950394FEF72FFACDE969
:102400000075694658460394FEF728FACDE9008521
:10241000694658460394FEF721FACDE900956946CE
:1024200058460394FEF71AFACDE900A569465846C6
:102430000394FEF713FA0420CDE9000569460394DE
:102440001348FEF70BFACDE9006569465846039438
:10245000FEF704FA0220CDE90005694603945846C8
:10246000FEF7FCF9012204210948FEF7D5FA002203
:1024700002215846FEF7D0FA012231465846FEF7AF
:10248000CBFA05B0BDE8F08F00100240000C01400F
:10249000000801402DE9F0412B4886B0816941F0E8
:1024A00020018161816901F020010491816941F07D
:1024B00004018161816901F004010491816941F0A5
:1024C000080181618069214F00F00800049000221A
:1024D00004213846FEF7A0FADFF874804FF607466D
:1024E000002231464046FEF797FA04200124CDE948
:1024F00000040225694603953846FEF7AFF9F0203F
:102500000090144801900020029069463846FEF77A
:10251000A5F9CDE90064694640460395FEF79EF9AA
:10252000002211460A20FEF785FE0A20FEF776FEFD
:10253000002211461720FEF77DFE1720FEF76EFEE3
:1025400006B0BDE8F0810000001002400008014024
:10255000000C0140000021100B4810B50949016032
:102560000A49416000214FF480428160C0E90312B2
:1025700041618161C1610162FEF756FB002800D014
:10258000FEE710BD005400402C000020A086010092
:10259000FEE770470907090E002806DA00F00F0071
:1025A00000F1E02080F8141D704700F1E02080F871
:1025B000001470477047704710B5FEF7BFFDBDE8C7
:1025C0001040FFF702B910B590B002200090012032
:1025D000049010200024059007946846FEF752FFEF
:1025E00000B1FEE70F20CDE90A040C940D94002100
:1025F0000AA80E94FEF750FE00B1FEE7FEF7F6FEC5
:102600004FF47A71B0FBF1F0FFF7CBF80420FFF73D
:10261000BBF800221146501EFEF70CFE10B010BD94
:102620000D48016841F00101016041680B4A114009
:10263000416001680A4A11400160016821F480216B
:102640000160416821F4FE0141604FF41F01816087
:102650000449C00308607047001002400000FFF802
:10266000FFFFF6FE08ED00E0FEE7FEE70FB4084BC3
:1026700010B504A902AA039800F01CF8044602A9A8
:10268000002000F044FA204610BC5DF814FB000066
:102690000F2B000802E008C8121F08C1002AFAD157
:1026A00070477047002001E001C1121F002AFBD1D2
:1026B000704700002DE9FF4F8DB00F4605460026FC
:1026C00006E025280BD0DDE90F1290476D1C761C23
:1026D00028780028F5D111B03046BDE8F08F0024ED
:1026E000A246A1460122EA4900E0044315F8013F51
:1026F000203B02FA03F00842F7D128782A2810D0AC
:102700006FF02F022878A0F13001092914D80AEBC4
:102710008A0102EB410144F0020400EB010A6D1C46
:10272000F0E701CF5FEA000A03D544F40054CAF190
:10273000000A44F002046D1C28782E2817D115F8E1
:10274000010F44F004042A280ED06FF02F022878DD
:10275000A0F1300109290AD809EB890102EB4101F6
:1027600000EB01096D1CF2E757F8049B6D1C2878FB
:102770006C280FD006DC4C2817D068280DD06A28AA
:1027800014D104E0742810D07A280FD10DE044F45D
:1027900000140AE044F4801401E044F44014697821
:1027A000814202D104F580146D1C6D1C2A786E2ABA
:1027B0001FD00CDC632A31D004DC002A8BD0582ACD
:1027C00011D19FE0642A68D0692A0CD165E0732A90
:1027D0002ED004DC6F2A73D0702A04D197E0752ABA
:1027E0006FD0782A6ED01046DDE90F129047761C24
:1027F0004CE1C4F30250022806D0032809D0042873
:1028000001CF09D0066041E101CFF117C0E90061B5
:102810003CE101CF068039E1067037E117F8040B7F
:102820008DF8000000208DF80100EB46012003E048
:1028300057F804BB4FF0FF3061074FF0000102D49E
:102840000DE008F10101884649450FDA8045F8DBC3
:102850001BF808100029F4D108E008F101018846AE
:102860008142FADB1BF808100029F6D1DDE90F23BD
:10287000AAEB08008146214600F032F9304400EB13
:10288000080604E0DDE90F121BF8010B9047B8F1D0
:102890000108F7D221464846F3E00A21C4F3025367
:1028A0004FF0000B0891022B04D001CFC117032B6E
:1028B00009D00AE0FF1D27F00707F7E8020108E04A
:1028C0002EE01DE01EE000B2C117042B01D140B282
:1028D000C117002907DA4FF0000CD0EB0C006CEBAD
:1028E00001012D2302E0230504D52B238DF824308C
:1028F000012303E0E30701D02023F7E7984656E0E1
:102900000A210EE010204FF0000B08900CE010217F
:102910004FF0000B44F004044FF00809089103E065
:1029200008214FF0000B0891C4F30253022B04D08E
:1029300001CF0021032B06D006E0FF1D27F007077B
:10294000F7E8020103E080B2042B00D1C0B24FF0DF
:10295000000823072BD5702A07D0DDF820C08CF0A3
:10296000100C5CEA0B0C05D00EE040238DF82430EF
:10297000012308E050EA010306D030238DF824300B
:102980008DF8252002239846DDF820C08CF0080C35
:102990005CEA0B0C0BD150EA010301D1630706D5A9
:1029A00030238DF824304FF00108A9F10109582A8D
:1029B00004D038A20B9208AA0A920BE03AA2F9E7D7
:1029C0005B46089AFDF7BEFB0B9B9B5C0A9A521E66
:1029D0000A92137050EA0102F2D10A98ADEB00009E
:1029E00000F1200B600702D524F4803401E04FF0A1
:1029F0000109D94502DDA9EB0B0000E0002000EB46
:102A00000B0141440890AAEB010AE00306D4DDE97A
:102A10000F232146504600F063F806444FF00009AA
:102A200008E009A911F80900DDE90F12904709F142
:102A30000109761CC145F4DBE0030CD5DDE90F2369
:102A40002146504600F04CF8064404E0DDE90F1240
:102A500030209047761C0899481E08900029F5DC24
:102A600008E00A980A990078491C0A91DDE90F12DA
:102A70009047761CBBF10001ABF1010BF1DC214664
:102A80005046DDE90F2300F019F806446D1C1FE6DF
:102A90000928010030313233343536373839616234
:102AA00063646566000000003031323334353637F8
:102AB0003839414243444546000000002DE9F041C9
:102AC000044600251E461746880404D405E039460E
:102AD0002020B0476D1C641EF9D52846BDE8F08162
:102AE0002DE9F041044600251E469046C80301D555
:102AF000302700E02027880404D505E04146384609
:102B0000B0476D1C641EF9D52846BDE8F0810A68FF
:102B1000531C0B6010707047010900F00F0001EBAF
:102B2000810100EB4100C0B2704710B50C46C0B245
:102B300040F080010020FFF7F9FBE0B240F04001D7
:102B4000BDE810400020FFF7F1BB000008B5FEF71C
:102B5000FDFAFFF738FDFFF79DFC8C48416941F015
:102B6000010141614069002200F00100009011461E
:102B70001120FEF75FFB1120FEF750FBFFF7ECFC86
:102B8000022200213020FFF77BFB0A20FDF76CFCBE
:102B90007F4E0122D1033046FDF73EFFFFF75EFB7B
:102BA0007C4C00254FF4C8776570A570E5702571E1
:102BB000A57365732573E57325746574A574E56164
:102BC00000210846FFF7B1FF724AD21D511E481E70
:102BD00000F02EF96F4B0B335A1E511E481E00F0A9
:102BE000F1F800210846FFF7A0FF6279092A01D811
:102BF00069A100E069A16A48FFF738FD6848FFF75E
:102C00008BFB68A0FFF788FBA279092A01D862A193
:102C100000E062A16248FFF729FD6148FFF77CFBF5
:102C200060A0FFF779FBE279092A01D85AA100E0F8
:102C30005AA15B48FFF71AFD5948FFF76DFB0121C8
:102C40000020FFF772FF627A092A01D852A100E042
:102C500052A15348FFF70AFD5148FFF75DFB52A010
:102C6000FFF75AFBA27A092A01D84BA100E04BA139
:102C70004B48FFF7FBFC4A48FFF74EFB4AA0FFF723
:102C80004BFBE27A49A14648FFF7F0FC4448FFF7C6
:102C900043FB3846FDF7E8FBE069012807D0A57340
:102CA00065732573E57325746574A5746CE02078ED
:102CB000384A401C15322070511E481E00F0B8F8EA
:102CC000344B19335A1E511E481E00F07BF8E07C2D
:102CD0002073207D6073607DA07305210020FFF7C5
:102CE00024FF6279092A01D82BA100E02BA12C48EE
:102CF000FFF7BCFC2A48FFF70FFB2AA0FFF70CFBED
:102D0000A279092A01D824A100E024A12448FFF7D0
:102D1000ADFC2348FFF700FB22A0FFF7FDFAE279A4
:102D2000092A01D81CA100E01CA11D48FFF79EFC48
:102D30001B48FFF7F1FA012211463046FDF76CFE01
:102D4000012202213046FDF767FE012204213046B0
:102D5000FDF762FE207832287FF632AF0521002091
:102D6000FFF7E3FE13A0FFF7D7FA00220121304658
:102D7000FDF752FE002202213046FDF74DFE0022F3
:102D800004213046FDF748FEE56119E700100240D6
:102D9000000C014000000020302564002564000084
:102DA000800000203A0000002F000000323025642F
:102DB000000000005455524E204F46462050554DBD
:102DC000500000002DE9F8430D4617490646032040
:102DD00008701446984664270A460123D0211348F8
:102DE0000097FEF7AFF8104A04234032D1210F4874
:102DF0000097FDF79FFF0C4B40331878FFF78CFED0
:102E000030705878FFF788FE28709878FFF784FEB6
:102E10002070D878FFF780FE88F80000BDE8F843FE
:102E20006420FDF721BB0000040100202C000020DD
:102E3000F8B50D461349064600200870144664276D
:102E40000A460123D02110480097FEF77BF80D4A6F
:102E500003234032D1210C480097FDF76BFF094B4B
:102E600040331878FFF758FE20705878FFF754FE6B
:102E700028709878FFF750FE3070BDE8F840642065
:102E8000FDF7F2BA040100202C0000202DE9F047E4
:102E9000154E05464FF48048002241463046FDF766
:102EA000BBFD0122570339463046FDF7B5FDB94653
:102EB00008244746280601D5012200E000224946A1
:102EC0003046FDF7A9FD012239463046FDF7A4FD45
:102ED000002239463046FDF79FFD6806050E641E48
:102EE000E8D1BDE8F0870000000C014000000000C0
:102EF0000000005F00000007000700147F147F142B
:102F0000242A7F2A1223130864623649552250006E
:102F100005030000001C2241000041221C0014088F
:102F20003E081408083E0808005030000008080851
:102F30000808006060000020100804023E51494566
:102F40003E00427F400042615149462141454B319C
:102F50001814127F1027454545393C4A494930012C
:102F6000710905033649494936064949291E003683
:102F700036000000563600000814224100141414D4
:102F80001414004122140802015109063249794102
:102F90003E7E1111117E7F494949363E4141412211
:102FA0007F4141221C7F494949417F090909013E6E
:102FB0004149497A7F0808087F00417F410020404D
:102FC000413F017F081422417F404040407F020C76
:102FD000027F7F0408107F3E4141413E7F0909097D
:102FE000063E4151215E7F0919294646494949312A
:102FF00001017F01013F4040403F1F2040201F3F13
:103000004038403F63140814630708700807615193
:10301000494543007F41410002040810200041411E
:103020007F000402010204404040404000010204CD
:103030000020545454787F48444438384444442051
:10304000384444487F3854545418087E0901020C0F
:103050005252523E7F0804047800447D40002040D4
:10306000443D007F1028440000417F40007C04184C
:1030700004787C0804047838444444387C141414DC
:1030800008081414187C7C0804040848545454207C
:10309000043F4440203C4040207C1C2040201C3CFD
:1030A0004030403C44281028440C5050503C44646C
:1030B000544C44000836410000007F0000004136B7
:1030C0000800100808100878464146780000000003
:1030D00000000000010203040607080900000000C8
:1030E0000102030404310008000000202C0000004D
:1030F00094260008303100082C0000205C050000F8
:10310000A4260008000000000000000000000000ED
:1031100000000000000000000000000000000000AF
:10312000000000000000000000A24A0400000000AF
:04000005080000ED02
:00000001FF
