:020000040800F2
:100000009804002001010008EF100008A90F000863
:10001000ED10000875010008EB1300080000000057
:1000200000000000000000000000000013110008A4
:1000300077010008000000001111000815110008E8
:100040001B0100081B0100081B0100081B01000820
:100050001B0100081B0100081B0100081B01000810
:100060001B0100081B0100081B0100081B01000800
:100070001B0100081B0100081B0100081B010008F0
:100080001B0100081B0100081B0100081B010008E0
:100090001B0100081B0100081B0100081B010008D0
:1000A0001B0100081B0100081B0100081B010008C0
:1000B0001B0100081B0100081B0100081B010008B0
:1000C0001B0100081B0100081B0100081B010008A0
:1000D0001B0100081B0100081B0100081B01000890
:1000E0001B0100081B0100081B010008DFF80CD0F1
:1000F00000F02EF800480047FD1700089804002083
:100100000648804706480047FEE7FEE7FEE7FEE7B1
:10011000FEE7FEE7FEE7FEE7FEE7FEE779110008EF
:10012000ED00000830B50B460146002020220124D6
:1001300009E021FA02F59D4205D303FA02F5491BB5
:1001400004FA02F52844151EA2F10102F1DC30BDCB
:10015000064C074D06E0E06840F0010394E8070014
:1001600098471034AC42F6D3FFF7C4FFC01800081C
:10017000E0180008FEE7704731B500F0F1F80446DA
:1001800000F0EEF80099001B8842F9D338BD00005A
:100190002DE9F84FDFF890A100220AF1040B144674
:1001A00001274FF00F090BF1040E00BF0B6807FA8F
:1001B00004F52B40AB4274D1DFF870C14E68A6EB5A
:1001C0000C0866452BD00DDC032E34D005DC36B38D
:1001D000012E19D0022E2FD11BE0112E16D0122E77
:1001E0002AD119E0B8F5881F19D006DCB8F5803F90
:1001F00015D0B8F5801F1FD111E0B8F5001F0ED043
:10020000B8F5041F18D10AE0CA6815E0CA68121DC3
:1002100012E0CA6808320FE0CA680C320CE08A6843
:100220002AB1012A4FF0080203D0456104E00422FC
:1002300002E0056100E00022FF2B01D8064601E044
:1002400000F104064FEA840501D9A5F12005D6F88E
:1002500000C009FA05F82CEA080C02FA05F54CEA88
:10026000050CC6F800C04D68ED0057D5304DAE699D
:1002700046F00106AE61AD6924F0030605F0010504
:1002800000952C4D06EB050CDCF80850A6074FEA4C
:10029000167809FA08F6B543274EB04202D1002677
:1002A00010E03BE0254EB04201D101260AE0244E89
:1002B000B04201D1022605E0224EB04201D1032610
:1002C00000E0042606FA08F62E43CCF808604D68D4
:1002D000DAF80060ED03554601D51E4300E09E4369
:1002E0002E604D68DBF80060AD035D4601D51E430E
:1002F00000E09E432E604D68DEF80060ED0275461A
:1003000001D51E4300E09E432E604D68AD020E4DA8
:100310002E6801D51E4300E09E432E60641C102C05
:10032000FFF444AFBDE8F88F000401400000111055
:10033000001002400000014000080140000C014094
:1003400000100140001401400C040140C2684A4002
:10035000C26070470AB1016170470904FBE7000001
:10036000014800687047000008000020024801684A
:10037000491C01607047000008000020074810B5C4
:10038000016841F010010160032000F07BF80020BB
:1003900000F006F800F016F8002010BD0020024022
:1003A00010B5044600F044F94FF47A71B0FBF1F057
:1003B00000F054FC00222146501E00F043F80020BB
:1003C00010BD00001D4808B5816941F0010181613F
:1003D000806900F001000090032000F053F8002233
:1003E00011466FF00B0000F02DF8002211466FF05F
:1003F0000A0000F027F8002211466FF0090000F013
:1004000021F800221146501F00F01CF8002211466E
:10041000101F00F017F800221146901E00F012F88D
:1004200000221146501E00F00DF80548416821F0E9
:10043000E06141F00071416008BD00000010024021
:1004400000000140F0B40E4B1B680C46C3F30223BE
:10045000C3F10705042D00D90425191D072901D270
:10046000002300E0DB1E012606FA05F1491E2140AB
:1004700099409E40761E16403143F0BC00F038BED5
:100480000CED00E0064900F0070208684FF6FF0394
:10049000184040EA0220034A1043086070470000F9
:1004A0000CED00E00000FA052DE9F047DFF870815F
:1004B00005460E46D8F8000000F00700B0420CD206
:1004C000D8F8001021F007013143C8F80010D8F81F
:1004D000000000F00700B04277D12878514C800727
:1004E00005D56068A96820F0F000084360602878AE
:1004F000C00759D06968012001290DD0022929D0EF
:100500005FF0020393FAA3F2B2FA82F242F0200201
:10051000520904D0226803E04FF40033F2E7626A24
:1005200093FAA3F3B3FA83F303F01F039840024254
:100530004BD0606820F0030008436060FFF710FFB5
:100540006968074641F2883001290DD002298146A9
:1005500017D025E04FF00073D4E700BFFFF700FF8E
:10056000C11B494501D918E081466068C0F381008C
:100570000128F3D118E000BFFFF7F2FEC11B494587
:100580000BD86068C0F381000228F5D10CE000BFF1
:10059000FFF7E6FEC11B494502D90320BDE8F087FD
:1005A000606810F00C0FF3D1D8F80010404601F04D
:1005B0000701B1420BD9016821F007013143016005
:1005C000006800F00700B04201D00120E6E728787B
:1005D000400705D56068E96820F4E0600843606082
:1005E0002878000706D56068296920F4605040EA41
:1005F000C100606000F022F86168F02292FAA2F275
:1006000001F0F001B2FA82F2D140074A515CC840D1
:10061000064908600020FFF7C3FE0020BEE7000087
:100620000020024000100240B01800080400002022
:1006300001480068704700000400002010B519A3AD
:1006400085B00FCB8DE80F001AA01B4B00680490FB
:100650005A681A4802F00C0104291DD008291BD140
:100660004FF4701494FAA4F402F47011B4FA84F400
:10067000E140D2031DF8011010D55A684FF4003341
:1006800093FAA3F302F40032B3FA83F3DA4004AB33
:100690009A5CB0FBF2F0484305B010BD08484843EF
:1006A000FAE7000002030405060708090A0B0C0D0F
:1006B0000E0F1010010200000010024000127A001C
:1006C00000093D002DE9F84F04460078F74DC007BA
:1006D0004FF0010625D068687704C0F38100012837
:1006E00007D06868C0F3810002281BD16868C00386
:1006F00018D597FAA7F0B0FA80F040F02000400932
:1007000001D0286800E0686A97FAA7F1B1FA81F190
:1007100001F01F0106FA01F108425ED0606800286E
:100720007CD05AE06068B0F5803F0BD010B1B0F5D6
:10073000A02F11D0286820F480302860286820F489
:10074000802002E0286840F480302860606828B388
:10075000FFF706FE80460BE0286840F48020286002
:10076000F0E700BFFFF7FCFDA0EB0800642871D89C
:1007700097FAA7F0B0FA80F040F02000400901D0CD
:10078000286800E0686A97FAA7F1B1FA81F101F0F0
:100790001F0106FA01F10842E4D01EE0FFF7E0FD78
:1007A000804605E0FFF7DCFDA0EB08006428DED8FA
:1007B00097FAA7F0B0FA80F040F02000400901D08D
:1007C000286800E0686A97FAA7F1B1FA81F101F0B0
:1007D0001F0106FA01F10842E4D12078DFF8D08247
:1007E00080074FF000094FF002075BD568684FF0B3
:1007F000F80B10F00C0F07D06868C0F381000228D6
:100800001CD16868C00319D497FAA7F0B0FA80F039
:1008100040F02000400902D0286801E08BE0686ABF
:1008200097FAA7F1B1FA81F101F01F0106FA01F17F
:1008300008422CD0206901287DD128E0206990B39E
:1008400096FAA6F0B0FA80F048F82060FFF788FD2D
:10085000824607E011E100BFFFF782FDA0EB0A002E
:10086000022884D897FAA7F0B0FA80F040F0200070
:10087000400901D0286800E0686A97FAA7F1B1FA48
:1008800081F101F01F0106FA01F10842E4D0286865
:100890009BFAABF26169B2FA82F220F0F800914063
:1008A0000843286025E0FFE796FAA6F1B1FA81F146
:1008B00048F82190FFF754FD824605E0FFF750FD10
:1008C000A0EB0A000228CCD897FAA7F0B0FA80F083
:1008D00040F02000400901D0286800E0686A97FADB
:1008E000A7F1B1FA81F101F01F0106FA01F1084206
:1008F000E4D1207800076ED5A069B8B396FAA6F0C7
:10090000B0FA80F008EB8000C0F88064FFF728FDA3
:10091000824605E0FFF724FDA0EB0A000228A0D8DC
:1009200097FAA7F0B0FA80F040F06000B6EB501FE5
:1009300002D128680CE062E197FAA7F0B0FA80F0E3
:1009400040F06000B7EB501F01D1286A00E0686AF0
:1009500097FAA7F1B1FA81F101F01F0106FA01F24D
:100960001042D7D00120FFF707FC34E0FFE796FAEA
:10097000A6F1B1FA81F108EB8101C1F88094FFF78B
:10098000EFFC824606E000BFFFF7EAFCA0EB0A009E
:10099000022872D897FAA7F0B0FA80F040F0600011
:1009A000B6EB501F01D128680BE097FAA7F0B0FA18
:1009B00080F040F06000B7EB501F01D1286A00E0E2
:1009C000686A97FAA7F1B1FA81F101F01F0106FAFE
:1009D00001F21042D8D12078400765D5E86940F08F
:1009E0008050E861E869DFF8CCB000F080500090FA
:1009F000DBF8001041F48071CBF80010FFF7B0FC79
:100A0000824605E0FFF7ACFCA0EB0A00642834D86E
:100A1000DBF80000C005F5D5E06801280AD008B170
:100A2000052813D0286A20F001002862286A20F0E7
:100A3000040002E0286A40F001002862E06841F208
:100A4000883B90B3FFF78CFC82460BE0286A40F0AD
:100A500004002862EEE700BFFFF782FCA0EB0A016A
:100A600059450AD897FAA7F0B0FA80F040F0400054
:100A7000B6EB501F02D128680CE0A3E097FAA7F06C
:100A8000B0FA80F040F04000B7EB501F01D1286A67
:100A900000E0686A97FAA7F1B1FA81F101F01F024C
:100AA00006FA02F10842D7D031E005E0001002401A
:100AB0000000424200700040FFF752FC824605E011
:100AC000FFF74EFCA0EB0A0159457BD897FAA7F037
:100AD000B0FA80F040F04000B6EB501F01D128681A
:100AE0000BE097FAA7F0B0FA80F040F04000B7EBC7
:100AF000501F01D1286A00E0686A97FAA7F1B1FA9D
:100B000081F101F01F0206FA02F10842D8D1E06932
:100B100080B36968C1F38101022970D04FF0807100
:100B20004F000228484609D091FAA1F1B1FA81F1AB
:100B300048F82100FFF714FC044669E08A4691FA60
:100B4000A1F1B1FA81F1C14648F82100FFF708FC94
:100B5000804605E0FFF704FCA0EB0800022854D80B
:100B600097FAA7F0B0FA80F040F02000400902D0D8
:100B7000286801E061E0686A97FAA7F1B1FA81F1AB
:100B800001F01F0106FA01F10842E3D1206AB0F535
:100B9000803F05D16868A16820F400300843686090
:100BA000D4E908010843696821F4741108436860B6
:100BB0009AFAAAF0B0FA80F049F82060FFF7D0FB6B
:100BC000044606E021E000BFFFF7CAFB001B022835
:100BD0001BD897FAA7F0B0FA80F040F02000400947
:100BE00001D0286800E0686A97FAA7F1B1FA81F1AC
:100BF00001F01F0106FA01F10842E5D01DE01EE0F8
:100C0000FFF7AEFB001B022802D90320BDE8F88FD6
:100C100097FAA7F0B0FA80F040F02000400901D028
:100C2000286800E0686A97FAA7F1B1FA81F101F04B
:100C30001F0106FA01F10842E2D10020E6E7012097
:100C4000E4E74FF0E0210428086903D020F0040015
:100C50000861704740F00400FAE7704710B5401E85
:100C6000B0F1807F01D3012010BD4FF0E02460611E
:100C70000F21601700F03CFA0020A06107202061DE
:100C8000002010BD10B5FFF7E8FF10BD30B590F89B
:100C90003820012A20D0012280F83820022380F851
:100CA000393003685C6824F070045C6003685C6839
:100CB0000D682C435C6003689C6824F080049C6091
:100CC00003689C6849680C439C6080F839200021C7
:100CD00080F83810084630BD022030BD10B5040041
:100CE00003D094F8390010B107E0012010BD0020B6
:100CF00084F83800204600F00DF8022084F839000E
:100D0000211D206800F05CFA012084F839000020E1
:100D100010BD000008B50C4A01680C48914207D18B
:100D2000816941F400618161806900F4006009E03B
:100D3000074A914207D1C16941F00201C161C0690E
:100D400000F00200009008BD002C0140001002409D
:100D50000004004070B5044690F83800012817D010
:100D6000012584F83850022084F839002068826810
:100D700022F0770222F47F4282600868502837D040
:100D80000DDC202859D005DC88B3102841D151E072
:100D9000022070BD302853D040283AD13FE060286F
:100DA0002ED070280BD0B0F5805F03D0B0F5005F77
:100DB0002FD110E02068816821F0070115E0CB6891
:100DC000D1E90121206800F038FA2168886840F0F4
:100DD000770088601DE0CB68D1E90121206800F030
:100DE0002CFA2068816841F48041816011E01EE0A6
:100DF000CA684968206800F0D5FA5021206806E0EA
:100E0000CA684968206800F0DEFA6021206800F0B6
:100E10001EFA84F83950002084F8380070BDCA6882
:100E20004968206800F0BEFA40212068EFE7002101
:100E30002068ECE710212068E9E720212068E6E738
:100E400030212068E3E700001FB5006806498842AA
:100E500008D10120009002200190039069460348C8
:100E6000FFF796F91FBD000000040040000C014090
:100E700070B5044690F838000D4601280DD00126C3
:100E800084F83860022084F8390042B1042A18D06E
:100E9000082A2AD00C2A4DD139E0022070BD2068E2
:100EA00000F0DEF92068816941F008018161206865
:100EB000816921F004018161206881692A691143F7
:100EC00011E0206800F0F4F92068816941F40061C4
:100ED00081612068816921F4806181612068816974
:100EE0002A6941EA0221816124E0206800F00CFABD
:100EF0002068C16941F00801C1612068C16921F021
:100F00000401C1612068C1692A69114311E02068A8
:100F100000F026FA2068C16941F40061C1612068CF
:100F2000C16921F48061C1612068C1692A6941EA0F
:100F30000221C16184F83960002084F8380070BD56
:100F400010B5040003D094F8390010B107E0012077
:100F500010BD002084F83800204600F00CF8022074
:100F600084F83900211D206800F02AF9012084F856
:100F70003900002010BD704710B5044600680122FA
:100F800000F050F907492068884203D1416C41F4D0
:100F9000004141642068016841F0010101600020C6
:100FA00010BD0000002C0140FEE7000030B51A48DB
:100FB00085B0816941F010018161816901F0100102
:100FC0000491816941F020018161816901F0200172
:100FD0000491816941F008018161816901F0080192
:100FE0000491816941F00401816180690B4D00F039
:100FF00004004FF400540490002221462846FFF7D5
:10100000A9F90120CDE90040022003906946284655
:10101000FFF7BEF805B030BD0010024000100140DF
:1010200010B5134886B01149016007210024C0E9BA
:1010300001146321C0E903144461FFF74FFE00B1BE
:10104000FEE74FF48050009069460948FFF782FEA2
:1010500000B1FEE7049404A905480594FFF716FEC5
:10106000002800D0FEE706B010BD0000002C0140B3
:101070000C00002010B51C488EB01A4901600721F1
:101080000024C0E901146321C0E90314FFF726FE20
:1010900000B1FEE74FF48050079007A91248FFF710
:1010A00059FE00B1FEE71048FFF74AFF00B1FEE726
:1010B0000B940BA90C480C94FFF7E8FD00B1FEE778
:1010C0006020CDE900040294082269460648049491
:1010D000FFF7CEFE00B1FEE70348FFF7B5FE0EB006
:1010E00010BD00000004004048000020FEE77047EB
:1010F0000907090E002806DA00F00F0000F1E020D1
:1011000080F8141D704700F1E02080F8001470474B
:101110007047704710B5FFF729F9BDE81040FFF799
:10112000B1BD30B58FB001252804CDE900500024B1
:1011300007946846FFF7C6FA00B1FEE70F200A9051
:10114000CDE90B540D9400210AA80E94FFF7ACF9D9
:1011500000B1FEE7FFF76CFA4FF47A71B0FBF1F0E3
:10116000FFF77CFD0420FFF76CFD00221146501EA6
:10117000FFF768F90FB030BD0D48016841F001017B
:10118000016041680B4A1140416001680A4A114000
:101190000160016821F480210160416821F4FE01B1
:1011A00041604FF41F0181600449C003086070472B
:1011B000001002400000FFF8FFFFF6FE08ED00E01F
:1011C000F0B50268144B154C154D4FF0804798420E
:1011D00005D0B84203D0A04201D0A84203D122F0EA
:1011E00070064A683243984205D0B84203D0A04204
:1011F00001D0A84203D122F44074CA68224302609D
:101200008A68C2620A688262984201D109690163F0
:1012100001214161F0BD0000002C014000040040AC
:101220000008004010B50123046A8B409C4304620F
:10123000036A8A401343036210BD10B5846842EA12
:10124000032224F47F440A432243826010BD826853
:1012500022F070020A4342F00701816070470000EB
:1012600030B5026A22F001020262026A43688469B0
:1012700024F073050C682C4322F002058A682A4387
:101280000A4DA8420BD122F00805CA6823F4407326
:101290002A434D6922F004021D438B692B434360AE
:1012A000846149684163026230BD0000002C014046
:1012B00030B5026A22F010020262026A4368846951
:1012C0000D6824F4E64444EA05248D6822F02002E7
:1012D00042EA05120B4DA8420ED1CD6822F08002E1
:1012E00042EA05124D6923F4406343EA85038D69A0
:1012F00022F0400243EA85034360846149688163C8
:10130000026230BD002C014030B5026A22F48072C6
:101310000262036A4268C46923F4007324F073050F
:101320000C682C438D6843EA05230C4DA8420ED16E
:10133000CD6823F4006343EA05234D6922F440524B
:1013400042EA05128D6923F4806342EA0512426085
:10135000C4614968C163036230BD0000002C0140D4
:1013600030B5026A22F480520262046A4268C3699C
:101370000D6823F4E64343EA05238D6824F4005402
:1013800044EA0534064DA84204D14D6922F4804256
:1013900042EA85124260C36149680164046230BD5B
:1013A000002C014010B5036A046A24F001040462B1
:1013B000846924F0F00444EA021423F00A020A4388
:1013C0008461026210BD10B5036A23F0100303624A
:1013D0008369046A23F4704343EA023224F0A003D1
:1013E00043EA01118261016210BDFEE70FB4084BB0
:1013F00010B504A902AA039800F01CF8044602A93B
:10140000002000F0C1F8204610BC5DF814FB00007D
:101410008915000802E008C8121F08C1002AFAD185
:1014200070477047002001E001C1121F002AFBD164
:10143000704700002DE9FF4F89B09B460446002508
:1014400006E025280BD05A460B999047641C6D1C6A
:1014500020780028F5D10DB02846BDE8F08F002790
:10146000B8460122474900E0074314F8013F203BFA
:1014700002FA03F00842F7D120782E2819D114F887
:10148000010F47F004072A280ED06FF02F022078B2
:10149000A0F1300109290CD808EB880102EB4101C9
:1014A00000EB0108641CF2E70A98641C50F8048BF6
:1014B0000A9020780028CED0642808D0692806D069
:1014C00075281ED05A460B9990476D1C58E00A9912
:1014D0004FF00A0901C90A91002802DA40422D2181
:1014E00002E0390504D52B218DF82010012103E0FD
:1014F000F90704D02021F7E78A4608AE0DE0002165
:10150000FAE70A994FF00A0901C90A91F7E7494633
:10151000FEF708FE303106F8011D0028F7D1ADEBCB
:10152000060000F12009780701D44FF00108C845F2
:1015300002DDA8EB090000E000208046002706E05D
:1015400008A85A46C05D0B9990476D1C7F1C5745F3
:10155000F6DB04E030205A460B9990476D1CB8F139
:101560000001A8F10108F5DC05E016F8010B5A4668
:101570000B9990476D1CB9F10001A9F10109F4DC48
:10158000641C65E7092801000A68531C0B60107091
:10159000704710B5044600F081F82007000E00F0F7
:1015A0007DF8BDE810400120FEF7E6BD10B5044609
:1015B00000224FF480510448FEF7CCFE2046BDE8DF
:1015C0001040FFF7E6BF0000000C014029B10129DF
:1015D00005D1C030C0B2FFF7E9BF8030FAE77047ED
:1015E00010B500F0ADF82B4C00224FF4805120468E
:1015F000FEF7B0FE002261142046FEF7ABFE00228B
:101600004FF480412046FEF7A5FE234C0022102116
:101610002046FEF79FFE002220212046FEF79AFE7C
:10162000002240212046FEF795FE00228021204620
:10163000FEF790FE0F20FEF79FFD302000F02EF801
:101640000520FEF799FD302000F028F80120FEF774
:1016500093FD302000F022F80120FEF78DFD2020C0
:1016600000F01CF86420FEF787FD2820FFF79EFF9E
:101670000C20FFF79BFF0620FFF798FF0120FFF7E4
:1016800095FF0220FFF792FFBDE810406420FEF7AF
:1016900073BD0000000C01400008014070B5264EEB
:1016A000044600224FF400513046FEF753FE234D0E
:1016B000002210212846FEF74DFE2009C00704D065
:1016C000012210212846FEF745FE0022202128464F
:1016D000FEF740FE6009C00704D001222021284601
:1016E000FEF738FE002240212846FEF733FEA0090F
:1016F000C00704D0012240212846FEF72BFE00221D
:1017000080212846FEF726FEE00904D00122802130
:101710002846FEF71FFE0122940321463046FEF7BD
:1017200019FE0120FEF728FD21463046BDE8704035
:101730000022FEF70FBE0000000C0140000801402F
:101740007FB54FF480500124CDE900041C4E0325E1
:10175000694603953046FEF71BFD6003CDE90004A2
:10176000694603953046FEF713FDA003CDE900045A
:10177000694603953046FEF70BFD1020CDE90004C5
:10178000104E694603953046FEF702FD2020CDE954
:101790000004694603953046FEF7FAFC4020CDE987
:1017A0000004694603953046FEF7F2FC8020CDE93F
:1017B0000004694603953046FEF7EAFC7FBD000051
:1017C000000C01400008014010B50446012211033D
:1017D0000348FEF7BFFD2046BDE81040FFF7D9BE25
:1017E000000C014010B5044603E000BFFFF7ECFF1A
:1017F000641C20780028F9D110BD0000FEF7BEFD62
:10180000FFF78FFCFFF7D2FBFFF70AFCFFF732FC74
:1018100008212048FFF7B0FB1E483C38FFF75EFA6E
:10182000FFF7DEFE1B4C1C4EDFF87090A4F13C0766
:101830004FF400584FF47A7A00252068C5633220AF
:10184000FEF79AFC6D1CC82DF7D36420FEF794FCBC
:10185000C8252068C5633220FEF78EFC6D1EF8D1C6
:101860003868406A306032680A480DA13C30FFF7A2
:10187000BDFD00210846FFF7A9FE06483C30FFF7F2
:10188000B1FF41464846FEF761FD5046FEF774FC45
:10189000D2E70000480000200000002000100140B6
:1018A000436F756E7465723A2025302E32640000E5
:1018B0000000000000000000010203040607080900
:1018C000E0180008000000200C00000014140008BC
:1018D000EC1800080C0000208C0400002414000800
:0C18E0000000000000A24A04000000000C
:04000005080000ED02
:00000001FF
