:020000040800F2
:100000005804002001010008A31B0008CD1A0008B5
:10001000A11B000869080008851C000800000000FA
:10002000000000000000000000000000C71B0008E6
:100030006B08000800000000C51B0008C91B000871
:100040001B0100081B0100081B0100081B01000820
:100050001B0100081B0100081B0100081B01000810
:100060001B0100081B0100081B0100081B01000800
:100070001B0100081B0100081B0100081B010008F0
:100080001B0100081B0100081B0100081B010008E0
:100090001B0100081B0100081B0100081B010008D0
:1000A0001B0100081B0100081B0100081B010008C0
:1000B0001B0100081B0100081B0100081B010008B0
:1000C0001B0100081B0100081B0100081B010008A0
:1000D0001B0100081B0100081B0100081B01000890
:1000E0001B0100081B0100081B010008DFF80CD0F1
:1000F00000F028FB00480047D927000858040020DA
:100100000648804706480047FEE7FEE7FEE7FEE7B1
:10011000FEE7FEE7FEE7FEE7FEE7FEE73D1C000820
:10012000ED000008202A04DB203A21FA02F0002129
:10013000704721FA02F3D040C2F1200291400843F7
:100140001946704730B480EA010202F0004530F0F1
:10015000004221F0004013D090B1C30DD40DC2F382
:100160001601C0F31600E41A41F4000140F4000245
:100170007D34914201D3641C00E04900002C02DA76
:1001800030BC002070474FF400000023914201D39F
:10019000891A034340084FEA4101F7D151B1914216
:1001A00002D14FF0004105E002D24FF0010101E021
:1001B0006FF0010103EBC450284430BC00F0EDB8EF
:1001C0002DE9FE4F81EA030404F0004421F00041D0
:1001D00000944FF0000B23F0004350EA01045ED07E
:1001E00052EA03045BD0C3F30A54C1F30A552C440A
:1001F000A4F2F3340194A0FB0254C1F3130141F4BF
:100200008011C3F3130343F4801301FB024400FB8A
:10021000034E840A970A44EA815447EA8357A4FBB1
:10022000076802958D0A05FB07854FEA932C04FBAE
:100230000C542705029D4FEA065847EA1637B5EBDE
:1002400008056EEB070C870E920E47EA811742EA0B
:100250008312A7FB0201B6EB0B0164EB00042B0D2C
:1002600043EA0C335E1844EB1C50DA465146E7FB78
:100270000201C5F313044FEA0B3343EA14534FEA68
:100280000432019C43EA0603A4F10C040294009C8E
:10029000CDE900B400F0C5F803B0BDE8F08F002050
:1002A0000146F9E796230022114600F07FB800F0DE
:1002B000004230F000400AD0C10D01F56071C0F37A
:1002C000160042EA0151C20840071143704700205E
:1002D0000146704701F0004330B421F0004150EA7C
:1002E000010206D00A0DA2F56072C1F31301002AC3
:1002F00002DC30BC00207047440F44EAC104C10056
:10030000E01830BC00EBC25000F047B830B50B46E7
:10031000014600202022012409E021FA02F59D4235
:1003200005D303FA02F5491B04FA02F52844151E09
:10033000A2F10102F1DC30BD2DE9F05F054600209D
:1003400092469B4688460646814640241BE0284646
:10035000414647462246FFF7E5FE53465A46C01A35
:10036000914110D311461846224600F0FDF92D1A8E
:1003700067EB01084F4622460120002100F0F4F906
:1003800017EB00094E41201EA4F10104DFDC4846B2
:1003900031462A464346BDE8F09F0029A8BF704772
:1003A000401C490008BF20F00100704710B4B0FAAB
:1003B00080FC00FA0CF050EA010404BF10BC704746
:1003C00049B1CCF1200421FA04F411FA0CF118BF60
:1003D000012121430843A3EB0C01CB1D4FEA00612F
:1003E0004FEA102042BF002010BC704700EBC35002
:1003F00010440029A4BF10BC7047401C490008BF2E
:1004000020F0010010BC704710B5002B08DA401C2A
:1004100041F1000192185B411A4301D120F0010023
:1004200010BD2DE9F04D92469B4611B1B1FA81F213
:1004300002E0B0FA80F22032904600F095F90446CE
:100440000F4640EA0A0041EA0B0153465A46084368
:1004500013D0114653EA010019D0C8F140025046AA
:10046000FFF760FE05460E4650465946424600F0EC
:100470007BF9084305D0012004E020463946BDE859
:10048000F08D0020054346EAE0762C4337430A9876
:100490006305E40AA0EB08000022FD0A44EA475481
:1004A0000A3002D500200146E9E70105101969412B
:1004B000DDE9084500196941BDE8F04DA4E72DE9E3
:1004C000FE4F804681EA0300C00F0C46009021F0E9
:1004D000004123F00045B8EB0200A94105D2404697
:1004E000214690461C460B46024623F0004010432E
:1004F00047D0270DC7F30A00C3F30A510290401AF0
:10050000019040286BDAC3F3130040F4801B00987D
:10051000924620B10023D2EB030A63EB0B0B019848
:100520005946C0F14002504600F01EF906460D46FD
:1005300050465946019A00F026F910EB0800614137
:10054000002487EA115284EAE7731A4340D0009AE4
:1005500062B3019A012A4FEA075215DC001B61EBD6
:1005600002014FF0004202EA0752CDE90042001CAE
:1005700041F5801132462B46FFF753FF03B0BDE82B
:10058000F08F40462146F9E7001B61EB0201001C99
:1005900041F5801300185B412018A2F5001747EBC6
:1005A000030140EAD570B6196D4111E06D084FEABC
:1005B000360645EAC0754FEA0752001B61EB02019F
:1005C000001C41F5801149084FEA300000195141E3
:1005D00032462B4603B0BDE8F04FFFF715BF009839
:1005E000012240000023D0EB020263EBE07300988D
:1005F00021464FEAE074B8EB000061EB0401E9E743
:1006000083F000435BE781F0004158E72DE9F04DAE
:1006100081EA030404F0004B21F0004514464FF03A
:10062000000A23F0004150EA050220D054EA0102FA
:100630001DD0C5F30A570246C5F31303C1F31300D7
:10064000C1F30A5640F4801543F48013A7EB060863
:10065000101BD64608F2FD3873EB050002D308F1F3
:10066000010801E092185B41B8F1000F03DA0020A5
:100670000146BDE8F08D00204FF480110646844607
:100680000EE0171B73EB050705D3121B63EB050385
:1006900006434CEA010C49084FEA300092185B41CE
:1006A00050EA0107EDD152EA030012D082EA0400B9
:1006B00083EA0501084305D0101BAB4106D2012295
:1006C000002306E000224FF0004302E06FF0010239
:1006D00053101AEB06004CEB085110EB0A0041EBEB
:1006E0000B01BDE8F04DFFF78FBEC1F30A52C1F315
:1006F000130140F2FF3341F480119A4202DA0020E4
:100700000146704740F233439A42A2F2334202DC80
:100710005242FFF707BD00F027B8000030B50029AE
:1007200004DB4FF00044404264EB0101002B04DB8A
:100730004FF00044524264EB0303994208BF9042D9
:1007400030BD0000064C074D06E0E06840F00103B4
:1007500094E8070098471034AC42F6D3FFF7CAFC80
:10076000CC280008EC280008202A04DB203A00FAF4
:1007700002F1002070479140C2F1200320FA03F3F8
:10078000194390407047202A06DBCB17203A41FAE4
:1007900002F043EAE07306E041FA02F3D040C2F10E
:1007A00020029140084319467047000070B5044686
:1007B00000688168C943C9071CD1816821F0010123
:1007C000816000F0C7FB05460FE000BF00F0C2FBF0
:1007D000401B022809D9A06A40F01000A062E06A1C
:1007E00040F00100E062012070BD20688068C043D5
:1007F000C007EBD0002070BDF8B500260446009677
:1008000000688168C943C90728D0816841F00101A7
:100810008160134813490068B0FBF1F000E0401E0E
:1008200000900028FBD100F095FB054611E000BFC9
:1008300000F090FB401B02280BD9A06A40F010008A
:10084000A062E06A40F00100E06284F824600120C8
:10085000F8BD20688068C043C007E9D10020F8BD1A
:100860000000002040420F00FEE77047F8B5002569
:10087000009590F82420AE46012A1ED0012280F86F
:1008800024204A681F244FF47873072A17D2066879
:10089000776B93FAA3FCBCFA8CFC521E02FB0CFC97
:1008A00004FA0CF4A74393FAA3F3B3FA83F30C68A6
:1008B0005A439440274377632DE00220F8BD066831
:1008C0000D2A14D2376B93FAA3FCBCFA8CFCD21F0E
:1008D00002FB0CFC04FA0CF4A74393FAA3F3B3FA5B
:1008E00083F30C685A4394402743376313E0F76A55
:1008F00093FAA3FCBCFA8CFC0D3A02FB0CFC04FA44
:100900000CF4A74393FAA3F3B3FA83F30C685A43A6
:1009100094402743F7620A683823072406680A2AA6
:1009200014D3F76893FAA3FCBCFA8CFC0A3A02FBD6
:100930000CFC04FA0CF4A74393FAA3F3B3FA83F381
:100940008C685A4394402743F76012E0376993FA62
:10095000A3FCBCFA8CFC02FB0CFC04FA0CF4A743CD
:1009600093FAA3F3B3FA83F38C685A439440274372
:1009700037610A68102A01D0112A20D1124B02686F
:100980009A4217D193681B0219D4936843F4000369
:1009900093600968102912D10C490D4A0968B1FB0E
:1009A000F2F101EB8101490000E0491E00910029AC
:1009B000FBD104E0816A41F020018162012580F8C9
:1009C00024E02846F8BD000000240140000000207B
:1009D00040420F000068C06C704700002DE9F041F4
:1009E00004004FF0000514D0A06A002628B9E66282
:1009F00084F82460204600F08BF82046FFF7D6FEEE
:100A0000A16A01F01001014304D0A06A40F0100077
:100A1000A06277E0A16A21F4885141F00201A1624D
:100A20006268E16902270A43E16897FAA7F70B4673
:100A3000B7FA87F7B9400A43A1684FF48077B94203
:100A400008D0012906D00021D4F814C0BCF1010F50
:100A500002D00AE03946F7E7F3B1A36A43F0200376
:100A6000A362E36A43F00103E3622368D3F804C09E
:100A70002CF4694C4CEA010CC3F804C021688B6863
:100A8000DFF884C003EA0C0313438B60A168B9420A
:100A900010D001290ED016E04FF4604CA3699CFAE7
:100AA000ACFCBCFA8CFC5B1E03FA0CF30B4343F466
:100AB0000061DAE74FF47001256991FAA1F1B1FA0A
:100AC00081F16D1E8D402168CB6A23F470032B43A6
:100AD000CB62216889680D4B1940914208D1E662CA
:100AE000A16A21F0020141F00101A162BDE8F0819B
:100AF000A06A20F0020040F01000A062E06A40F01E
:100B00000100E0620120F1E7FDF7E1FFFE0E1FFFAB
:100B100000B500680B4985B0884210D10A48816948
:100B200041F4007181618069694600F400700490AD
:100B30000120009003200190044800F027F905B03F
:100B400000BD0000002401400010024000080140E8
:100B50002DE9F84300260D460446009600F0FAF908
:100B6000804620688168C90508D5A06A40F0200049
:100B7000A06284F824600120BDE8F8834168C905BB
:100B800003D4C06A10F4700F26D0022000F086FA59
:100B900038490968B1FBF0F72068036936490B4210
:100BA0004FEA61014FEAA1121BD1C3684FEA611CF1
:100BB00013EA0C0F15D103690B4221D1C068104212
:100BC0001ED114201FE0681C06D045B300F0C2F906
:100BD000A0EB0800A84222D8206800688007F2D560
:100BE0002AE003690B4202D1C168114206D00269B2
:100BF00022490A4206D1C068084203D1542002E0CB
:100C0000292000E0FC204743009813E0681C0ED028
:100C10002DB100F09FF9A0EB0800A84207D9A06A07
:100C200040F00400A06284F824600320A4E7009848
:100C3000401C0090B842E9D321686FF012000860B0
:100C4000A06A40F40070A06220688068C0F342404F
:100C500007280CD1E06850B9A06A20F48070A06227
:100C6000A06AC00403D4A06A40F00100A062002082
:100C700082E70000000000202449922449922400C9
:100C800070B5044690F8240001280DD0012084F8A6
:100C900024002046FFF7B0FD02004FF0000005D011
:100CA00084F82400104670BD022070BDA16A40F295
:100CB0000123994341F48071A1621F4D23681F49AC
:100CC000AB4218D10E6816F4702F14D0A66A46F401
:100CD0008016A6620E68760505D5A66A26F400562B
:100CE00046F48056A662A66AF6040AD5E66A26F09D
:100CF0000606E66206E0A66A26F48016A6625E682C
:100D0000E9E7E06284F824006FF0020018602068D0
:100D10008368C3F34243072B05D1A84208D1096871
:100D200011F4702F04D0816841F480118160B9E71B
:100D3000816841F4A001F9E7002801400424014042
:100D400010B5044690F82400012807D0012084F84B
:100D500024002046FFF72AFD10B107E0022010BD55
:100D6000A16A21F4885141F00101A162002184F8B7
:100D7000241010BD31B500F0EDF8044600F0EAF89B
:100D80000099001B8842F9D338BD00002DE9F84FC7
:100D9000DFF890A100220AF1040B144601274FF05E
:100DA0000F090BF1040E00BF0B6807FA04F52B4086
:100DB000AB4274D1DFF870C14E68A6EB0C086645F3
:100DC0002BD00DDC032E34D005DC36B3012E19D028
:100DD000022E2FD11BE0112E16D0122E2AD119E08F
:100DE000B8F5881F19D006DCB8F5803F15D0B8F5E6
:100DF000801F1FD111E0B8F5001F0ED0B8F5041FF9
:100E000018D10AE0CA6815E0CA68121D12E0CA6863
:100E100008320FE0CA680C320CE08A682AB1012A55
:100E20004FF0080203D0456104E0042202E00561AE
:100E300000E00022FF2B01D8064601E000F1040685
:100E40004FEA840501D9A5F12005D6F800C009FABA
:100E500005F82CEA080C02FA05F54CEA050CC6F870
:100E600000C04D68ED0057D5304DAE6946F0010623
:100E7000AE61AD6924F0030605F0010500952C4D27
:100E800006EB050CDCF80850A6074FEA167809FABD
:100E900008F6B543274EB04202D1002610E03BE0F1
:100EA000254EB04201D101260AE0244EB04201D1C4
:100EB000022605E0224EB04201D1032600E00426BE
:100EC00006FA08F62E43CCF808604D68DAF80060A0
:100ED000ED03554601D51E4300E09E432E604D684C
:100EE000DBF80060AD035D4601D51E4300E09E4384
:100EF0002E604D68DEF80060ED02754601D51E4398
:100F000000E09E432E604D68AD020E4D2E6801D567
:100F10001E4300E09E432E60641C102CFFF444AF7F
:100F2000BDE8F88F000401400000111000100240DD
:100F30000000014000080140000C01400010014089
:100F4000001401400C0401400AB10161704709041A
:100F5000FBE7000001480068704700000C0000201B
:100F600002480168491C0160704700000C00002025
:100F7000074810B5016841F010010160032000F03E
:100F80007BF8002000F006F800F016F8002010BDF5
:100F90000020024010B5044600F052FA4FF47A7176
:100FA000B0FBF1F000F07AFD00222146501E00F067
:100FB00043F8002010BD00001D4808B5816941F0CC
:100FC00001018161806900F001000090032000F0C0
:100FD00053F8002211466FF00B0000F02DF80022AC
:100FE00011466FF00A0000F027F8002211466FF05A
:100FF000090000F021F800221146501F00F01CF8F3
:1010000000221146101F00F017F800221146901E12
:1010100000F012F800221146501E00F00DF80548AD
:10102000416821F0E06141F00071416008BD0000BD
:101030000010024000000140F0B40E4B1B680C464B
:10104000C3F30223C3F10705042D00D90425191D9C
:10105000072901D2002300E0DB1E012606FA05F174
:10106000491E214099409E40761E16403143F0BCF7
:1010700000F098BD0CED00E0064900F0070208689A
:101080004FF6FF03184040EA0220034A104308606D
:10109000704700000CED00E00000FA0510B533A425
:1010A00001461DCC86B08DE81D0034A0344C00688C
:1010B00004900020012931D0022948D010292BD1D9
:1010C00061682268D20127D54FF4701292FAA2F219
:1010D00001F47010B2FA82F2D040C9031DF800008A
:1010E00010D561684FF4003292FAA2F201F4003197
:1010F000B2FA82F2D14004AA515C224AB2FBF1F169
:10110000484301E0204948436168490204D4400053
:101110005FF00301B0FBF1F006B010BD226AC2F32C
:101120000121012903D1920701D5C803F4E702295F
:1011300005D1626A920702D549F64040ECE70329DF
:10114000EAD121688903E7D54FF22440E4E700F0B3
:101150007DF961684FF4804292FAA2F201F44041B5
:10116000B2FA82F2D140491C4900D3E702030405D8
:10117000060708090A0B0C0D0E0F101001020000E3
:101180000010024000127A0000093D002DE9F843EA
:1011900005460078454CC00774D0E06940F08050A7
:1011A000E061E069424E00F080500090306840F409
:1011B00080703060FFF7CEFE074604E0FFF7CAFEFE
:1011C000C01B642833D83068C005F7D5206A10F4F6
:1011D000407051D0A98801F4407181424CD0206AFE
:1011E0000126310491FAA1F2B2FA82F29300314A57
:1011F00020F440701344C3F8006491FAA1F1B1FAED
:1012000081F102EB81010023C1F800342062C007A4
:1012100032D0FFF79FFE074641F288394FF00208AF
:1012200008E000BFFFF796FEC11B494502D9032025
:10123000BDE8F88398FAA8F1B1FA81F141F04001D4
:101240004046B6EB511F01D121680BE090FAA0F1A6
:10125000B1FA81F141F04001B0EB511F01D1216A97
:1012600000E0616A98FAA8F0B0FA80F000F01F027E
:1012700006FA02F00142D5D0206A696820F4407075
:10128000084320622878800705D56068A96820F4A3
:101290004040084360602878C00605D56068E9686A
:1012A00020F48000084360600020C1E70010024085
:1012B00000700040000042422DE9F047DFF87081E5
:1012C00005460E46D8F8000000F00700B0420CD2E8
:1012D000D8F8001021F007013143C8F80010D8F801
:1012E000000000F00700B04277D12878514C800709
:1012F00005D56068A96820F0F00008436060287890
:10130000C00759D06968012001290DD0022929D0D0
:101310005FF0020393FAA3F2B2FA82F242F02002E3
:10132000520904D0226803E04FF40033F2E7626A06
:1013300093FAA3F3B3FA83F303F01F039840024236
:101340004BD0606820F0030008436060FFF702FEA6
:101350006968074641F2883001290DD0022981468B
:1013600017D025E04FF00073D4E700BFFFF7F2FD80
:10137000C11B494501D918E081466068C0F381006E
:101380000128F3D118E000BFFFF7E4FDC11B494578
:101390000BD86068C0F381000228F5D10CE000BFD3
:1013A000FFF7D8FDC11B494502D90320BDE8F087EE
:1013B000606810F00C0FF3D1D8F80010404601F02F
:1013C0000701B1420BD9016821F0070131430160E7
:1013D000006800F00700B04201D00120E6E728785D
:1013E000400705D56068E96820F4E0600843606064
:1013F0002878000706D56068296920F4605040EA23
:10140000C100606000F03AF86168F02292FAA2F23E
:1014100001F0F001B2FA82F2D140074A515CC840B3
:10142000064908600020FFF7B5FD0020BEE7000078
:101430000020024000100240B428000800000020F4
:101440000148006870470000000000200848094972
:10145000006849684FF4605292FAA2F201F46051B8
:10146000B2FA82F2D140044A515CC8407047000091
:101470000000002000100240C428000810B519A385
:1014800085B00FCB8DE80F001AA01B4B00680490AD
:101490005A681A4802F00C0104291DD008291BD1F2
:1014A0004FF4701494FAA4F402F47011B4FA84F4B2
:1014B000E140D2031DF8011010D55A684FF40033F3
:1014C00093FAA3F302F40032B3FA83F3DA4004ABE5
:1014D0009A5CB0FBF2F0484305B010BD08484843A1
:1014E000FAE7000002030405060708090A0B0C0DC1
:1014F0000E0F1010010200000010024000127A00CE
:1015000000093D002DE9F84F04460078F74DC0076B
:101510004FF0010625D068687704C0F381000128E8
:1015200007D06868C0F3810002281BD16868C00337
:1015300018D597FAA7F0B0FA80F040F020004009E3
:1015400001D0286800E0686A97FAA7F1B1FA81F142
:1015500001F01F0106FA01F108425ED06068002820
:101560007CD05AE06068B0F5803F0BD010B1B0F588
:10157000A02F11D0286820F480302860286820F43B
:10158000802002E0286840F480302860606828B33A
:10159000FFF7E0FC80460BE0286840F480202860DC
:1015A000F0E700BFFFF7D6FCA0EB0800642871D875
:1015B00097FAA7F0B0FA80F040F02000400901D07F
:1015C000286800E0686A97FAA7F1B1FA81F101F0A2
:1015D0001F0106FA01F10842E4D01EE0FFF7BAFC51
:1015E000804605E0FFF7B6FCA0EB08006428DED8D3
:1015F00097FAA7F0B0FA80F040F02000400901D03F
:10160000286800E0686A97FAA7F1B1FA81F101F061
:101610001F0106FA01F10842E4D12078DFF8D082F8
:1016200080074FF000094FF002075BD568684FF064
:10163000F80B10F00C0F07D06868C0F38100022887
:101640001CD16868C00319D497FAA7F0B0FA80F0EB
:1016500040F02000400902D0286801E08BE0686A71
:1016600097FAA7F1B1FA81F101F01F0106FA01F131
:1016700008422CD0206901287DD128E0206990B350
:1016800096FAA6F0B0FA80F048F82060FFF762FC06
:10169000824607E011E100BFFFF75CFCA0EB0A0007
:1016A000022884D897FAA7F0B0FA80F040F0200022
:1016B000400901D0286800E0686A97FAA7F1B1FAFA
:1016C00081F101F01F0106FA01F10842E4D0286817
:1016D0009BFAABF26169B2FA82F220F0F800914015
:1016E0000843286025E0FFE796FAA6F1B1FA81F1F8
:1016F00048F82190FFF72EFC824605E0FFF72AFC10
:10170000A0EB0A000228CCD897FAA7F0B0FA80F034
:1017100040F02000400901D0286800E0686A97FA8C
:10172000A7F1B1FA81F101F01F0106FA01F10842B7
:10173000E4D1207800076ED5A069B8B396FAA6F078
:10174000B0FA80F008EB8000C0F88064FFF702FC7C
:10175000824605E0FFF7FEFBA0EB0A000228A0D8B6
:1017600097FAA7F0B0FA80F040F06000B6EB501F97
:1017700002D128680CE062E197FAA7F0B0FA80F095
:1017800040F06000B7EB501F01D1286A00E0686AA2
:1017900097FAA7F1B1FA81F101F01F0106FA01F2FF
:1017A0001042D7D00120FFF7E5FA34E0FFE796FAC0
:1017B000A6F1B1FA81F108EB8101C1F88094FFF73D
:1017C000C9FB824606E000BFFFF7C4FBA0EB0A009E
:1017D000022872D897FAA7F0B0FA80F040F06000C3
:1017E000B6EB501F01D128680BE097FAA7F0B0FACA
:1017F00080F040F06000B7EB501F01D1286A00E094
:10180000686A97FAA7F1B1FA81F101F01F0106FAAF
:1018100001F21042D8D12078400765D5E86940F040
:101820008050E861E869DFF8CCB000F080500090AB
:10183000DBF8001041F48071CBF80010FFF78AFB51
:10184000824605E0FFF786FBA0EB0A00642834D847
:10185000DBF80000C005F5D5E06801280AD008B122
:10186000052813D0286A20F001002862286A20F099
:10187000040002E0286A40F001002862E06841F2BA
:10188000883B90B3FFF766FB82460BE0286A40F086
:1018900004002862EEE700BFFFF75CFBA0EB0A0143
:1018A00059450AD897FAA7F0B0FA80F040F0400006
:1018B000B6EB501F02D128680CE0A3E097FAA7F01E
:1018C000B0FA80F040F04000B7EB501F01D1286A19
:1018D00000E0686A97FAA7F1B1FA81F101F01F02FE
:1018E00006FA02F10842D7D031E005E000100240CC
:1018F0000000424200700040FFF72CFB824605E0EA
:10190000FFF728FBA0EB0A0159457BD897FAA7F00F
:10191000B0FA80F040F04000B6EB501F01D12868CB
:101920000BE097FAA7F0B0FA80F040F04000B7EB78
:10193000501F01D1286A00E0686A97FAA7F1B1FA4E
:1019400081F101F01F0206FA02F10842D8D1E069E4
:1019500080B36968C1F38101022970D04FF08071B2
:101960004F000228484609D091FAA1F1B1FA81F15D
:1019700048F82100FFF7EEFA044669E08A4691FA3A
:10198000A1F1B1FA81F1C14648F82100FFF7E2FA6E
:10199000804605E0FFF7DEFAA0EB0800022854D8E5
:1019A00097FAA7F0B0FA80F040F02000400902D08A
:1019B000286801E061E0686A97FAA7F1B1FA81F15D
:1019C00001F01F0106FA01F10842E3D1206AB0F5E7
:1019D000803F05D16868A16820F400300843686042
:1019E000D4E908010843696821F474110843686068
:1019F0009AFAAAF0B0FA80F049F82060FFF7AAFA44
:101A0000044606E021E000BFFFF7A4FA001B02280D
:101A10001BD897FAA7F0B0FA80F040F020004009F8
:101A200001D0286800E0686A97FAA7F1B1FA81F15D
:101A300001F01F0106FA01F10842E5D01DE01EE0A9
:101A4000FFF788FA001B022802D90320BDE8F88FAF
:101A500097FAA7F0B0FA80F040F02000400901D0DA
:101A6000286800E0686A97FAA7F1B1FA81F101F0FD
:101A70001F0106FA01F10842E2D10020E6E7012049
:101A8000E4E74FF0E0210428086903D020F00400C7
:101A90000861704740F00400FAE7704710B5401E37
:101AA000B0F1807F01D3012010BD4FF0E0246061D0
:101AB0000F21601700F076F80020A0610720206158
:101AC000002010BD10B5FFF7E8FF10BDFEE70000D5
:101AD0003EB50F480D49002401600125C0E90245CB
:101AE000446105614FF460214460C161FEF776FFF7
:101AF00000B1FEE7CDE90045694605480294FEF7CE
:101B0000B5FE002800D0FEE73EBD000000240140E5
:101B1000100000202DE9F0411E4886B0816941F097
:101B200020018161816901F020010491816941F006
:101B300004018161816901F004010491816941F02E
:101B4000080181618069144F00F0080004900022B0
:101B5000F0213846FFF7F8F9DFF840804FF4E0460F
:101B6000002231464046FFF7EFF9F0200124CDE98D
:101B700000040225694603953846FFF707F9CDE9C9
:101B80000064694640460395FFF700F906B0BDE8DA
:101B9000F08100000010024000080140000C0140EC
:101BA000FEE770470907090E002806DA00F00F006B
:101BB00000F1E02080F8141D704700F1E02080F86B
:101BC000001470477047704710B5FFF7C9F9BDE8BA
:101BD0001040FFF777BF30B593B001252804CDE959
:101BE0000050002407946846FFF78CFC00B1FEE724
:101BF0000F200A90CDE90B540D9400210AA80E94F1
:101C0000FFF75AFB00B1FEE702200F9011940FA8D6
:101C1000FFF7BCFA00B1FEE7FFF712FC4FF47A7150
:101C2000B0FBF1F0FFF73AFF0420FFF72AFF002294
:101C30001146501EFFF700FA13B030BD0D48016881
:101C400041F00101016041680B4A114041600168A7
:101C50000A4A11400160016821F480210160416855
:101C600021F4FE0141604FF41F0181600449C0036B
:101C700008607047001002400000FFF8FFFFF6FE0A
:101C800008ED00E0FEE700000FB4084B10B504A912
:101C900002AA039800F0CEF8044602A9002000F042
:101CA00060FC204610BC5DF814FB000063250008B2
:101CB00002E008C8121F08C1002AFAD17047704715
:101CC000002001E001C1121F002AFBD17047000073
:101CD0002DE9FF5FDDE90220010DDDF838B0024398
:101CE00018D044F61050A1F2FF3141430D140F9863
:101CF000012820D0A5EB0B00401C5FEA000A4FF042
:101D00000004474EDFF81C91A046504616D5CAF194
:101D1000000728E00F98012443A2012808D00021E1
:101D200000980F9BC0E90021C0E90243BDE8FF9F76
:101D30006FEA0B01F4E7CBF10000DEE7074612E0A3
:101D4000F80707D02246334640464946FEF738FAA0
:101D5000804689462246334610461946FEF730FA39
:101D600004460E467F10002FEAD1DDE90201BAF1E8
:101D7000000F42464B4602DAFEF722FA01E0FEF778
:101D800045FC04460E460022284BFEF7C7FC03D84C
:101D90004FF0FF30014607E00022254B2046314638
:101DA000FEF78DFBFEF7A1FC102409E0002C0ADBF6
:101DB0000A220023FEF7C0FA019B30321A55641E36
:101DC00050EA0102F2D1641C019AC4F111031444D7
:101DD0000F9A012A03D0012208430DD10AE00843DB
:101DE00004D000204FF0110B0F9080E7A3EB0B0500
:101DF0006D1E0DE05B4504DD4FF0000205F10105AD
:101E000004E003DA4FF00002A5F10105002AECD04E
:101E100000980F99C0E90231C0E9004586E700004B
:101E2000000024400000F03F300000000000F043BC
:101E30000000E03F2DE9FF4F95B09B4689460646DE
:101E400000250FE2252877D100242746F84A0121F2
:101E5000059400E0044316F8013F203B01FA03F02B
:101E60001042F7D130782A2811D06FF02F03307844
:101E7000A0F13002092A16D8059A44F0020402EBB8
:101E8000820203EB42021044761C0590EFE759F8FA
:101E9000042B0592002A03DA504244F400540590C2
:101EA00044F00204761C30782E2816D116F8010F63
:101EB00044F004042A280DD06FF02F023078A0F1EE
:101EC0003003092B09D807EB870302EB4303C7183C
:101ED000761CF3E759F8047B761C30786C280FD019
:101EE00006DC4C2817D068280DD06A2814D104E0ED
:101EF000742810D07A280FD10DE044F400140AE0C1
:101F000044F4801401E044F440147278824202D117
:101F100004F58014761C761C307866280BD013DC10
:101F2000582877D009DC002875D04528F6D04628F7
:101F3000F4D047281AD19DE118E0632835D06428F1
:101F400079D0652812D195E1702873D008DC672814
:101F5000F1D069286FD06E280DD06F2806D1B5E07A
:101F600073282CD0752875D0782874D05A461799C4
:101F700090476D1C75E1C4F30250022809D0032874
:101F80000DD0D9F8001004280DD00D6009F1040916
:101F900067E1D9F80010EA17C1E90052F6E7D9F86D
:101FA00000100D80F2E70D70F0E719F8041B8DF8B2
:101FB000001000208DF80100EA46012003E059F8E6
:101FC00004AB4FF0FF3061074FF0000102D40DE089
:101FD00008F101018846B9420FDA8045F8DB1AF8AA
:101FE00008100029F4D108E008F101018846814277
:101FF000FADB1AF808100029F6D105985B46A0EB29
:10200000080721463846179A00F094FA284400EB56
:10201000080507E04DE029E10DE01AF8010B5A46EA
:1020200017999047B8F10108F7D25B462146384628
:10203000179A13E142E00A220092C4F302524FF0D1
:10204000000A022A08D059F804CB032A4FEAEC719F
:102050000AD00DE029E02AE009F1070121F007028A
:10206000F2E802C1914609E00FFA8CFC4FEAEC71EC
:10207000042A03D14FFA8CFC4FEAEC71002907DAED
:102080000A460021DCF1000C61EB02012D2202E086
:10209000220504D52B228DF80420012203E0E2075B
:1020A00001D02022F7E7904659E00A2102E01022F1
:1020B0000DE010214FF0000A00910BE010224FF0CC
:1020C000000A44F004040827009203E008224FF0BD
:1020D000000A0092C4F30252022A05D059F804CB38
:1020E0000021032A08D009E009F1070121F00702C5
:1020F000F2E802C1914605E01FFA8CFC042A01D1E6
:102100000CF0FF0C4FF00008220728D5702806D0ED
:10211000009B83F0100353EA0A0305D00EE040222F
:102120008DF80420012208E05CEA010206D030228A
:102130008DF804208DF8050002229046009B83F064
:10214000080353EA0A030AD15CEA010201D16207DB
:1021500005D530228DF804204FF001087F1E582845
:1021600004D034A003900EA802900DE036A0F9E749
:1021700053466046009AFEF7DFF884460398825C77
:102180000298401E029002705CEA0100F0D10298B1
:1021900006A9081A00F1200A600702D524F4803449
:1021A00000E00127574502DDA7EB0A0000E0002010
:1021B00000EB0A01009005984144401A0590E003A5
:1021C00006D45B462146179A059800F0B3F90544FA
:1021D000002706E001A85A46C05D179990476D1C7C
:1021E0007F1C4745F6DBE0030CD55B462146179A7A
:1021F000059800F09FF9054404E030205A461799ED
:1022000090476D1C0099481E00900029F5DC08E0FD
:10221000029802995A460078491C029117999047F2
:102220006D1CBAF10001AAF1010AF1DC65E10000C0
:10223000092801003031323334353637383961629C
:102240006364656600000000303132333435363760
:1022500038394142434445460000000000F058F937
:102260000544761C307800287FF4ECAD19B0284680
:10227000BDE8F08F620700D4062709F1070222F0BB
:10228000070CFCE80223E14603F000485FEA080C73
:1022900002D00FF2702C0DE05FEA045C02D50FF261
:1022A000682C07E05FEAC47C02D00FF2602C01E0EA
:1022B000AFF2700C4FF0FF3823F00043CDF850C060
:1022C00065280CD006DC452809D046281DD04728B3
:1022D0003DD13DE0662818D067287ED138E0002146
:1022E000112F01DB112000E0781CCDE9000106A9C7
:1022F0000EA8FFF7EDFCDDE90F010E9A0391002116
:10230000009207F1010A04914DE04FF00040009760
:10231000CDE9011006A90EA8FFF7DAFCDDE90F02EE
:1023200003920E9B11990022DDF80CA000930492F9
:1023300011B9791C00EB010AB7EB0A0004D4C0F113
:10234000FF3007F1010A0490AAEB0700019044E076
:10235000012F00DA01270021112F01DD112000E0FB
:102360003846CDE9000106A90EA8FFF7B1FCDDE96A
:102370000F010E9A0391002104910092BA462107A1
:102380000CD40399514500DA8A46BAF1010F05DDF4
:10239000009AAAF10101515C302908D0B84202DA52
:1023A00010F1040F06DA0121CDE9011015E0AAF1C0
:1023B0000101E9E7002805DC049901440491AAEB36
:1023C000000102E0411C514500DD8A460499401A93
:1023D000401C01904FF000400290200704D4019867
:1023E000504501DBCDF8048000208DF84F000298A5
:1023F0000DF14F07B0F1004F25D02B200E90029821
:102400004FF0020800280CDA404202902D200E9076
:1024100007E00A210298FDF779FF3031029007F8B2
:10242000011DB8F10001A8F10108F2DC02980028B2
:10243000EFD1791E0E980870307800F0200040F03F
:10244000450007F8020D12A8C01B00F107081498F8
:10245000007800B1012000EB0A01019801EBE07166
:1024600005984144401A401E0590E00306D45B469F
:102470002146179A059800F05DF8054414980078F5
:1024800018B15A46179990476D1CE00324D55B4656
:102490002146179A059800F04DF805441CE0049871
:1024A000002807DBDDE90301884203DD0098405C7A
:1024B000179901E0179930205A469047049805F182
:1024C0000105401C04900198401E019004D12E206B
:1024D0005A46179990476D1CBAF10001AAF1010AFA
:1024E000DDDC05E017F8010B5A46179990476D1C83
:1024F000B8F10001A8F10108F4DC5B462146179A07
:102500000598ABE62D0000002B0000002000000025
:102510002DE9F041044600251E461746880404D4E0
:1025200005E039462020B0476D1C641EF9D52846C9
:10253000BDE8F0812DE9F041044600251E46904695
:10254000C80301D5302700E02027880404D505E022
:1025500041463846B0476D1C641EF9D52846BDE893
:10256000F0810A68531C0B601070704710B5044668
:1025700000F082F82007000E00F07EF8BDE8104061
:102580000120FEF7F7BB000010B5044600224FF40F
:1025900080510448FEF7D8FC2046BDE81040FFF704
:1025A000E5BF0000000C014029B1012905D1C03070
:1025B000C0B2FFF7E9BF8030FAE7704710B500F00E
:1025C000ADF82B4C00224FF480512046FEF7BCFCA6
:1025D000002261142046FEF7B7FC00224FF4804130
:1025E0002046FEF7B1FC234C002210212046FEF7C6
:1025F000ABFC002220212046FEF7A6FC0022402151
:102600002046FEF7A1FC002280212046FEF79CFC1C
:102610000F20FEF7AFFB302000F02EF80520FEF76C
:10262000A9FB302000F028F80120FEF7A3FB3020A2
:1026300000F022F80120FEF79DFB202000F01CF89E
:102640006420FEF797FB2820FFF79EFF0C20FFF782
:102650009BFF0620FFF798FF0120FFF795FF022060
:10266000FFF792FFBDE810406420FEF783BB000037
:10267000000C01400008014070B5264E04460022BF
:102680004FF400513046FEF75FFC234D002210212D
:102690002846FEF759FC2009C00704D0012210216A
:1026A0002846FEF751FC002220212846FEF74CFC6C
:1026B0006009C00704D0012220212846FEF744FC0F
:1026C000002240212846FEF73FFCA009C00704D0A5
:1026D000012240212846FEF737FC002280212846AF
:1026E000FEF732FCE00904D0012280212846FEF7E3
:1026F0002BFC0122940321463046FEF725FC0120E5
:10270000FEF738FB21463046BDE870400022FEF758
:102710001BBC0000000C0140000801407FB54FF4D5
:1027200080500124CDE900041C4E03256946039521
:102730003046FEF72BFB6003CDE9000469460395A4
:102740003046FEF723FBA003CDE90004694603955C
:102750003046FEF71BFB1020CDE90004104E694601
:1027600003953046FEF712FB2020CDE900046946B0
:1027700003953046FEF70AFB4020CDE90004694688
:1027800003953046FEF702FB8020CDE90004694640
:1027900003953046FEF7FAFA7FBD0000000C0140B9
:1027A0000008014010B50446012211030348FEF75A
:1027B000CBFB2046BDE81040FFF7D8BE000C01401F
:1027C00010B5044603E000BFFFF7ECFF641C20785F
:1027D0000028F9D110BD0000FEF7CAFBFFF7FBF996
:1027E000FFF798F9FFF774F9FFF7E8FE00210846B4
:1027F000FFF7DAFE244C254EDFF894804FF47A750B
:102800004FF066372348FEF73BFA29462148FEF78A
:102810009FF988B91F48FEF7DDF8206000210846BF
:10282000FFF7C2FE22681B481BA13030FFF72CFACD
:1028300018483030FFF7C4FF1648FEF781FA2068C9
:10284000FDF730FD3146FDF77DFCFDF730FD3A46E2
:102850004346FDF7B5FCFDF73DFD6060012100201A
:10286000FFF7A2FE6068FDF722FD024609480B460D
:102870000CA13030FFF708FA06483030FFF7A0FF10
:102880006420FEF777FABDE70400002000F07F45E2
:1028900066660A40100000204144433A2025642027
:1028A00020200000566F6C3A2025312E3266202001
:1028B00056000000000000000000000001020304B8
:1028C000060708090000000001020304EC280008C4
:1028D0000000002010000000B01C0008FC280008C8
:1028E0001000002048040000C01C000800A24A0498
:0C28F000000000000000000000000000DC
:04000005080000ED02
:00000001FF
