:020000040800F2
:100000005004002001010008DF14000895140008C6
:10001000DD14000831020008C115000800000000CE
:1000200000000000000000000000000003150008B0
:100030003302000800000000011500080515000843
:100040001B0100081B0100081B0100081B01000820
:100050001B0100081B0100081B0100081B01000810
:100060001B0100081B0100081B0100081B01000800
:100070001B0100081B0100081B0100081B010008F0
:100080001B0100081B0100081B0100081B010008E0
:100090001B0100081B0100081B0100081B010008D0
:1000A0001B0100081B0100081B0100081B010008C0
:1000B0001B0100081B0100081B0100081B010008B0
:1000C0001B0100081B0100081B0100081B010008A0
:1000D0001B0100081B0100081B0100081B01000890
:1000E0001B0100081B0100081B010008DFF80CD0F1
:1000F00000F02EF800480047D519000850040020F1
:100100000648804706480047FEE7FEE7FEE7FEE7B1
:10011000FEE7FEE7FEE7FEE7FEE7FEE779150008EB
:10012000ED00000830B50B460146002020220124D6
:1001300009E021FA02F59D4205D303FA02F5491BB5
:1001400004FA02F52844151EA2F10102F1DC30BDCB
:10015000064C074D06E0E06840F0010394E8070014
:1001600098471034AC42F6D3FFF7C4FFB41A000826
:10017000D41A000870B5044600688168C943C907ED
:100180001CD1816821F00101816000F0C7FB0546A8
:100190000FE000BF00F0C2FB401B022809D9A06A93
:1001A00040F01000A062E06A40F00100E06201202F
:1001B00070BD20688068C043C007EBD0002070BDD0
:1001C000F8B500260446009600688168C943C9074F
:1001D00028D0816841F0010181601348134900680B
:1001E000B0FBF1F000E0401E00900028FBD100F0D1
:1001F00095FB054611E000BF00F090FB401B022874
:100200000BD9A06A40F01000A062E06A40F0010043
:10021000E06284F824600120F8BD20688068C04353
:10022000C007E9D10020F8BD0400002040420F00C3
:10023000FEE77047F8B50025009590F82420AE46FB
:10024000012A1ED0012280F824204A681F244FF47E
:100250007873072A17D20668776B93FAA3FCBCFA67
:100260008CFC521E02FB0CFC04FA0CF4A74393FA1C
:10027000A3F3B3FA83F30C685A439440274377639C
:100280002DE00220F8BD06680D2A14D2376B93FAD0
:10029000A3FCBCFA8CFCD21F02FB0CFC04FA0CF48D
:1002A000A74393FAA3F3B3FA83F30C685A43944039
:1002B0002743376313E0F76A93FAA3FCBCFA8CFC7C
:1002C0000D3A02FB0CFC04FA0CF4A74393FAA3F3D7
:1002D000B3FA83F30C685A4394402743F7620A68E1
:1002E0003823072406680A2A14D3F76893FAA3FC74
:1002F000BCFA8CFC0A3A02FB0CFC04FA0CF4A7438F
:1003000093FAA3F3B3FA83F38C685A4394402743D8
:10031000F76012E0376993FAA3FCBCFA8CFC02FB8D
:100320000CFC04FA0CF4A74393FAA3F3B3FA83F397
:100330008C685A439440274337610A68102A01D0D9
:10034000112A20D1124B02689A4217D193681B02DE
:1003500019D4936843F4000393600968102912D1FB
:100360000C490D4A0968B1FBF2F101EB810149002A
:1003700000E0491E00910029FBD104E0816A41F0B0
:1003800020018162012580F824E02846F8BD0000A4
:10039000002401400400002040420F000068C06CAF
:1003A000704700002DE9F04104004FF0000514D023
:1003B000A06A002628B9E66284F82460204600F08E
:1003C0008BF82046FFF7D6FEA16A01F01001014329
:1003D00004D0A06A40F01000A06277E0A16A21F486
:1003E000885141F00201A1626268E16902270A4373
:1003F000E16897FAA7F70B46B7FA87F7B9400A43BF
:10040000A1684FF48077B94208D0012906D00021B5
:10041000D4F814C0BCF1010F02D00AE03946F7E766
:10042000F3B1A36A43F02003A362E36A43F001033C
:10043000E3622368D3F804C02CF4694C4CEA010C45
:10044000C3F804C021688B68DFF884C003EA0C039A
:1004500013438B60A168B94210D001290ED016E079
:100460004FF4604CA3699CFAACFCBCFA8CFC5B1E9C
:1004700003FA0CF30B4343F40061DAE74FF4700125
:10048000256991FAA1F1B1FA81F16D1E8D402168C3
:10049000CB6A23F470032B43CB62216889680D4B30
:1004A0001940914208D1E662A16A21F0020141F0AF
:1004B0000101A162BDE8F081A06A20F0020040F0D5
:1004C0001000A062E06A40F00100E0620120F1E764
:1004D000FDF7E1FFFE0E1FFF00B500680B4985B078
:1004E000884210D10A48816941F4007181618069B4
:1004F000694600F4007004900120009003200190F0
:10050000044800F027F905B000BD000000240140B8
:1005100000100240000801402DE9F84300260D4676
:100520000446009600F0FAF9804620688168C90503
:1005300008D5A06A40F02000A06284F82460012061
:10054000BDE8F8834168C90503D4C06A10F4700F90
:1005500026D0022000F086FA38490968B1FBF0F78E
:100560002068036936490B424FEA61014FEAA11244
:100570001BD1C3684FEA611C13EA0C0F15D1036944
:100580000B4221D1C06810421ED114201FE0681C0C
:1005900006D045B300F0C2F9A0EB0800A84222D86B
:1005A000206800688007F2D52AE003690B4202D177
:1005B000C168114206D0026922490A4206D1C068C8
:1005C000084203D1542002E0292000E0FC204743E8
:1005D000009813E0681C0ED02DB100F09FF9A0EB3D
:1005E0000800A84207D9A06A40F00400A06284F87D
:1005F00024600320A4E70098401C0090B842E9D38F
:1006000021686FF012000860A06A40F40070A062D8
:1006100020688068C0F3424007280CD1E06850B9D8
:10062000A06A20F48070A062A06AC00403D4A06A0B
:1006300040F00100A062002082E7000004000020DA
:10064000244992244992240070B5044690F824006D
:1006500001280DD0012084F824002046FFF7B0FDCA
:1006600002004FF0000005D084F82400104670BD51
:10067000022070BDA16A40F20123994341F48071C8
:10068000A1621F4D23681F49AB4218D10E6816F4B2
:10069000702F14D0A66A46F48016A6620E687605FE
:1006A00005D5A66A26F4005646F48056A662A66AC8
:1006B000F6040AD5E66A26F00606E66206E0A66AB1
:1006C00026F48016A6625E68E9E7E06284F82400FA
:1006D0006FF00200186020688368C3F34243072B61
:1006E00005D1A84208D1096811F4702F04D081689F
:1006F00041F480118160B9E7816841F4A001F9E714
:10070000002801400424014010B5044690F824005C
:10071000012807D0012084F824002046FFF72AFD95
:1007200010B107E0022010BDA16A21F4885141F008
:100730000101A162002184F8241010BD31B500F040
:10074000EDF8044600F0EAF80099001B8842F9D35E
:1007500038BD00002DE9F84FDFF890A100220AF122
:10076000040B144601274FF00F090BF1040E00BFD4
:100770000B6807FA04F52B40AB4274D1DFF870C167
:100780004E68A6EB0C0866452BD00DDC032E34D04A
:1007900005DC36B3012E19D0022E2FD11BE0112E0D
:1007A00016D0122E2AD119E0B8F5881F19D006DC10
:1007B000B8F5803F15D0B8F5801F1FD111E0B8F50E
:1007C000001F0ED0B8F5041F18D10AE0CA6815E062
:1007D000CA68121D12E0CA6808320FE0CA680C32FB
:1007E0000CE08A682AB1012A4FF0080203D0456163
:1007F00004E0042202E0056100E00022FF2B01D8A2
:10080000064601E000F104064FEA840501D9A5F18E
:100810002005D6F800C009FA05F82CEA080C02FAFF
:1008200005F54CEA050CC6F800C04D68ED0057D53B
:10083000304DAE6946F00106AE61AD6924F00306A5
:1008400005F0010500952C4D06EB050CDCF8085071
:10085000A6074FEA167809FA08F6B543274EB042C4
:1008600002D1002610E03BE0254EB04201D1012626
:100870000AE0244EB04201D1022605E0224EB042E9
:1008800001D1032600E0042606FA08F62E43CCF830
:1008900008604D68DAF80060ED03554601D51E4347
:1008A00000E09E432E604D68DBF80060AD035D46BE
:1008B00001D51E4300E09E432E604D68DEF80060C7
:1008C000ED02754601D51E4300E09E432E604D6843
:1008D000AD020E4D2E6801D51E4300E09E432E60F2
:1008E000641C102CFFF444AFBDE8F88F00040140F5
:1008F00000001110001002400000014000080140FB
:10090000000C014000100140001401400C040140A3
:100910000AB1016170470904FBE700000148006863
:10092000704700000000002002480168491C016077
:100930007047000000000020074810B5016841F032
:1009400010010160032000F07BF8002000F006F8A1
:1009500000F016F8002010BD0020024010B504463B
:1009600000F052FA4FF47A71B0FBF1F000F07AFD2A
:1009700000222146501E00F043F8002010BD000068
:100980001D4808B5816941F001018161806900F06D
:1009900001000090032000F053F8002211466FF090
:1009A0000B0000F02DF8002211466FF00A0000F055
:1009B00027F8002211466FF0090000F021F800220C
:1009C0001146501F00F01CF800221146101F00F0C5
:1009D00017F800221146901E00F012F8002211466E
:1009E000501E00F00DF80548416821F0E06141F02B
:1009F0000071416008BD000000100240000001408D
:100A0000F0B40E4B1B680C46C3F30223C3F1070579
:100A1000042D00D90425191D072901D2002300E067
:100A2000DB1E012606FA05F1491E214099409E4031
:100A3000761E16403143F0BC00F052BD0CED00E0D4
:100A4000064900F0070208684FF6FF03184040EA25
:100A50000220034A10430860704700000CED00E0DC
:100A60000000FA0510B533A401461DCC86B08DE810
:100A70001D0034A0344C006804900020012931D0BE
:100A8000022948D010292BD161682268D20127D5CC
:100A90004FF4701292FAA2F201F47010B2FA82F2DC
:100AA000D040C9031DF8000010D561684FF4003232
:100AB00092FAA2F201F40031B2FA82F2D14004AA11
:100AC000515C224AB2FBF1F1484301E0204948431E
:100AD0006168490204D440005FF00301B0FBF1F00B
:100AE00006B010BD226AC2F30121012903D1920789
:100AF00001D5C803F4E7022905D1626A920702D53D
:100B000049F64040ECE70329EAD121688903E7D59B
:100B10004FF22440E4E700F07DF961684FF4804231
:100B200092FAA2F201F44041B2FA82F2D140491C99
:100B30004900D3E702030405060708090A0B0C0D58
:100B40000E0F1010010200000010024000127A0087
:100B500000093D002DE9F84305460078454CC007E3
:100B600074D0E06940F08050E061E069424E00F0EE
:100B700080500090306840F480703060FFF7CEFE07
:100B8000074604E0FFF7CAFEC01B642833D830686C
:100B9000C005F7D5206A10F4407051D0A98801F43F
:100BA000407181424CD0206A0126310491FAA1F2B1
:100BB000B2FA82F29300314A20F440701344C3F831
:100BC000006491FAA1F1B1FA81F102EB81010023F5
:100BD000C1F800342062C00732D0FFF79FFE0746FD
:100BE00041F288394FF0020808E000BFFFF796FE97
:100BF000C11B494502D90320BDE8F88398FAA8F142
:100C0000B1FA81F141F040014046B6EB511F01D1EC
:100C100021680BE090FAA0F1B1FA81F141F04001B6
:100C2000B0EB511F01D1216A00E0616A98FAA8F087
:100C3000B0FA80F000F01F0206FA02F00142D5D0AF
:100C4000206A696820F44070084320622878800791
:100C500005D56068A96820F44040084360602878A2
:100C6000C00605D56068E96820F48000084360602C
:100C70000020C1E700100240007000400000424226
:100C80002DE9F047DFF8708105460E46D8F80000E0
:100C900000F00700B0420CD2D8F8001021F0070194
:100CA0003143C8F80010D8F8000000F00700B04247
:100CB00077D12878514C800705D56068A96820F065
:100CC000F000084360602878C00759D069680120A7
:100CD00001290DD0022929D05FF0020393FAA3F273
:100CE000B2FA82F242F02002520904D0226803E0F4
:100CF0004FF40033F2E7626A93FAA3F3B3FA83F393
:100D000003F01F03984002424BD0606820F00300BC
:100D100008436060FFF702FE6968074641F28830C9
:100D200001290DD00229814617D025E04FF000732C
:100D3000D4E700BFFFF7F2FDC11B494501D918E018
:100D400081466068C0F381000128F3D118E000BF3C
:100D5000FFF7E4FDC11B49450BD86068C0F3810073
:100D60000228F5D10CE000BFFFF7D8FDC11B4945B3
:100D700002D90320BDE8F087606810F00C0FF3D1B2
:100D8000D8F80010404601F00701B1420BD90168C4
:100D900021F0070131430160006800F00700B04214
:100DA00001D00120E6E72878400705D56068E968AA
:100DB00020F4E060084360602878000706D560688A
:100DC000296920F4605040EAC100606000F03AF800
:100DD0006168F02292FAA2F201F0F001B2FA82F216
:100DE000D140074A515CC840064908600020FFF71F
:100DF000B5FD0020BEE700000020024000100240C8
:100E00009C1A000804000020014800687047000098
:100E10000400002008480949006849684FF46052FE
:100E200092FAA2F201F46051B2FA82F2D140044A7D
:100E3000515CC840704700000400002000100240D0
:100E4000AC1A000810B519A385B00FCB8DE80F00C0
:100E50001AA01B4B006804905A681A4802F00C0153
:100E600004291DD008291BD14FF4701494FAA4F45E
:100E700002F47011B4FA84F4E140D2031DF80110B9
:100E800010D55A684FF4003393FAA3F302F40032FA
:100E9000B3FA83F3DA4004AB9A5CB0FBF2F0484358
:100EA00005B010BD08484843FAE7000002030405F6
:100EB000060708090A0B0C0D0E0F101001020000A6
:100EC0000010024000127A0000093D002DE9F84FA1
:100ED00004460078F74DC0074FF0010625D068683A
:100EE0007704C0F38100012807D06868C0F381004F
:100EF00002281BD16868C00318D597FAA7F0B0FA8A
:100F000080F040F02000400901D0286800E0686AC5
:100F100097FAA7F1B1FA81F101F01F0106FA01F188
:100F200008425ED0606800287CD05AE06068B0F566
:100F3000803F0BD010B1B0F5A02F11D0286820F45D
:100F400080302860286820F4802002E0286840F47F
:100F500080302860606828B3FFF7E0FC80460BE033
:100F6000286840F480202860F0E700BFFFF7D6FC37
:100F7000A0EB0800642871D897FAA7F0B0FA80F0C7
:100F800040F02000400901D0286800E0686A97FA24
:100F9000A7F1B1FA81F101F01F0106FA01F108424F
:100FA000E4D01EE0FFF7BAFC804605E0FFF7B6FC90
:100FB000A0EB08006428DED897FAA7F0B0FA80F01A
:100FC00040F02000400901D0286800E0686A97FAE4
:100FD000A7F1B1FA81F101F01F0106FA01F108420F
:100FE000E4D12078DFF8D08280074FF000094FF07D
:100FF00002075BD568684FF0F80B10F00C0F07D0B4
:101000006868C0F3810002281CD16868C00319D445
:1010100097FAA7F0B0FA80F040F02000400902D023
:10102000286801E08BE0686A97FAA7F1B1FA81F1CC
:1010300001F01F0106FA01F108422CD020690128B5
:101040007DD128E0206990B396FAA6F0B0FA80F03E
:1010500048F82060FFF762FC824607E011E100BF1C
:10106000FFF75CFCA0EB0A00022884D897FAA7F0EF
:10107000B0FA80F040F02000400901D0286800E07C
:10108000686A97FAA7F1B1FA81F101F01F0106FA37
:1010900001F10842E4D028689BFAABF26169B2FA28
:1010A00082F220F0F80091400843286025E0FFE735
:1010B00096FAA6F1B1FA81F148F82190FFF72EFCDB
:1010C000824605E0FFF72AFCA0EB0A000228CCD8F4
:1010D00097FAA7F0B0FA80F040F02000400901D064
:1010E000286800E0686A97FAA7F1B1FA81F101F087
:1010F0001F0106FA01F10842E4D1207800076ED5FD
:10110000A069B8B396FAA6F0B0FA80F008EB8000B8
:10111000C0F88064FFF702FC824605E0FFF7FEFBA3
:10112000A0EB0A000228A0D897FAA7F0B0FA80F046
:1011300040F06000B6EB501F02D128680CE062E17D
:1011400097FAA7F0B0FA80F040F06000B7EB501FBC
:1011500001D1286A00E0686A97FAA7F1B1FA81F133
:1011600001F01F0106FA01F21042D7D00120FFF76B
:10117000E5FA34E0FFE796FAA6F1B1FA81F108EB5F
:101180008101C1F88094FFF7C9FB824606E000BFE9
:10119000FFF7C4FBA0EB0A00022872D897FAA7F069
:1011A000B0FA80F040F06000B6EB501F01D1286823
:1011B0000BE097FAA7F0B0FA80F040F06000B7EBD0
:1011C000501F01D1286A00E0686A97FAA7F1B1FAC6
:1011D00081F101F01F0106FA01F21042D8D1207806
:1011E000400765D5E86940F08050E861E869DFF8BC
:1011F000CCB000F080500090DBF8001041F480711A
:10120000CBF80010FFF78AFB824605E0FFF786FB6C
:10121000A0EB0A00642834D8DBF80000C005F5D53F
:10122000E06801280AD008B1052813D0286A20F008
:1012300001002862286A20F0040002E0286A40F0D9
:1012400001002862E06841F2883B90B3FFF766FB3B
:1012500082460BE0286A40F004002862EEE700BFF7
:10126000FFF75CFBA0EB0A0159450AD897FAA7F0F3
:10127000B0FA80F040F04000B6EB501F02D1286871
:101280000CE0A3E097FAA7F0B0FA80F040F040003D
:10129000B7EB501F01D1286A00E0686A97FAA7F1FE
:1012A000B1FA81F101F01F0206FA02F10842D7D02B
:1012B00031E005E0001002400000424200700040B2
:1012C000FFF72CFB824605E0FFF728FBA0EB0A01A5
:1012D00059457BD897FAA7F0B0FA80F040F040006B
:1012E000B6EB501F01D128680BE097FAA7F0B0FACF
:1012F00080F040F04000B7EB501F01D1286A00E0B9
:10130000686A97FAA7F1B1FA81F101F01F0206FAB3
:1013100002F10842D8D1E06980B36968C1F3810164
:10132000022970D04FF080714F000228484609D042
:1013300091FAA1F1B1FA81F148F82100FFF7EEFA34
:10134000044669E08A4691FAA1F1B1FA81F1C146F9
:1013500048F82100FFF7E2FA804605E0FFF7DEFAE1
:10136000A0EB0800022854D897FAA7F0B0FA80F052
:1013700040F02000400902D0286801E061E0686A7E
:1013800097FAA7F1B1FA81F101F01F0106FA01F114
:101390000842E3D1206AB0F5803F05D16868A168B2
:1013A00020F4003008436860D4E908010843696804
:1013B00021F47411084368609AFAAAF0B0FA80F038
:1013C00049F82060FFF7AAFA044606E021E000BFD2
:1013D000FFF7A4FA001B02281BD897FAA7F0B0FA6F
:1013E00080F040F02000400901D0286800E0686AE1
:1013F00097FAA7F1B1FA81F101F01F0106FA01F1A4
:101400000842E5D01DE01EE0FFF788FA001B022825
:1014100002D90320BDE8F88F97FAA7F0B0FA80F060
:1014200040F02000400901D0286800E0686A97FA7F
:10143000A7F1B1FA81F101F01F0106FA01F10842AA
:10144000E2D10020E6E70120E4E74FF0E0210428A4
:10145000086903D020F004000861704740F00400E0
:10146000FAE7704710B5401EB0F1807F01D301202C
:1014700010BD4FF0E02460610F21601700F030F8DC
:101480000020A06107202061002010BD10B5FFF7EB
:10149000E8FF10BDFEE700003EB50F480D490024EF
:1014A00001600125C0E90245446105614FF46021F6
:1014B0004460C161FEF776FF00B1FEE7CDE900456B
:1014C000694605480294FEF7B5FE002800D0FEE705
:1014D0003EBD0000002401400C000020FEE77047E4
:1014E0000907090E002806DA00F00F0000F1E020DD
:1014F00080F8141D704700F1E02080F80014704758
:101500007047704710B5FFF70FFABDE81040FFF7BE
:10151000BDBF30B593B001252804CDE900500024AB
:1015200007946846FFF7D2FC00B1FEE70F200A904F
:10153000CDE90B540D9400210AA80E94FFF7A0FBEF
:1015400000B1FEE702200F9011940FA8FFF702FBF5
:1015500000B1FEE7FFF758FC4FF47A71B0FBF1F0F1
:10156000FFF780FF0420FFF770FF00221146501E96
:10157000FFF746FA13B030BD0D48016841F0010194
:10158000016041680B4A1140416001680A4A1140FC
:101590000160016821F480210160416821F4FE01AD
:1015A00041604FF41F0181600449C0030860704727
:1015B000001002400000FFF8FFFFF6FE08ED00E01B
:1015C000FEE700000FB4084B10B504A902AA039867
:1015D00000F01CF8044602A9002000F0C1F82046E3
:1015E00010BC5DF814FB00006117000802E008C899
:1015F000121F08C1002AFAD170477047002001E08D
:1016000001C1121F002AFBD1704700002DE9FF4FD6
:1016100089B09B460446002506E025280BD05A4693
:101620000B999047641C6D1C20780028F5D10DB0F3
:101630002846BDE8F08F0027B8460122474900E060
:10164000074314F8013F203B02FA03F00842F7D1A8
:1016500020782E2819D114F8010F47F004072A2802
:101660000ED06FF02F022078A0F1300109290CD89C
:1016700008EB880102EB410100EB0108641CF2E772
:101680000A98641C50F8048B0A9020780028CED069
:10169000642808D0692806D075281ED05A460B99B0
:1016A00090476D1C58E00A994FF00A0901C90A9148
:1016B000002802DA40422D2102E0390504D52B2111
:1016C0008DF82010012103E0F90704D02021F7E76D
:1016D0008A4608AE0DE00021FAE70A994FF00A09A0
:1016E00001C90A91F7E74946FEF71CFD303106F8BB
:1016F000011D0028F7D1ADEB060000F120097807A5
:1017000001D44FF00108C84502DDA8EB090000E054
:1017100000208046002706E008A85A46C05D0B99C5
:1017200090476D1C7F1C5745F6DB04E030205A467D
:101730000B9990476D1CB8F10001A8F10108F5DC88
:1017400005E016F8010B5A460B9990476D1CB9F14C
:101750000001A9F10109F4DC641C65E70928010016
:101760000A68531C0B601070704710B5044600F0F7
:1017700081F82007000E00F07DF8BDE81040012040
:10178000FEF7DCBF10B5044600224FF48051044838
:10179000FFF7BEF82046BDE81040FFF7E6BF0000A7
:1017A000000C014029B1012905D1C030C0B2FFF7BA
:1017B000E9BF8030FAE7704710B500F0ADF82B4C68
:1017C00000224FF480512046FFF7A2F80022611456
:1017D0002046FFF79DF800224FF480412046FFF796
:1017E00097F8234C002210212046FFF791F80022A1
:1017F00020212046FFF78CF8002240212046FFF7E9
:1018000087F8002280212046FFF782F80F20FEF79C
:1018100095FF302000F02EF80520FEF78FFF3020D6
:1018200000F028F80120FEF789FF302000F022F8B0
:101830000120FEF783FF202000F01CF86420FEF753
:101840007DFF2820FFF79EFF0C20FFF79BFF06205F
:10185000FFF798FF0120FFF795FF0220FFF792FFA7
:10186000BDE810406420FEF769BF0000000C014095
:101870000008014070B5264E044600224FF4005186
:101880003046FFF745F8234D002210212846FFF788
:101890003FF82009C00704D0012210212846FFF795
:1018A00037F8002220212846FFF732F86009C007E8
:1018B00004D0012220212846FFF72AF800224021E7
:1018C0002846FFF725F8A009C00704D001224021CF
:1018D0002846FFF71DF8002280212846FFF718F858
:1018E000E00904D0012280212846FFF711F80122E7
:1018F000940321463046FFF70BF80120FEF71EFF48
:1019000021463046BDE870400022FFF701B80000D4
:10191000000C0140000801407FB54FF480500124C5
:10192000CDE900041C4E0325694603953046FEF7B9
:1019300011FF6003CDE90004694603953046FEF7C8
:1019400009FFA003CDE90004694603953046FEF780
:1019500001FF1020CDE90004104E69460395304682
:10196000FEF7F8FE2020CDE90004694603953046D5
:10197000FEF7F0FE4020CDE90004694603953046AD
:10198000FEF7E8FE8020CDE9000469460395304665
:10199000FEF7E0FE7FBD0000000C014000080140A2
:1019A00010B50446012211030348FEF7B1FF20469B
:1019B000BDE81040FFF7D9BE000C014010B5044649
:1019C00003E000BFFFF7ECFF641C20780028F9D18A
:1019D00010BD000008B5FEF7AFFFFFF79AFD2848DD
:1019E000816941F020018161816901F0200100914C
:1019F000816941F004018161816901F00401009174
:101A0000816941F008018161816901F0080100915B
:101A1000816941F010018161806900F0100000903F
:101A2000FFF73AFDFFF7C8FE00210520FFF7BAFED9
:101A300014A0FFF7C3FF154C4FF47A751448FEF756
:101A400003FE29461248FEF767FDA0B91048FEF7CD
:101A5000A5FC206001210846FFF7A4FE22680C487F
:101A60000CA13030FFF7AEFD09483030FFF7A6FF7C
:101A70006420FEF763FE0648FEF746FEDEE7000040
:101A800000100240446F2041444300000800002041
:101A90000C00002025642020200000000000000031
:101AA000000000000102030406070809000000000E
:101AB00001020304D41A0008000000200C000000FA
:101AC000EC150008E01A00080C0000204404000097
:101AD000FC1500080000000000A24A0400000000FD
:04000005080000ED02
:00000001FF
