:020000040800F2
:100000002805002001010008AB150008FF0E0008BC
:10001000A9150008EB010008811600080000000087
:10002000000000000000000000000000CF150008E4
:10003000ED01000800000000CD150008D1150008F2
:100040001B0100081B0100081B0100081B01000820
:100050001B0100081B0100081B0100081B01000810
:100060001B0100081B0100081B0100081B01000800
:100070001B0100081B0100081B0100081B010008F0
:100080001B0100081B0100081B0100081B010008E0
:100090001B0100081B0100081B0100081B010008D0
:1000A0001B0100081B0100081B0100081B010008C0
:1000B0001B0100081B0100081B0100081B010008B0
:1000C0001B0100081B0100081B0100081B010008A0
:1000D0001B0100081B0100081B0100081B01000890
:1000E0001B0100081B0100081B010008DFF80CD0F1
:1000F00000F05AF800480047651B0008280500205A
:100100000648804706480047FEE7FEE7FEE7FEE7B1
:10011000FEE7FEE7FEE7FEE7FEE7FEE7391600082A
:10012000ED000008202A04DB203A21FA02F0002129
:10013000704721FA02F3D040C2F1200291400843F7
:10014000194670472DE9F05F0546002092469B4610
:1001500088460646814640241BE0284641464746DD
:100160002246FFF7DFFF53465A46C01A914110D38B
:1001700011461846224600F029F82D1A67EB0108AF
:100180004F4622460120002100F020F817EB00091D
:100190004E41201EA4F10104DFDC484631462A46C8
:1001A0004346BDE8F09F0000064C074D06E0E068BE
:1001B00040F0010394E8070098471034AC42F6D3AE
:1001C000FFF798FFB81F0008D81F0008202A04DB9B
:1001D000203A00FA02F1002070479140C2F120035A
:1001E00020FA03F3194390407047FEE7704731B59A
:1001F00000F0F0F8009C0546601C00D0641C00F084
:10020000E9F8401BA042FAD338BD00002DE9F84FB1
:10021000DFF890A100220AF1040B144601274FF0E9
:100220000F090BF1040E00BF0B6807FA04F52B4011
:10023000AB4274D1DFF870C14E68A6EB0C0866457E
:100240002BD00DDC032E34D005DC36B3012E19D0B3
:10025000022E2FD11BE0112E16D0122E2AD119E01A
:10026000B8F5881F19D006DCB8F5803F15D0B8F571
:10027000801F1FD111E0B8F5001F0ED0B8F5041F84
:1002800018D10AE0CA6815E0CA68121D12E0CA68EF
:1002900008320FE0CA680C320CE08A682AB1012AE1
:1002A0004FF0080203D0456104E0042202E005613A
:1002B00000E00022FF2B01D8064601E000F1040611
:1002C0004FEA840501D9A5F12005D6F800C009FA46
:1002D00005F82CEA080C02FA05F54CEA050CC6F8FC
:1002E00000C04D68ED0057D5304DAE6946F00106AF
:1002F000AE61AD6924F0030605F0010500952C4DB3
:1003000006EB050CDCF80850A6074FEA167809FA48
:1003100008F6B543274EB04202D1002610E03BE07C
:10032000254EB04201D101260AE0244EB04201D14F
:10033000022605E0224EB04201D1032600E0042649
:1003400006FA08F62E43CCF808604D68DAF800602B
:10035000ED03554601D51E4300E09E432E604D68D7
:10036000DBF80060AD035D4601D51E4300E09E430F
:100370002E604D68DEF80060ED02754601D51E4323
:1003800000E09E432E604D68AD020E4D2E6801D5F3
:100390001E4300E09E432E60641C102CFFF444AF0B
:1003A000BDE8F88F00040140000011100010024069
:1003B0000000014000080140000C01400010014015
:1003C000001401400C0401400AB1016170470904A6
:1003D000FBE7000001480068704700000C000020A7
:1003E00070B5040004D094F83D00002510B106E07B
:1003F000012070BD84F83C50204600F017FA2420FC
:1004000084F83D002068016821F00101016000F0DE
:1004100089FB32492268B0FBF1F15160304A6368D0
:10042000934206D94FF4967359434FF47A73B1FB54
:10043000F3F12368491C19626168914208D84900A8
:10044000B0FBF1F0C0F30B01042919D2042017E02E
:10045000A368A3B301EBC10202EB0112B0FBF2F2FD
:1004600042F48042120531D053B301EBC10202EBDA
:100470000111B0FBF1F040F4804000BF40F40040B7
:100480002168C861D4E90701084321680860D4E9FC
:100490000310084321688860D4E9050108432168F6
:1004A000C8602068016841F00101016025642020D6
:1004B00084F83D00256384F83E50002070BD00E0C4
:1004C00006E001EB4102B0FBF2F2CBE70120D7E7F7
:1004D00001EB4101B0FBF1F0D0E7000040420F001A
:1004E000A08601002DE9F84F1F4690468A46044633
:1004F000DDF82890FFF76EFF054694F83D002028B0
:100500007ED11923012278492046009500F0EDFDA7
:100510000028F5D194F83C00012871D0012084F81E
:100520003C0020680168C90703D1016841F001015E
:1005300001602068016821F400610160222084F8D4
:100540003D00102084F83E0000262664C4F8248074
:1005500067856648E062608D20852B464A46514695
:10056000204600F0E1FC28B1206C84F83C600428AF
:1005700050D073E0208D5E4F68B1012814D002285E
:10058000206801681ED041F48061016020684169E3
:10059000806900909AE02068416981690091016852
:1005A00041F40071016091E02068016821F48061EC
:1005B000016072B62068416981690091016841F467
:1005C00000710AE041F40061016072B6206841697F
:1005D00081690091016821F48061016062B675E073
:1005E000032850D801280CD002284B464FF00002B7
:1005F00039462046009512D000F077FD70BB13E01D
:1006000070E02A464946204600F0E4FD28B1206CFF
:10061000202823D00120BDE8F88F20684BE000F0AF
:1006200064FDD8B972B61BE02068016821F48061CE
:10063000016072B620680169606A421C62620170E2
:10064000208D401E2085608D401E60854B46002217
:1006500039462046009500F048FD08B10320DAE74E
:100660002068016841F40071016020680169606AD6
:10067000421C62620170208D401E2085608D401EEC
:10068000608562B6C9E72A464946204600F0A2FDC9
:100690000028BCD120680169606A421C6262017056
:1006A000208D401E2085608D401E60852068416938
:1006B000C94349070AD40169606A421C6262017039
:1006C000208D401E2085608D401E6085208D002875
:1006D00086D1202084F83D0084F83E6084F83C6098
:1006E000002098E7022096E7020010000000FFFFBC
:1006F000040001002DE9F84F1F4690468A46044643
:10070000DDF82890FFF766FE064694F83D002028A5
:100710007ED11923012243492046009600F0E5FCD2
:1007200000287DD194F83C00012879D0012084F87C
:100730003C0020680168C90703D1016841F001014C
:1007400001602068016821F400610160212084F8C3
:100750003D00102084F83E0000252564C4F8248064
:1007600067853148E062608D208533464A465146B0
:10077000204600F049FC28B1206C84F83C50042845
:100780004CD00DE0206841698069009030E032462D
:100790004946204600F04FFD28B1206C042838D08F
:1007A0000320BDE8F88F606A411C6162216800780F
:1007B0000861608D401E6085208D401E80B22085BE
:1007C00021684A69D24352070BD450B1606A421C77
:1007D000626200780861608D401E6085208D401E39
:1007E000208532464946204600F058FC0028D4D1E6
:1007F000208D0028CBD154F83D0B016841F40071E5
:100800000160202004F81E09E57765770020C8E71D
:1008100006E02068016841F4007101600120C0E732
:100820000220BEE7020010000000FFFF00B50068D4
:100830000F4985B0884218D14FF4407000901220C3
:1008400001900320039069460A48FFF7DFFC0A483D
:10085000416841F0020141600848C16941F400115A
:10086000C161C06900F40010049005B000BD000033
:1008700000540040000C0140000001400010024004
:1008800002480168491C0160704700000C0000200C
:10089000074810B5016841F010010160032000F025
:1008A0007FF8002000F006F800F018F8002010BDD6
:1008B0000020024010B5044607484FF47A710068E2
:1008C000B0FBF1F000F003FB00222146501E00F0C7
:1008D00047F8002010BD0000080000201E4808B5A1
:1008E000816941F001018161806900F0010000909F
:1008F000032000F055F8002211466FF00B0000F0C5
:100900002FF8002211466FF00A0000F029F80022AB
:1009100011466FF0090000F023F800221146501F25
:1009200000F01EF800221146101F00F019F80022F6
:100930001146901E00F014F800221146501E00F0DF
:100940000FF80648416821F0E0614160416841F0DC
:100950000071416008BD000000100240000001402D
:10096000F0B40E4B1B680C46C3F30223C3F107051A
:10097000042D00D90425191D072901D2002300E008
:10098000DB1E012606FA05F1491E214099409E40D2
:10099000761E16403143F0BC00F008BE0CED00E0BE
:1009A000064900F0070208684FF6FF03184040EAC6
:1009B0000220034A10430860704700000CED00E07D
:1009C0000000FA052DE9F047DFF83C8105460E46A8
:1009D000D8F8000000F00700B0420CD2D8F80010A0
:1009E00021F007013143C8F80010D8F8000000F0EA
:1009F0000700B04263D12878444C800705D5606871
:100A0000A96820F0F000084360602878C00745D04E
:100A10006868012816D02168022816D089070029A5
:100A20004DDA616821F0030101436160FFF7D2FCF8
:100A30006968074641F2883001290FD002298146B2
:100A400019D027E021688903E9E78901E7E700BFBA
:100A5000FFF7C0FCC11B494501D918E08146606819
:100A6000C0F381000128F3D118E000BFFFF7B2FC0A
:100A7000C11B49450BD86068C0F381000228F5D13D
:100A80000CE000BFFFF7A6FCC11B494502D90320BB
:100A9000BDE8F087606810F00C0FF3D1D8F80010B3
:100AA000404601F00701B1420BD9016821F007016E
:100AB00031430160006800F00700B04201D001201E
:100AC000E6E72878400705D56068E96820F4E0602B
:100AD000084360602878000706D56068296920F41B
:100AE000605040EAC100606000F02CF86168084A7C
:100AF000C1F30311515CC840064908600020FFF7AC
:100B0000D9FE0020C4E7000000200240001002408F
:100B1000A01F00080800002001480068704700007E
:100B2000080000200448054900684968044AC1F3E8
:100B30000221515CC84070470800002000100240AC
:100B4000B01F000810B512A385B00FCB8DE80F00C1
:100B500013A0144B006804905A68134802F00C016B
:100B600004290FD008290DD1C2F38344D2031DF804
:100B7000041009D55A6804ABC2F340429A5CB0FB3A
:100B8000F2F0484305B010BD08484843FAE70000BA
:100B900002030405060708090A0B0C0D0E0F1010BE
:100BA000010200000010024000127A0000093D001E
:100BB0002DE9F84F04460078B94DC00748D0686861
:100BC000C0F38100012807D06868C0F381000228C3
:100BD00009D16868C00306D52868800338D56068E5
:100BE00000286FD034E06068B0F5803F0BD010B1C2
:100BF000B0F5A02F11D0286820F480302860286834
:100C000020F4802002E0286840F48030286060688A
:100C100088B1FFF7DFFB064609E0286840F4802032
:100C20002860F0E7FFF7D6FB801B642875D828689A
:100C30008003F7D50CE0FFF7CDFB064605E000BFCB
:100C4000FFF7C8FB801B6428F0D828688003F7D41E
:100C50002078944E80074FF001094FF000083BD5F3
:100C6000686810F00C0F07D06868C0F38100022894
:100C700009D16868C00306D42868800714D52069A4
:100C800001281FD110E02069B0B1C6F80090FFF72D
:100C9000A1FB074605E000BFFFF79CFBC01B022835
:100CA000C4D828688007F7D52868616920F0F80063
:100CB00040EAC10028600FE0C6F80080FFF78AFB19
:100CC000074606E0E9E000BFFFF784FBC01B0228EF
:100CD00023D828688007F7D4207800072CD57248DD
:100CE000A169D9B1C0F80090FFF774FB074604E092
:100CF000FFF770FBC01B02280FD8686A8007F7D582
:100D00006A484FF4FA510068B0FBF1F0009000BF60
:100D10000098411E0091FAD20EE080E0C0F80080F9
:100D2000FFF758FB074604E0FFF754FBC01B0228FF
:100D300075D8686A8007F7D42078400760D5E869DD
:100D40000027C00008D4E86940F08050E861E869F5
:100D5000012700F08050009055480168C90513D460
:100D60000168834641F480710160FFF733FB8246DE
:100D700006E000BFFFF72EFBA0EB0A0064284ED868
:100D8000DBF80000C005F5D5E06801280AD008B1FD
:100D9000052813D0286A20F001002862286A20F074
:100DA000040002E0286A40F001002862E06841F295
:100DB000883B98B1FFF70EFB82460BE0286A40F0B3
:100DC00004002862EEE700BFFFF704FBA0EB0A0176
:100DD00059455AD8286A8007F6D50CE0FFF7FAFA89
:100DE000824605E0FFF7F6FAA0EB0A0159454CD818
:100DF000286A8007F6D41FB1E86920F08050E861C6
:100E0000E06988B36968C1F38101022945D00228ED
:100E1000C6F8608004D0FFF7DDFA044638E034E01D
:100E2000FFF7D8FA074604E0FFF7D4FAC01B022800
:100E30002BD828688001F7D4206AB0F5803F05D10F
:100E40006868A16820F4003008436860D4E90801AC
:100E50000843696821F4741108436860C6F860901B
:100E6000FFF7B8FA044606E015E000BFFFF7B2FA54
:100E7000001B022809D828688001F7D50BE000BFC5
:100E8000FFF7A8FA001B022802D90320BDE8F88F5B
:100E900028688001F4D40020F8E70120F6E700007C
:100EA000001002400000424280044242080000203C
:100EB000007000404FF0E0210428086903D020F0C2
:100EC00004000861704740F00400FAE7704710B56D
:100ED000401EB0F1807F01D3012010BD4FF0E0240F
:100EE00060610F21601700F061FB0020A061072006
:100EF0002061002010BD10B5FFF7E8FF10BDFEE730
:100F000001684A69D24352050CD46FF480624A6189
:100F100004210164002140F8301F20224273017334
:100F200001207047002070472DE9F84F0446C06A41
:100F30001E4692460D4621680A6842F480620A60A5
:100F4000042807D0012805D010F5803F02D0206B7F
:100F5000112804D12068016841F4807101604FF0CC
:100F600001185346002241462046009600F0BDF885
:100F7000B8BB206908F10109B0F5804F12D00620F6
:100F8000216800EAD51747F0F00008613346524661
:100F900008F10701204600F0D9F838B1206C042888
:100FA0002FD01EE0E8B240F001001FE02168E8B257
:100FB0000861334652464946204600F0C7F80028EB
:100FC000ECD12068416981690091016841F4807128
:100FD00001605346002241462046009600F085F805
:100FE00010B10320BDE8F88F47F0F10021680861D7
:100FF000334652464946204600F0A8F80028CDD195
:10100000F0E70120EEE70000F8B50446C06A1E468E
:101010000D461746042807D0012805D010F5803F5B
:1010200002D0206B122804D12068016841F480713D
:101030000160134600224FF001112046009600F097
:1010400054F8A0B92069B0F5804F12D0062021686D
:1010500000EAD51040F0F000086133463A460E49E8
:10106000204600F073F838B1206C042811D003201A
:10107000F8BD05F0FE0000E0E8B22168086106490D
:1010800033463A46891F204600F060F80028EBD12D
:10109000F8BD0120F8BD00000800010070B516463B
:1010A0000D4604461AE02046FFF72AFF08B101204A
:1010B00070BD681C12D025B1FFF78CF9801BA842C7
:1010C0000CD954F8400F40F0200044F810090020DB
:1010D0002060202161732073032070BD2068406967
:1010E000C0434007DFD4002070BD2DE9F0471E4605
:1010F00090460D460446C1F30747DDF8209012E004
:10110000701C10D02EB1FFF765F9A0EB0900B042BA
:1011100009D9002044F8300F20216173A073207397
:101120000320BDE8F0872068012F0AD0806925EAF6
:1011300000000004000C06D000214145E0D0002052
:10114000EFE74069F3E70121F7E700002DE9F047F9
:101150009A4691460D46044600264FF02008C1F3FA
:1011600007472AE020684069C043400512D4206840
:10117000016841F40071016021686FF4806048618A
:1011800004202064266384F83D8084F83C600120BC
:10119000BDE8F087B9F1FF3F0FD0B9F1000F05D0DE
:1011A000FFF718F9A0EB0A01494506D944F8306F5A
:1011B00084F80D8026730320EAE72068012F07D00A
:1011C000D0F8180025EA00000004000CE0D0C9E7C0
:1011D0004069F7E72DE9F041002590460E460446A8
:1011E000202721E04069C043C0060CD421686FF07D
:1011F000100048612564256384F83D7084F83C50F4
:101200000120BDE8F0812EB1FFF7E4F8A0EB080063
:10121000B04209D954F8400F40F0200044F80409C6
:10122000677025700320ECE720684169C9434906CF
:10123000D8D40020E5E770B516460D4604461AE0FE
:101240002046FFF75DFE08B1012070BD681C12D07A
:1012500025B1FFF7BFF8801BA8420CD954F8400F06
:1012600040F0200044F81009002020602021617324
:101270002073032070BD20684069C0430006DFD49E
:10128000002070BD70B505460021012000F07EF8F9
:101290000949002405EB85004518281910F8A01C01
:1012A000012000F073F8641C052CF6D3BDE87040F3
:1012B0000021012000F06AB8C01D000870B50024AC
:1012C0004FF4FC750021012000F060F8641CAC4272
:1012D000F8D3BDE870400021084600F032BC0000A1
:1012E0002DE9F04190460C46054600F06FF80122CA
:1012F000204F960231463846FFF766F80122D102A8
:101300003846FFF761F8012211033846FFF75CF811
:10131000012291033846FFF757F80122510338465E
:10132000FFF752F8002231463846FFF74DF8012208
:1013300031463846FFF748F82121002000F026F812
:101340008035E9B2002000F021F8241DE1B2002030
:1013500000F01CF808F11000C1B2002000F016F8EF
:101360002021002000F012F8BDE8F0410C210020FF
:1013700000F00CB8000C014010B5044602E0641CFB
:10138000FFF780FF20780028F9D110BD70B50D4619
:101390000D4C4FF4805108B1012200E0002220469C
:1013A000FFF712F84FF40066002231462046FFF79F
:1013B0000BF8284600F0D4FC31462046BDE87040CA
:1013C0000122FFF701B80000000C01402DE9F04FA9
:1013D000454885B0816941F0080181618069DFF885
:1013E0000CB100F008004FF4806404900022214604
:1013F0005846FEF7E9FF6700002239465846FEF7D7
:10140000E3FF4FF48058002241465846FEF7DCFFC8
:101410004FF40059002249465846FEF7D5FF4FF4D5
:10142000804A002251465846FEF7CEFF0022402156
:101430002F48FEF7C9FF6601002231465846FEF7E5
:10144000C3FF002202215846FEF7BEFF009403248A
:1014500001256946584601950394FEF7D7FECDE96C
:101460000075694658460394FEF7D0FECDE9008525
:10147000694658460394FEF7C9FECDE900956946D2
:1014800058460394FEF7C2FECDE900A569465846CA
:101490000394FEF7BBFE4020CDE9000569460394A6
:1014A0001348FEF7B3FECDE900656946584603943C
:1014B000FEF7ACFE0220CDE90005694603945846CC
:1014C000FEF7A4FE012240210948FEF77DFF00221D
:1014D00002215846FEF778FF012231465846FEF7B2
:1014E00073FF05B0BDE8F08F00100240000C014012
:1014F0000008014030B51B4885B0816941F02001EA
:101500008161816901F020010491816941F0040148
:101510008161816901F004010491816941F0080150
:1015200081618069104D00F008004FF47C44049004
:10153000002221462846FEF747FF0021F020CDE992
:101540000001029169460948FEF760FE0120CDE9DD
:1015500000400220039069462846FEF757FE05B07A
:1015600030BD000000100240000C014000080140A6
:101570000B4810B5094901600A49416000214FF448
:1015800080428160C0E9031241618161C1610162F1
:10159000FEF726FF002800D0FEE710BD00540040F3
:1015A00010000020A0860100FEE770470907090E21
:1015B000002806DA00F00F0000F1E02080F8141D8A
:1015C000704700F1E02080F80014704770477047C2
:1015D00010B5FFF755F9BDE81040FFF78CBC10B50A
:1015E00090B002200090012004901020002405906B
:1015F00007946846FFF7DCFA00B1FEE70F20CDE95B
:101600000A040C940D9400210AA80E94FFF7DAF94D
:1016100000B1FEE7FFF780FA4FF47A71B0FBF1F00A
:10162000FFF755FC0420FFF745FC00221146501E31
:10163000FFF796F910B010BD0D48016841F00101A7
:10164000016041680B4A1140416001680A4A11403B
:101650000160016821F480210160416821F4FE01EC
:1016600041604FF41F0181600449C0030860704766
:10167000001002400000FFF8FFFFF6FE08ED00E05A
:10168000FEE700000FB4084B10B504A902AA0398A6
:1016900000F01CF8044602A9002000F044FA20469D
:1016A00010BC5DF814FB0000271B000802E008C80E
:1016B000121F08C1002AFAD170477047002001E0CC
:1016C00001C1121F002AFBD1704700002DE9FF4F16
:1016D0008DB00F460546002606E025280BD0DDE933
:1016E0000F1290476D1C761C28780028F5D111B098
:1016F0003046BDE8F08F0024A246A1460122EA4907
:1017000000E0044315F8013F203B02FA03F00842D1
:10171000F7D128782A2810D06FF02F022878A0F16E
:101720003001092914D80AEB8A0102EB410144F087
:10173000020400EB010A6D1CF0E701CF5FEA000A2A
:1017400003D544F40054CAF1000A44F002046D1CAD
:1017500028782E2817D115F8010F44F004042A2800
:101760000ED06FF02F022878A0F1300109290AD895
:1017700009EB890102EB410100EB01096D1CF2E765
:1017800057F8049B6D1C28786C280FD006DC4C2879
:1017900017D068280DD06A2814D104E0742810D01E
:1017A0007A280FD10DE044F400140AE044F48014C8
:1017B00001E044F440146978814202D104F58014B8
:1017C0006D1C6D1C2A786E2A1FD00CDC632A31D068
:1017D00004DC002A8BD0582A11D19FE0642A68D0FB
:1017E000692A0CD165E0732A2ED004DC6F2A73D0ED
:1017F000702A04D197E0752A6FD0782A6ED01046EF
:10180000DDE90F129047761C4CE1C4F30250022828
:1018100006D0032809D0042801CF09D0066041E191
:1018200001CFF117C0E900613CE101CF068039E149
:10183000067037E117F8040B8DF8000000208DF8D2
:101840000100EB46012003E057F804BB4FF0FF30E6
:1018500061074FF0000102D40DE008F10101884654
:1018600049450FDA8045F8DB1BF808100029F4D150
:1018700008E008F1010188468142FADB1BF80810F4
:101880000029F6D1DDE90F23AAEB080081462146A5
:1018900000F032F9304400EB080604E0DDE90F12F5
:1018A0001BF8010B9047B8F10108F7D221464846D2
:1018B000F3E00A21C4F302534FF0000B0891022B0E
:1018C00004D001CFC117032B09D00AE0FF1D27F078
:1018D0000707F7E8020108E02EE01DE01EE000B275
:1018E000C117042B01D140B2C117002907DA4FF00C
:1018F000000CD0EB0C006CEB01012D2302E0230562
:1019000004D52B238DF82430012303E0E30701D015
:101910002023F7E7984656E00A210EE010204FF00A
:10192000000B08900CE010214FF0000B44F0040471
:101930004FF00809089103E008214FF0000B0891CF
:10194000C4F30253022B04D001CF0021032B06D095
:1019500006E0FF1D27F00707F7E8020103E080B269
:10196000042B00D1C0B24FF0000823072BD5702AFA
:1019700007D0DDF820C08CF0100C5CEA0B0C05D011
:101980000EE040238DF82430012308E050EA0103E3
:1019900006D030238DF824308DF825200223984678
:1019A000DDF820C08CF0080C5CEA0B0C0BD150EA7F
:1019B000010301D1630706D530238DF824304FF0A1
:1019C0000108A9F10109582A04D038A20B9208AAEB
:1019D0000A920BE03AA2F9E75B46089AFEF7B2FBDF
:1019E0000B9B9B5C0A9A521E0A92137050EA0102EA
:1019F000F2D10A98ADEB000000F1200B600702D590
:101A000024F4803401E04FF00109D94502DDA9EB4F
:101A10000B0000E0002000EB0B0141440890AAEB12
:101A2000010AE00306D4DDE90F232146504600F009
:101A300063F806444FF0000908E009A911F809000D
:101A4000DDE90F12904709F10109761CC145F4DB6D
:101A5000E0030CD5DDE90F232146504600F04CF899
:101A6000064404E0DDE90F1230209047761C089907
:101A7000481E08900029F5DC08E00A980A990078C9
:101A8000491C0A91DDE90F129047761CBBF1000159
:101A9000ABF1010BF1DC21465046DDE90F2300F0EC
:101AA00019F806446D1C1FE6092801003031323355
:101AB000343536373839616263646566000000008A
:101AC0003031323334353637383941424344454674
:101AD000000000002DE9F041044600251E4617468F
:101AE000880404D405E039462020B0476D1C641EEC
:101AF000F9D52846BDE8F0812DE9F04104460025DE
:101B00001E469046C80301D5302700E020278804F0
:101B100004D505E041463846B0476D1C641EF9D532
:101B20002846BDE8F0810A68531C0B6010707047AE
:101B3000010900F00F0001EB810100EB4100C0B290
:101B4000704710B50C46C0B240F080010020FFF78E
:101B50001DFCE0B240F04001BDE810400020FFF75E
:101B600015BC0000FEF794FEFFF739FDFFF7C2FC3D
:101B7000FFF7FEFC012200213020FFF7B1FB0A2015
:101B8000FEF735FB0122D1033A48FEF71DFCFFF7B3
:101B900095FB394C4FF4967500210846FFF7D1FFAD
:101BA000354A921C511E481E00F0ACF8324B9B1D6A
:101BB0005A1E511E481E00F06FF801210020FFF749
:101BC000C0FF2279092A01D82CA100E02CA12D48C0
:101BD000FFF758FD2B48FFF7CFFB2BA0FFF7CCFBFF
:101BE0006279092A01D825A100E025A12548FFF73F
:101BF00049FD2448FFF7C0FB23A0FFF7BDFBA279F6
:101C000022A12048FFF73EFD1E48FFF7B5FB022149
:101C10000020FFF796FF2278092A01D817A100E0DB
:101C200017A11848FFF72EFD1648FFF7A5FB19A0CE
:101C3000FFF7A2FB6278092A01D810A100E010A1E9
:101C40001048FFF71FFD0F48FFF796FB11A0FFF7A5
:101C500093FBA278092A01D808A100E008A109484D
:101C6000FFF710FD0748FFF787FB2846FEF7BFFA8E
:101C700092E70000000C01400000002030256400C5
:101C800025640000640000202F000000323025642D
:101C9000000000003A0000002DE9F8430D46174906
:101CA0000646032008701446984664270A46012316
:101CB000D02113480097FEF71DFD104A042340323F
:101CC000D1210F480097FEF70DFC0C4B40331878DC
:101CD000FFF72EFF30705878FFF72AFF28709878AA
:101CE000FFF726FF2070D878FFF722FF88F8000062
:101CF000BDE8F8436420FEF77ABA0000A400002093
:101D000010000020F8B50D46134906460020087063
:101D1000144664270A460123D02110480097FEF795
:101D2000E9FC0D4A03234032D1210C480097FEF70D
:101D3000D9FB094B40331878FFF7FAFE207058782A
:101D4000FFF7F6FE28709878FFF7F2FE3070BDE8D6
:101D5000F8406420FEF74BBAA400002010000020D9
:101D60002DE9F047154E05464FF4804800224146C4
:101D70003046FEF729FB0122570339463046FEF76D
:101D800023FBB94608244746280601D5012200E076
:101D9000002249463046FEF717FB012239463046FD
:101DA000FEF712FB002239463046FEF70DFB6806AF
:101DB000050E641EE8D1BDE8F0870000000C01406C
:101DC000000000000000005F000000070007001492
:101DD0007F147F14242A7F2A122313086462364951
:101DE0005522500005030000001C22410000412242
:101DF0001C0014083E081408083E08080050300073
:101E000000080808080800606000002010080402AC
:101E10003E5149453E00427F4000426151494621C2
:101E200041454B311814127F1027454545393C4A2E
:101E3000494930017109050336494949360649497E
:101E4000291E0036360000005636000008142241D4
:101E5000001414141414004122140802015109063C
:101E6000324979413E7E1111117E7F494949363E02
:101E7000414141227F4141221C7F494949417F091B
:101E80000909013E4149497A7F0808087F00417FDE
:101E900041002040413F017F081422417F404040E3
:101EA000407F020C027F7F0408107F3E4141413E8B
:101EB0007F090909063E4151215E7F0919294646DD
:101EC0004949493101017F01013F4040403F1F2006
:101ED00040201F3F4038403F6314081463070870D8
:101EE00008076151494543007F4141000204081041
:101EF000200041417F000402010204404040404074
:101F0000000102040020545454787F484444383877
:101F100044444420384444487F3854545418087E7C
:101F20000901020C5252523E7F0804047800447D9D
:101F300040002040443D007F1028440000417F4085
:101F4000007C041804787C0804047838444444383D
:101F50007C14141408081414187C7C080404084821
:101F600054545420043F4440203C4040207C1C20DA
:101F700040201C3C4030403C44281028440C505029
:101F8000503C4464544C44000836410000007F003B
:101F900000004136080010080810087846414678CD
:101FA0000000000000000000010203040607080909
:101FB0000000000001020304D81F000800000020F8
:101FC00010000000AC160008E81F000810000020F8
:101FD00018050000BC16000800000000000000000A
:081FE00000A24A040000000009
:04000005080000ED02
:00000001FF
