:020000040800F2
:100000001005002001010008A3140008D510000805
:10001000A114000875010008751500080000000013
:10002000000000000000000000000000C7140008ED
:100030007701000800000000C5140008C91400087A
:100040001B0100081B0100081B0100081B01000820
:100050001B0100081B0100081B0100081B01000810
:100060001B0100081B0100081B0100081B01000800
:100070001B0100081B0100081B0100081B010008F0
:100080001B0100081B0100081B0100081B010008E0
:100090001B0100081B0100081B0100081B010008D0
:1000A0001B0100081B0100081B0100081B010008C0
:1000B0001B0100081B0100081B0100081B010008B0
:1000C0001B0100081B0100081B0100081B010008A0
:1000D0001B0100081B0100081B0100081B01000890
:1000E0001B0100081B0100081B010008DFF80CD0F1
:1000F00000F02EF800480047AD1900081005002058
:100100000648804706480047FEE7FEE7FEE7FEE7B1
:10011000FEE7FEE7FEE7FEE7FEE7FEE72D15000837
:10012000ED00000830B50B460146002020220124D6
:1001300009E021FA02F59D4205D303FA02F5491BB5
:1001400004FA02F52844151EA2F10102F1DC30BDCB
:10015000064C074D06E0E06840F0010394E8070014
:1001600098471034AC42F6D3FFF7C4FFF41B0008E5
:10017000141C0008FEE7704731B500F0EDF80446A6
:1001800000F0EAF80099001B8842F9D338BD00005E
:100190002DE9F84FDFF890A100220AF1040B144674
:1001A00001274FF00F090BF1040E00BF0B6807FA8F
:1001B00004F52B40AB4274D1DFF870C14E68A6EB5A
:1001C0000C0866452BD00DDC032E34D005DC36B38D
:1001D000012E19D0022E2FD11BE0112E16D0122E77
:1001E0002AD119E0B8F5881F19D006DCB8F5803F90
:1001F00015D0B8F5801F1FD111E0B8F5001F0ED043
:10020000B8F5041F18D10AE0CA6815E0CA68121DC3
:1002100012E0CA6808320FE0CA680C320CE08A6843
:100220002AB1012A4FF0080203D0456104E00422FC
:1002300002E0056100E00022FF2B01D8064601E044
:1002400000F104064FEA840501D9A5F12005D6F88E
:1002500000C009FA05F82CEA080C02FA05F54CEA88
:10026000050CC6F800C04D68ED0057D5304DAE699D
:1002700046F00106AE61AD6924F0030605F0010504
:1002800000952C4D06EB050CDCF80850A6074FEA4C
:10029000167809FA08F6B543274EB04202D1002677
:1002A00010E03BE0254EB04201D101260AE0244E89
:1002B000B04201D1022605E0224EB04201D1032610
:1002C00000E0042606FA08F62E43CCF808604D68D4
:1002D000DAF80060ED03554601D51E4300E09E4369
:1002E0002E604D68DBF80060AD035D4601D51E430E
:1002F00000E09E432E604D68DEF80060ED0275461A
:1003000001D51E4300E09E432E604D68AD020E4DA8
:100310002E6801D51E4300E09E432E60641C102C05
:10032000FFF444AFBDE8F88F000401400000111055
:10033000001002400000014000080140000C014094
:1003400000100140001401400C0401400AB1016199
:1003500070470904FBE7000001480068704700008F
:100360000000002070B5040004D094F8350000258A
:1003700010B106E0012070BD84F83450204600F032
:10038000DFF9242084F835002068016821F001019C
:10039000016000F05FFB014628482268B1FBF0F0E5
:1003A0005060274A6368934206D94FF496735843C6
:1003B0004FF47A73B0FBF3F02368401C1862606856
:1003C000904208D84000B1FBF0F0C0F30B010429C3
:1003D00016D2042014E0A26852B100EBC00202EB76
:1003E0000010B1FBF0F040F44040010507D007E0F9
:1003F00000EB4000B1FBF0F040F40040F5E70120D5
:100400002168C861D4E90701084321680860D4E97C
:100410000310084321688860D4E905010843216876
:10042000C8602068016841F001010160A5632020D7
:1004300084F8350084F83650002070BD40420F002B
:10044000A08601002DE9F843044690F83500DDF858
:1004500020901E4615468846202878D1002D5ED073
:10046000002E5CD042F2107301226849204600F051
:10047000DFFE0028F1D194F83400012867D0012074
:1004800084F834002068016821F4006101602220B2
:1004900084F83500102084F836000027A7634A4608
:1004A0004146204600F02CFE28B1A06B84F8347041
:1004B000042834D072E0012E1AD02068DFF8508171
:1004C000022E01682ED041F48061016020684169EC
:1004D00080690090032E74D8012E18D0022E2ED0E1
:1004E0004B4600224146204600F0A2FE80BB42E07F
:1004F0002068016821F48061016072B6206841695A
:1005000081690091016841F40071016062B6494659
:10051000204600F016FFE0B1A06B20283ED001205D
:10052000BDE8F88341F40061016072B6206841695A
:1005300081690091016821F48061016062B64B46D7
:1005400000224146204600F073FE08B905E05AE05B
:1005500024E02068006928704CE072B620680168C9
:1005600041F40071016020680069287062B620685B
:10057000006968703EE02068016821F480610160D4
:1005800072B62068006905F8010B761EB6B24B46BC
:1005900000224146204600F04BFE08B10320BFE791
:1005A0002068016841F4007101602068006905F865
:1005B000010B62B62068006905F8010BB61E15E054
:1005C000FFE74946204600F0BCFE0028A4D1206881
:1005D000006905F8010B2168761EB6B24869C04370
:1005E000400704D4086905F8010B761EB6B2002E48
:1005F0007FF470AF202084F8350084F8367084F8DA
:10060000347000208CE702208AE70000020010000E
:10061000040001002DE9F843044690F83500DDF8A8
:1006200020801D461746894620287BD1002F7AD08E
:10063000002D7ED042F2107301224049204600F086
:10064000F7FD002877D194F83400012873D00120F9
:1006500084F834002068016821F4006101602120E1
:1006600084F83500102084F836000026A663424640
:100670004946204600F0A2FD28B1A06B84F8346002
:10068000042856D00BE020684169806900904146FB
:10069000204600F089FE28B1A06B042844D0032036
:1006A000BDE8F883216817F8010B086120686D1E0A
:1006B000ADB24169C943490705D435B117F8011BEB
:1006C00001616D1EADB2002DE1D14546FFF744FE3C
:1006D0008046202716E0204600F0FDFC0028DBD1F4
:1006E000681C0FD02DB1FFF737FEA0EB0800A84221
:1006F00008D9A06B40F02001A16384F8357084F81C
:100700003460C9E720684069C0434007E3D42068EB
:10071000016841F40071016084F8357084F8346038
:100720000020BDE707E004E02068016841F40071A3
:1007300001600120B4E70220B2E7000002001000CF
:1007400000B500680C4985B0884212D1C0200090E5
:10075000122001900320039069460848FFF718FD16
:100760000748C16941F40011C161C06900F400107B
:10077000049005B000BD000000540040000C014092
:100780000010024002480168491C016070470000E7
:1007900000000020074810B5016841F01001016019
:1007A000032000F07BF8002000F006F800F016F8B7
:1007B000002010BD0020024010B5044600F044F9AE
:1007C0004FF47A71B0FBF1F000F06CFC002221468E
:1007D000501E00F043F8002010BD00001D4808B571
:1007E000816941F001018161806900F001000090A0
:1007F000032000F053F8002211466FF00B0000F0C8
:100800002DF8002211466FF00A0000F027F80022B0
:1008100011466FF0090000F021F800221146501F28
:1008200000F01CF800221146101F00F017F80022FB
:100830001146901E00F012F800221146501E00F0E2
:100840000DF80548416821F0E06141F00071416018
:1008500008BD00000010024000000140F0B40E4B43
:100860001B680C46C3F30223C3F10705042D00D90E
:100870000425191D072901D2002300E0DB1E0126F3
:1008800006FA05F1491E214099409E40761E164009
:100890003143F0BC00F006BE0CED00E0064900F06C
:1008A000070208684FF6FF03184040EA0220034A97
:1008B00010430860704700000CED00E00000FA05EE
:1008C0002DE9F047DFF8708105460E46D8F80000A4
:1008D00000F00700B0420CD2D8F8001021F0070158
:1008E0003143C8F80010D8F8000000F00700B0420B
:1008F00077D12878514C800705D56068A96820F029
:10090000F000084360602878C00759D0696801206A
:1009100001290DD0022929D05FF0020393FAA3F236
:10092000B2FA82F242F02002520904D0226803E0B7
:100930004FF40033F2E7626A93FAA3F3B3FA83F356
:1009400003F01F03984002424BD0606820F0030080
:1009500008436060FFF700FD6968074641F2883090
:1009600001290DD00229814617D025E04FF00073F0
:10097000D4E700BFFFF7F0FCC11B494501D918E0DF
:1009800081466068C0F381000128F3D118E000BF00
:10099000FFF7E2FCC11B49450BD86068C0F381003A
:1009A0000228F5D10CE000BFFFF7D6FCC11B49457A
:1009B00002D90320BDE8F087606810F00C0FF3D176
:1009C000D8F80010404601F00701B1420BD9016888
:1009D00021F0070131430160006800F00700B042D8
:1009E00001D00120E6E72878400705D56068E9686E
:1009F00020F4E060084360602878000706D560684E
:100A0000296920F4605040EAC100606000F03AF8C3
:100A10006168F02292FAA2F201F0F001B2FA82F2D9
:100A2000D140074A515CC840064908600020FFF7E2
:100A3000C3FE0020BEE7000000200240001002407C
:100A4000DC1B00080C000020014800687047000013
:100A50000C00002008480949006849684FF4E0622A
:100A600092FAA2F201F4E061B2FA82F2D140044AB1
:100A7000515CC840704700000C000020001002408C
:100A8000EC1B000810B519A385B00FCB8DE80F0043
:100A90001AA01B4B006804905A681A4802F00C0117
:100AA00004291DD008291BD14FF4701494FAA4F422
:100AB00002F47011B4FA84F4E140D2031DF801107D
:100AC00010D55A684FF4003393FAA3F302F40032BE
:100AD000B3FA83F3DA4004AB9A5CB0FBF2F048431C
:100AE00005B010BD08484843FAE7000002030405BA
:100AF000060708090A0B0C0D0E0F1010010200006A
:100B00000010024000127A0000093D002DE9F84F64
:100B100004460078F74DC0074FF0010625D06868FD
:100B20007704C0F38100012807D06868C0F3810012
:100B300002281BD16868C00318D597FAA7F0B0FA4D
:100B400080F040F02000400901D0286800E0686A89
:100B500097FAA7F1B1FA81F101F01F0106FA01F14C
:100B600008425ED0606800287CD05AE06068B0F52A
:100B7000803F0BD010B1B0F5A02F11D0286820F421
:100B800080302860286820F4802002E0286840F443
:100B900080302860606828B3FFF7DEFB80460BE0FA
:100BA000286840F480202860F0E700BFFFF7D4FBFE
:100BB000A0EB0800642871D897FAA7F0B0FA80F08B
:100BC00040F02000400901D0286800E0686A97FAE8
:100BD000A7F1B1FA81F101F01F0106FA01F1084213
:100BE000E4D01EE0FFF7B8FB804605E0FFF7B4FB5A
:100BF000A0EB08006428DED897FAA7F0B0FA80F0DE
:100C000040F02000400901D0286800E0686A97FAA7
:100C1000A7F1B1FA81F101F01F0106FA01F10842D2
:100C2000E4D12078DFF8D08280074FF000094FF040
:100C300002075BD568684FF0F80B10F00C0F07D077
:100C40006868C0F3810002281CD16868C00319D409
:100C500097FAA7F0B0FA80F040F02000400902D0E7
:100C6000286801E08BE0686A97FAA7F1B1FA81F190
:100C700001F01F0106FA01F108422CD02069012879
:100C80007DD128E0206990B396FAA6F0B0FA80F002
:100C900048F82060FFF760FB824607E011E100BFE3
:100CA000FFF75AFBA0EB0A00022884D897FAA7F0B6
:100CB000B0FA80F040F02000400901D0286800E040
:100CC000686A97FAA7F1B1FA81F101F01F0106FAFB
:100CD00001F10842E4D028689BFAABF26169B2FAEC
:100CE00082F220F0F80091400843286025E0FFE7F9
:100CF00096FAA6F1B1FA81F148F82190FFF72CFBA2
:100D0000824605E0FFF728FBA0EB0A000228CCD8BA
:100D100097FAA7F0B0FA80F040F02000400901D027
:100D2000286800E0686A97FAA7F1B1FA81F101F04A
:100D30001F0106FA01F10842E4D1207800076ED5C0
:100D4000A069B8B396FAA6F0B0FA80F008EB80007C
:100D5000C0F88064FFF700FB824605E0FFF7FCFA6D
:100D6000A0EB0A000228A0D897FAA7F0B0FA80F00A
:100D700040F06000B6EB501F02D128680CE062E141
:100D800097FAA7F0B0FA80F040F06000B7EB501F80
:100D900001D1286A00E0686A97FAA7F1B1FA81F1F7
:100DA00001F01F0106FA01F21042D7D00120FFF72F
:100DB000E3F934E0FFE796FAA6F1B1FA81F108EB26
:100DC0008101C1F88094FFF7C7FA824606E000BFB0
:100DD000FFF7C2FAA0EB0A00022872D897FAA7F030
:100DE000B0FA80F040F06000B6EB501F01D12868E7
:100DF0000BE097FAA7F0B0FA80F040F06000B7EB94
:100E0000501F01D1286A00E0686A97FAA7F1B1FA89
:100E100081F101F01F0106FA01F21042D8D12078C9
:100E2000400765D5E86940F08050E861E869DFF87F
:100E3000CCB000F080500090DBF8001041F48071DD
:100E4000CBF80010FFF788FA824605E0FFF784FA36
:100E5000A0EB0A00642834D8DBF80000C005F5D503
:100E6000E06801280AD008B1052813D0286A20F0CC
:100E700001002862286A20F0040002E0286A40F09D
:100E800001002862E06841F2883B90B3FFF764FA02
:100E900082460BE0286A40F004002862EEE700BFBB
:100EA000FFF75AFAA0EB0A0159450AD897FAA7F0BA
:100EB000B0FA80F040F04000B6EB501F02D1286835
:100EC0000CE0A3E097FAA7F0B0FA80F040F0400001
:100ED000B7EB501F01D1286A00E0686A97FAA7F1C2
:100EE000B1FA81F101F01F0206FA02F10842D7D0EF
:100EF00031E005E000100240000042420070004076
:100F0000FFF72AFA824605E0FFF726FAA0EB0A016E
:100F100059457BD897FAA7F0B0FA80F040F040002E
:100F2000B6EB501F01D128680BE097FAA7F0B0FA92
:100F300080F040F04000B7EB501F01D1286A00E07C
:100F4000686A97FAA7F1B1FA81F101F01F0206FA77
:100F500002F10842D8D1E06980B36968C1F3810128
:100F6000022970D04FF080714F000228484609D006
:100F700091FAA1F1B1FA81F148F82100FFF7ECF9FB
:100F8000044669E08A4691FAA1F1B1FA81F1C146BD
:100F900048F82100FFF7E0F9804605E0FFF7DCF9AB
:100FA000A0EB0800022854D897FAA7F0B0FA80F016
:100FB00040F02000400902D0286801E061E0686A42
:100FC00097FAA7F1B1FA81F101F01F0106FA01F1D8
:100FD0000842E3D1206AB0F5803F05D16868A16876
:100FE00020F4003008436860D4E9080108436968C8
:100FF00021F47411084368609AFAAAF0B0FA80F0FC
:1010000049F82060FFF7A8F9044606E021E000BF98
:10101000FFF7A2F9001B02281BD897FAA7F0B0FA35
:1010200080F040F02000400901D0286800E0686AA4
:1010300097FAA7F1B1FA81F101F01F0106FA01F167
:101040000842E5D01DE01EE0FFF786F9001B0228EC
:1010500002D90320BDE8F88F97FAA7F0B0FA80F024
:1010600040F02000400901D0286800E0686A97FA43
:10107000A7F1B1FA81F101F01F0106FA01F108426E
:10108000E2D10020E6E70120E4E74FF0E021042868
:10109000086903D020F004000861704740F00400A4
:1010A000FAE7704710B5401EB0F1807F01D30120F0
:1010B00010BD4FF0E02460610F21601700F0F2F9DD
:1010C0000020A06107202061002010BD10B5FFF7AF
:1010D000E8FF10BDFEE701684A69D24352050DD40E
:1010E0004A6922F480624A6104218163202180F8E8
:1010F0003510002180F8341001207047002070471F
:101100002DE9F843044600680D469146016841F414
:10111000806101602068016841F4807101601346BC
:101120004FF0011700223946204600F081F898BBA5
:10113000206907F10108B0F5804F10D00620216822
:1011400000EAD51646F0F00008614A46F91D20462F
:1011500000F0B3F838B1A06B04282CD01CE0E8B242
:1011600040F001001DE02168E8B208614A464146AE
:10117000204600F0A2F80028EDD12068416981697D
:101180000091016841F4807101604B4600223946AC
:10119000204600F04DF810B10320BDE8F88346F07A
:1011A000F100216808614A464146204600F085F872
:1011B0000028D0D1F1E70120EFE7000070B5044628
:1011C00000680D461646016841F4807101601346BF
:1011D00000224FF00111204600F02AF898B920694A
:1011E000B0F5804F11D00620216800EAD51040F0FC
:1011F000F000086132460D49204600F05EF838B133
:10120000A06B042810D0032070BD05F0FE0000E0A4
:10121000E8B22168086105493246891F204600F07E
:101220004CF80028ECD170BD012070BD0800010011
:101230002DE9F05F1E4690460C460546FFF78CF8F8
:1012400081464FF0000A4FF0200BC4F30747B8F176
:10125000000F09D024E0701C06D0D6B1FFF77CF84F
:10126000A0EB0900B04214D82868012F06D080698D
:1012700024EA00000004000C1BD0ECE74069F7E70B
:10128000701C0DD02EB1FFF767F8A0EB0900B0423B
:1012900006D985F835B085F834A00320BDE8F09F65
:1012A0002868012F07D0806924EA00000004000CA0
:1012B000E6D00020F2E74069F6E72DE9F0479146D5
:1012C0000D460446FFF748F8824600274FF02008F5
:1012D000C5F3074629E020684069C043400512D4A1
:1012E0002068016841F4007101602068416921F4BF
:1012F000806141610420A06384F8358084F83470F3
:101300000120BDE8F087B9F1FF3F0ED0B9F1000F21
:1013100005D0FFF721F8A0EB0A01494505D984F86B
:10132000358084F834700320EBE72068012E06D066
:10133000806925EA00000004000CE2D0CBE7406998
:10134000F7E72DE9F04188460446FFF705F8002548
:101350000646202721E04169C943C9060BD44169EB
:1013600021F010014161A56384F8357084F8345090
:101370000120BDE8F081B8F1000F04D0FEF7ECFFCA
:10138000811B414509D954F8380F40F0200044F83A
:101390000409677025700320EBE720684169C943A1
:1013A0004906D8D40020E4E770B50D460446FEF7A0
:1013B000D3FF064619E02046FFF78DFE08B1012055
:1013C00070BD681C11D025B1FEF7C6FF801BA84276
:1013D0000BD954F8380F40F0200044F804092020BD
:1013E000607000202070032070BD20684069C043F9
:1013F0000006E0D4002070BD174810B5816986B0A2
:1014000041F020018161816901F02001049181692D
:1014100041F004018161816901F004010491816955
:1014200041F0080181618069002400F00800049007
:101430004FF4006000900948CDE90104694608486E
:10144000FEF7A6FE3820CDE900046946054802945F
:10145000FEF79EFE06B010BD0010024000002110F5
:1014600000080140000C01400B4810B5094901601B
:101470000A49416000214FF480428160C0E90312B3
:1014800041618161C1610162FEF76CFF002800D0FB
:10149000FEE710BD0054004010000020A0860100AF
:1014A000FEE770470907090E002806DA00F00F0072
:1014B00000F1E02080F8141D704700F1E02080F872
:1014C000001470477047704710B5FFF75BF9BDE82F
:1014D0001040FFF7FBBD30B58FB001252804CDE9E2
:1014E0000050002407946846FFF710FB00B1FEE7A8
:1014F0000F200A90CDE90B540D9400210AA80E94F8
:10150000FFF7DEF900B1FEE7FFF79EFA4FF47A71BC
:10151000B0FBF1F0FFF7C6FD0420FFF7B6FD002297
:101520001146501EFFF79AF90FB030BD0D48016803
:1015300041F00101016041680B4A114041600168BE
:101540000A4A11400160016821F48021016041686C
:1015500021F4FE0141604FF41F0181600449C00382
:1015600008607047001002400000FFF8FFFFF6FE21
:1015700008ED00E0FEE700000FB4084B10B504A929
:1015800002AA039800F01CF8044602A9002000F00B
:10159000C1F8204610BC5DF814FB000015170008C8
:1015A00002E008C8121F08C1002AFAD1704770472C
:1015B000002001E001C1121F002AFBD1704700008A
:1015C0002DE9FF4F89B09B460446002506E02528FB
:1015D0000BD05A460B999047641C6D1C207800284C
:1015E000F5D10DB02846BDE8F08F0027B84601229E
:1015F000474900E0074314F8013F203B02FA03F09B
:101600000842F7D120782E2819D114F8010F47F09D
:1016100004072A280ED06FF02F022078A0F13001A5
:1016200009290CD808EB880102EB410100EB010805
:10163000641CF2E70A98641C50F8048B0A90207826
:101640000028CED0642808D0692806D075281ED07E
:101650005A460B9990476D1C58E00A994FF00A09B9
:1016600001C90A91002802DA40422D2102E0390521
:1016700004D52B218DF82010012103E0F90704D0B7
:101680002021F7E78A4608AE0DE00021FAE70A9923
:101690004FF00A0901C90A91F7E74946FEF742FDF2
:1016A000303106F8011D0028F7D1ADEB060000F13E
:1016B0002009780701D44FF00108C84502DDA8EBE6
:1016C000090000E000208046002706E008A85A46EE
:1016D000C05D0B9990476D1C7F1C5745F6DB04E0FD
:1016E00030205A460B9990476D1CB8F10001A8F1C3
:1016F0000108F5DC05E016F8010B5A460B999047F6
:101700006D1CB9F10001A9F10109F4DC641C65E765
:10171000092801000A68531C0B601070704701090A
:1017200000F00F0001EB810100EB4100C0B27047F7
:101730000A22B0FBF2F102FB1102080742EA106034
:10174000704710B5044600F081F82007000E00F045
:101750007DF8BDE810400120FEF70EBD10B504462F
:1017600000224FF480510448FEF7F0FD2046BDE80A
:101770001040FFF7E6BF0000000C014029B101292D
:1017800005D1C030C0B2FFF7E9BF8030FAE770473B
:1017900010B500F0ADF82B4C00224FF480512046DC
:1017A000FEF7D4FD002261142046FEF7CFFD002293
:1017B0004FF480412046FEF7C9FD234C0022102142
:1017C0002046FEF7C3FD002220212046FEF7BEFD85
:1017D000002240212046FEF7B9FD0022802120464C
:1017E000FEF7B4FD0F20FEF7C7FC302000F02EF806
:1017F0000520FEF7C1FC302000F028F80120FEF79C
:10180000BBFC302000F022F80120FEF7B5FC2020C0
:1018100000F01CF86420FEF7AFFC2820FFF79EFFC5
:101820000C20FFF79BFF0620FFF798FF0120FFF732
:1018300095FF0220FFF792FFBDE810406420FEF7FD
:101840009BBC0000000C01400008014070B5264E12
:10185000044600224FF400513046FEF777FD234D39
:10186000002210212846FEF771FD2009C00704D090
:10187000012210212846FEF769FD0022202128467A
:10188000FEF764FD6009C00704D00122202128462C
:10189000FEF75CFD002240212846FEF757FDA00917
:1018A000C00704D0012240212846FEF74FFD002248
:1018B00080212846FEF74AFDE00904D0012280215C
:1018C0002846FEF743FD0122940321463046FEF7E9
:1018D0003DFD0120FEF750FC21463046BDE870403A
:1018E0000022FEF733BD0000000C0140000801405B
:1018F0007FB54FF480500124CDE900041C4E032530
:10190000694603953046FEF743FC6003CDE90004C9
:10191000694603953046FEF73BFCA003CDE9000481
:10192000694603953046FEF733FC1020CDE90004EC
:10193000104E694603953046FEF72AFC2020CDE97B
:101940000004694603953046FEF722FC4020CDE9AD
:101950000004694603953046FEF71AFC8020CDE965
:101960000004694603953046FEF712FC7FBD000077
:10197000000C01400008014010B50446012211038B
:101980000348FEF7E3FC2046BDE81040FFF7D9BE50
:10199000000C014010B5044603E000BFFFF7ECFF68
:1019A000641C20780028F9D110BD00001CB5FEF79A
:1019B000F1FEFFF790FDFFF71FFDFFF755FDFFF765
:1019C000E7FE32220D21152000F0E0F81123082255
:1019D0001946052000F0B4F8194C4FF49675184AD2
:1019E000921C511E481E00F07DF8A078009063788C
:1019F000227814A11848FFF7BFFD00210846FFF721
:101A0000BDFE1548FFF7C6FF0D4B9B1D5A1E511E0C
:101A1000481E00F031F8A1796079CDE90001237901
:101A2000E2780EA10C48FFF7A7FD01210020FFF787
:101A3000A5FE0948FFF7AEFF2846FEF79DFBCEE75F
:101A40000400002025302E32643A25302E32643ACC
:101A500025302E32640000004C00002025302E324C
:101A6000642D25302E32642F25302E32642F3230F3
:101A700025302E32640000002DE9F8430D46174949
:101A80000646032008701446984664270A46012338
:101A9000D02113480097FEF7BDFD104A04234032C1
:101AA000D1210F480097FEF7CDFC0C4B403318783E
:101AB000FFF735FE30705878FFF731FE28709878C0
:101AC000FFF72DFE2070D878FFF729FE88F8000078
:101AD000BDE8F8436420FEF74FBB00008C000020F7
:101AE00010000020F8B50D46134906460020087086
:101AF000144664270A460123D02110480097FEF7B8
:101B000089FD0D4A03234032D1210C480097FEF78E
:101B100099FC094B40331878FFF701FE2070587884
:101B2000FFF7FDFD28709878FFF7F9FD3070BDE8EC
:101B3000F8406420FEF720BB8C000020100000203D
:101B4000F8B5104C0E46032115462170FFF7F0FD45
:101B500060703046FFF7ECFDA0702846FFF7E8FD07
:101B6000E0701846FFF7E4FD207164200090052323
:101B70002246D0210448FEF74DFDBDE8F840642020
:101B8000FEF7FABA8C0000201000002038B5114B87
:101B90000446002018700D461046FFF7C9FD00F0FE
:101BA0007F0058702846FFF7C3FD98702046FFF766
:101BB000BFFD00F03F00D870642000900423054A68
:101BC000D0210548FEF726FDBDE838406420FEF729
:101BD000D3BA00008C00002010000020000000009C
:101BE00000000000010203040607080900000000CD
:101BF00001020304141C0008000000201000000073
:101C0000A0150008241C000810000020000500009A
:101C1000B0150008000000000000000000000000F7
:041C200000A24A04D0
:04000005080000ED02
:00000001FF
