:020000040800F2
:100000000804002001010008EB0C0008590C00084E
:10001000E90C000849010008BD0D000800000000BF
:100020000000000000000000000000000F0D0008AC
:100030004B010008000000000D0D0008110D000824
:100040001B0100081B0100081B0100081B01000820
:100050001B0100081B0100081B0100081B01000810
:100060001B0100081B0100081B0100081B01000800
:100070001B0100081B0100081B0100081B010008F0
:100080001B0100081B0100081B0100081B010008E0
:100090001B0100081B0100081B0100081B010008D0
:1000A0001B0100081B0100081B0100081B010008C0
:1000B0001B0100081B0100081B0100081B010008B0
:1000C0001B0100081B0100081B0100081B010008A0
:1000D0001B0100081B0100081B0100081B01000890
:1000E0001B0100081B0100081B010008DFF80CD0F1
:1000F00000F018F8004800474910000808040020E4
:100100000648804706480047FEE7FEE7FEE7FEE7B1
:10011000FEE7FEE7FEE7FEE7FEE7FEE7750D0008F7
:10012000ED000008064C074D06E0E06840F00103D2
:1001300094E8070098471034AC42F6D3FFF7DAFF93
:1001400084100008A4100008FEE7704731B500F0E5
:10015000EDF8044600F0EAF80099001B8842F9D354
:1001600038BD00002DE9F84FDFF890A100220AF118
:10017000040B144601274FF00F090BF1040E00BFCA
:100180000B6807FA04F52B40AB4274D1DFF870C15D
:100190004E68A6EB0C0866452BD00DDC032E34D040
:1001A00005DC36B3012E19D0022E2FD11BE0112E03
:1001B00016D0122E2AD119E0B8F5881F19D006DC06
:1001C000B8F5803F15D0B8F5801F1FD111E0B8F504
:1001D000001F0ED0B8F5041F18D10AE0CA6815E058
:1001E000CA68121D12E0CA6808320FE0CA680C32F1
:1001F0000CE08A682AB1012A4FF0080203D0456159
:1002000004E0042202E0056100E00022FF2B01D897
:10021000064601E000F104064FEA840501D9A5F184
:100220002005D6F800C009FA05F82CEA080C02FAF5
:1002300005F54CEA050CC6F800C04D68ED0057D531
:10024000304DAE6946F00106AE61AD6924F003069B
:1002500005F0010500952C4D06EB050CDCF8085067
:10026000A6074FEA167809FA08F6B543274EB042BA
:1002700002D1002610E03BE0254EB04201D101261C
:100280000AE0244EB04201D1022605E0224EB042DF
:1002900001D1032600E0042606FA08F62E43CCF826
:1002A00008604D68DAF80060ED03554601D51E433D
:1002B00000E09E432E604D68DBF80060AD035D46B4
:1002C00001D51E4300E09E432E604D68DEF80060BD
:1002D000ED02754601D51E4300E09E432E604D6839
:1002E000AD020E4D2E6801D51E4300E09E432E60E8
:1002F000641C102CFFF444AFBDE8F88F00040140EB
:1003000000001110001002400000014000080140F0
:10031000000C014000100140001401400C04014099
:100320000AB1016170470904FBE700000148006859
:10033000704700000400002002480168491C016069
:100340007047000004000020074810B5016841F024
:1003500010010160032000F07BF8002000F006F897
:1003600000F016F8002010BD0020024010B5044631
:1003700000F044F94FF47A71B0FBF1F000F054FC56
:1003800000222146501E00F043F8002010BD00005E
:100390001D4808B5816941F001018161806900F063
:1003A00001000090032000F053F8002211466FF086
:1003B0000B0000F02DF8002211466FF00A0000F04B
:1003C00027F8002211466FF0090000F021F8002202
:1003D0001146501F00F01CF800221146101F00F0BB
:1003E00017F800221146901E00F012F80022114664
:1003F000501E00F00DF80548416821F0E06141F021
:100400000071416008BD0000001002400000014082
:10041000F0B40E4B1B680C46C3F30223C3F107056F
:10042000042D00D90425191D072901D2002300E05D
:10043000DB1E012606FA05F1491E214099409E4027
:10044000761E16403143F0BC00F050BC0CED00E0CD
:10045000064900F0070208684FF6FF03184040EA1B
:100460000220034A10430860704700000CED00E0D2
:100470000000FA052DE9F047DFF8708105460E46C9
:10048000D8F8000000F00700B0420CD2D8F80010F5
:1004900021F007013143C8F80010D8F8000000F03F
:1004A0000700B04277D12878514C800705D56068A5
:1004B000A96820F0F000084360602878C00759D090
:1004C0006968012001290DD0022929D05FF00203BB
:1004D00093FAA3F2B2FA82F242F02002520904D057
:1004E000226803E04FF40033F2E7626A93FAA3F361
:1004F000B3FA83F303F01F03984002424BD06068C5
:1005000020F0030008436060FFF710FF69680746AA
:1005100041F2883001290DD00229814617D025E00B
:100520004FF00073D4E700BFFFF700FFC11B494540
:1005300001D918E081466068C0F381000128F3D139
:1005400018E000BFFFF7F2FEC11B49450BD86068F9
:10055000C0F381000228F5D10CE000BFFFF7E6FEF2
:10056000C11B494502D90320BDE8F087606810F03F
:100570000C0FF3D1D8F80010404601F00701B1424A
:100580000BD9016821F0070131430160006800F0D8
:100590000700B04201D00120E6E72878400705D5E2
:1005A0006068E96820F4E06008436060287800072C
:1005B00006D56068296920F4605040EAC100606097
:1005C00000F022F86168F02292FAA2F201F0F00144
:1005D000B2FA82F2D140074A515CC840064908602D
:1005E0000020FFF7C3FE0020BEE70000002002400D
:1005F000001002407410000800000020014800684C
:10060000704700000000002010B519A385B00FCB83
:100610008DE80F001AA01B4B006804905A681A4816
:1006200002F00C0104291DD008291BD14FF47014CD
:1006300094FAA4F402F47011B4FA84F4E140D20301
:100640001DF8011010D55A684FF4003393FAA3F344
:1006500002F40032B3FA83F3DA4004AB9A5CB0FBE5
:10066000F2F0484305B010BD08484843FAE70000DF
:1006700002030405060708090A0B0C0D0E0F1010E3
:10068000010200000010024000127A0000093D0043
:100690002DE9F84F04460078F74DC0074FF00106EA
:1006A00025D068687704C0F38100012807D0686806
:1006B000C0F3810002281BD16868C00318D597FADF
:1006C000A7F0B0FA80F040F02000400901D028687F
:1006D00000E0686A97FAA7F1B1FA81F101F01F0111
:1006E00006FA01F108425ED0606800287CD05AE02A
:1006F0006068B0F5803F0BD010B1B0F5A02F11D0DD
:10070000286820F480302860286820F4802002E0E7
:10071000286840F480302860606828B3FFF706FE40
:1007200080460BE0286840F480202860F0E700BF96
:10073000FFF7FCFDA0EB0800642871D897FAA7F03A
:10074000B0FA80F040F02000400901D0286800E0B5
:10075000686A97FAA7F1B1FA81F101F01F0106FA70
:1007600001F10842E4D01EE0FFF7E0FD804605E01D
:10077000FFF7DCFDA0EB08006428DED897FAA7F0AD
:10078000B0FA80F040F02000400901D0286800E075
:10079000686A97FAA7F1B1FA81F101F01F0106FA30
:1007A00001F10842E4D12078DFF8D08280074FF0D1
:1007B00000094FF002075BD568684FF0F80B10F0A6
:1007C0000C0F07D06868C0F3810002281CD168684C
:1007D000C00319D497FAA7F0B0FA80F040F02000D7
:1007E000400902D0286801E08BE0686A97FAA7F117
:1007F000B1FA81F101F01F0106FA01F108422CD093
:10080000206901287DD128E0206990B396FAA6F0EE
:10081000B0FA80F048F82060FFF788FD824607E0D4
:1008200011E100BFFFF782FDA0EB0A00022884D887
:1008300097FAA7F0B0FA80F040F02000400901D00C
:10084000286800E0686A97FAA7F1B1FA81F101F02F
:100850001F0106FA01F10842E4D028689BFAABF2C6
:100860006169B2FA82F220F0F800914008432860F2
:1008700025E0FFE796FAA6F1B1FA81F148F8219058
:10088000FFF754FD824605E0FFF750FDA0EB0A009C
:100890000228CCD897FAA7F0B0FA80F040F02000F8
:1008A000400901D0286800E0686A97FAA7F1B1FA18
:1008B00081F101F01F0106FA01F10842E4D120782C
:1008C00000076ED5A069B8B396FAA6F0B0FA80F02A
:1008D00008EB8000C0F88064FFF728FD824605E041
:1008E000FFF724FDA0EB0A000228A0D897FAA7F092
:1008F000B0FA80F040F06000B6EB501F02D12868DB
:100900000CE062E197FAA7F0B0FA80F040F06000E6
:10091000B7EB501F01D1286A00E0686A97FAA7F187
:10092000B1FA81F101F01F0106FA01F21042D7D0AD
:100930000120FFF70BFC34E0FFE796FAA6F1B1FACD
:1009400081F108EB8101C1F88094FFF7EFFC82464A
:1009500006E000BFFFF7EAFCA0EB0A00022872D80D
:1009600097FAA7F0B0FA80F040F06000B6EB501FA5
:1009700001D128680BE097FAA7F0B0FA80F040F0B8
:100980006000B7EB501F01D1286A00E0686A97FA4F
:10099000A7F1B1FA81F101F01F0106FA01F210424C
:1009A000D8D12078400765D5E86940F08050E861EB
:1009B000E869DFF8CCB000F080500090DBF8001060
:1009C00041F48071CBF80010FFF7B0FC824605E0DF
:1009D000FFF7ACFCA0EB0A00642834D8DBF8000079
:1009E000C005F5D5E06801280AD008B1052813D064
:1009F000286A20F001002862286A20F0040002E042
:100A0000286A40F001002862E06841F2883B90B318
:100A1000FFF78CFC82460BE0286A40F00400286255
:100A2000EEE700BFFFF782FCA0EB0A0159450AD8A8
:100A300097FAA7F0B0FA80F040F04000B6EB501FF4
:100A400002D128680CE0A3E097FAA7F0B0FA80F092
:100A500040F04000B7EB501F01D1286A00E0686AFF
:100A600097FAA7F1B1FA81F101F01F0206FA02F13B
:100A70000842D7D031E005E00010024000004242B9
:100A800000700040FFF752FC824605E0FFF74EFC85
:100A9000A0EB0A0159457BD897FAA7F0B0FA80F08D
:100AA00040F04000B6EB501F01D128680BE097FAE8
:100AB000A7F0B0FA80F040F04000B7EB501F01D132
:100AC000286A00E0686A97FAA7F1B1FA81F101F0AB
:100AD0001F0206FA02F10842D8D1E06980B36968C2
:100AE000C1F38101022970D04FF080714F000228BC
:100AF000484609D091FAA1F1B1FA81F148F82100F4
:100B0000FFF714FC044669E08A4691FAA1F1B1FAB4
:100B100081F1C14648F82100FFF708FC804605E056
:100B2000FFF704FCA0EB0800022854D897FAA7F0BE
:100B3000B0FA80F040F02000400902D0286801E0BF
:100B400061E0686A97FAA7F1B1FA81F101F01F013B
:100B500006FA01F10842E3D1206AB0F5803F05D1E1
:100B60006868A16820F4003008436860D4E908018F
:100B70000843696821F47411084368609AFAAAF07E
:100B8000B0FA80F049F82060FFF7D0FB044606E099
:100B900021E000BFFFF7CAFB001B02281BD897FA11
:100BA000A7F0B0FA80F040F02000400901D028689A
:100BB00000E0686A97FAA7F1B1FA81F101F01F012C
:100BC00006FA01F10842E5D01DE01EE0FFF7AEFB9A
:100BD000001B022802D90320BDE8F88F97FAA7F07E
:100BE000B0FA80F040F02000400901D0286800E011
:100BF000686A97FAA7F1B1FA81F101F01F0106FACC
:100C000001F10842E2D10020E6E70120E4E74FF0DD
:100C1000E0210428086903D020F00400086170472F
:100C200040F00400FAE7704710B5401EB0F1807F35
:100C300001D3012010BD4FF0E02460610F21601747
:100C400000F054F80020A06107202061002010BDB2
:100C500010B5FFF7E8FF10BDFEE700002DE9F041F9
:100C60001E4886B0816941F020018161816901F0EF
:100C700020010491816941F004018161816901F0E1
:100C800004010491816941F0080181618069144F78
:100C900000F0080004900022F0213846FFF740FBE6
:100CA000DFF840804FF4E046002231464046FFF72F
:100CB00037FBF0200124CDE90004022569460395A5
:100CC0003846FFF74FFACDE9006469464046039580
:100CD000FFF748FA06B0BDE8F081000000100240BE
:100CE00000080140000C0140FEE770470907090EAB
:100CF000002806DA00F00F0000F1E02080F8141D53
:100D0000704700F1E02080F800147047704770478A
:100D100010B5FFF711FBBDE81040FFF799BF30B5E4
:100D20008FB001252804CDE90050002407946846BF
:100D3000FFF7AEFC00B1FEE70F200A90CDE90B549F
:100D40000D9400210AA80E94FFF794FB00B1FEE772
:100D5000FFF754FC4FF47A71B0FBF1F0FFF764FF3A
:100D60000420FFF754FF00221146501EFFF750FBEE
:100D70000FB030BD0D48016841F0010101604168CC
:100D80000B4A1140416001680A4A11400160016844
:100D900021F480210160416821F4FE0141604FF49B
:100DA0001F0181600449C0030860704700100240C1
:100DB0000000FFF8FFFFF6FE08ED00E0FEE702E0AE
:100DC00008C8121F08C1002AFAD1704770470020D6
:100DD00001E001C1121F002AFBD1704710B5044683
:100DE00000F082F82007000E00F07EF8BDE8104009
:100DF0000120FFF7ABB9000010B5044600224FF404
:100E000080510448FFF78CFA2046BDE81040FFF7F8
:100E1000E5BF0000000C014029B1012905D1C03017
:100E2000C0B2FFF7E9BF8030FAE7704710B500F0B5
:100E3000ADF82B4C00224FF480512046FFF770FA9A
:100E4000002261142046FFF76BFA00224FF4804124
:100E50002046FFF765FA234C002210212046FFF7B9
:100E60005FFA002220212046FFF75AFA0022402193
:100E70002046FFF755FA002280212046FFF750FA5E
:100E80000F20FFF763F9302000F02EF80520FFF760
:100E90005DF9302000F028F80120FFF757F93020E5
:100EA00000F022F80120FFF751F9202000F01CF893
:100EB0006420FFF74BF92820FFF79EFF0C20FFF777
:100EC0009BFF0620FFF798FF0120FFF795FF022008
:100ED000FFF792FFBDE810406420FFF737B900002C
:100EE000000C01400008014070B5264E0446002267
:100EF0004FF400513046FFF713FA234D0022102122
:100F00002846FFF70DFA2009C00704D0012210215E
:100F10002846FFF705FA002220212846FFF700FAAD
:100F20006009C00704D0012220212846FFF7F8F904
:100F3000002240212846FFF7F3F9A009C00704D09A
:100F4000012240212846FFF7EBF9002280212846A4
:100F5000FFF7E6F9E00904D0012280212846FFF7D7
:100F6000DFF90122940321463046FFF7D9F9012029
:100F7000FFF7ECF821463046BDE870400022FFF74D
:100F8000CFB90000000C0140000801407FB54FF4CC
:100F900080500124CDE900041C4E032569460395C9
:100FA0003046FFF7DFF86003CDE90004694603959A
:100FB0003046FFF7D7F8A003CDE900046946039552
:100FC0003046FFF7CFF81020CDE90004104E6946F7
:100FD00003953046FFF7C6F82020CDE900046946A6
:100FE00003953046FFF7BEF84020CDE9000469467E
:100FF00003953046FFF7B6F88020CDE90004694636
:1010000003953046FFF7AEF87FBD0000000C0140AD
:101010000008014010B50446012211030348FFF700
:101020007FF92046BDE81040FFF7D8BE000C014014
:1010300010B5044603E000BFFFF7ECFF641C207806
:101040000028F9D110BD0000FFF77EF9FFF767FE19
:10105000FFF704FEFFF7EAFE01210520FFF7DCFEA3
:1010600001A0FFF7E5FFFEE758696E206368616F36
:101070000000000000000000000000000102030466
:1010800006070809A410000800000020080000005E
:10109000BE0D0008AC10000808000020000400008D
:0C10A000CE0D000800A24A040000000071
:04000005080000ED02
:00000001FF
